{
	"contracts/1_Tweeter.sol": {
		"TweetContent": {
			"abi": [
				{
					"inputs": [
						{
							"internalType": "address",
							"name": "_operator",
							"type": "address"
						}
					],
					"name": "allow",
					"outputs": [],
					"stateMutability": "nonpayable",
					"type": "function"
				},
				{
					"inputs": [
						{
							"internalType": "address",
							"name": "",
							"type": "address"
						},
						{
							"internalType": "uint256",
							"name": "",
							"type": "uint256"
						}
					],
					"name": "conversations",
					"outputs": [
						{
							"internalType": "uint256",
							"name": "id",
							"type": "uint256"
						},
						{
							"internalType": "string",
							"name": "content",
							"type": "string"
						},
						{
							"internalType": "address",
							"name": "to",
							"type": "address"
						},
						{
							"internalType": "address",
							"name": "from",
							"type": "address"
						},
						{
							"internalType": "uint256",
							"name": "createdAt",
							"type": "uint256"
						}
					],
					"stateMutability": "view",
					"type": "function"
				},
				{
					"inputs": [
						{
							"internalType": "address",
							"name": "_operator",
							"type": "address"
						}
					],
					"name": "disallow",
					"outputs": [],
					"stateMutability": "nonpayable",
					"type": "function"
				},
				{
					"inputs": [
						{
							"internalType": "address",
							"name": "_followed",
							"type": "address"
						}
					],
					"name": "follow",
					"outputs": [],
					"stateMutability": "nonpayable",
					"type": "function"
				},
				{
					"inputs": [
						{
							"internalType": "address",
							"name": "",
							"type": "address"
						},
						{
							"internalType": "uint256",
							"name": "",
							"type": "uint256"
						}
					],
					"name": "following",
					"outputs": [
						{
							"internalType": "address",
							"name": "",
							"type": "address"
						}
					],
					"stateMutability": "view",
					"type": "function"
				},
				{
					"inputs": [
						{
							"internalType": "uint256",
							"name": "count",
							"type": "uint256"
						}
					],
					"name": "getLatestTweets",
					"outputs": [
						{
							"components": [
								{
									"internalType": "uint256",
									"name": "id",
									"type": "uint256"
								},
								{
									"internalType": "address",
									"name": "author",
									"type": "address"
								},
								{
									"internalType": "string",
									"name": "content",
									"type": "string"
								},
								{
									"internalType": "uint256",
									"name": "createdAt",
									"type": "uint256"
								}
							],
							"internalType": "struct TweetContent.Tweet[]",
							"name": "",
							"type": "tuple[]"
						}
					],
					"stateMutability": "view",
					"type": "function"
				},
				{
					"inputs": [
						{
							"internalType": "address",
							"name": "_user",
							"type": "address"
						},
						{
							"internalType": "uint256",
							"name": "count",
							"type": "uint256"
						}
					],
					"name": "getLatestofUser",
					"outputs": [
						{
							"components": [
								{
									"internalType": "uint256",
									"name": "id",
									"type": "uint256"
								},
								{
									"internalType": "address",
									"name": "author",
									"type": "address"
								},
								{
									"internalType": "string",
									"name": "content",
									"type": "string"
								},
								{
									"internalType": "uint256",
									"name": "createdAt",
									"type": "uint256"
								}
							],
							"internalType": "struct TweetContent.Tweet[]",
							"name": "",
							"type": "tuple[]"
						}
					],
					"stateMutability": "view",
					"type": "function"
				},
				{
					"inputs": [
						{
							"internalType": "address",
							"name": "",
							"type": "address"
						},
						{
							"internalType": "address",
							"name": "",
							"type": "address"
						}
					],
					"name": "operators",
					"outputs": [
						{
							"internalType": "bool",
							"name": "",
							"type": "bool"
						}
					],
					"stateMutability": "view",
					"type": "function"
				},
				{
					"inputs": [
						{
							"internalType": "address",
							"name": "_from",
							"type": "address"
						},
						{
							"internalType": "address",
							"name": "_to",
							"type": "address"
						},
						{
							"internalType": "string",
							"name": "_content",
							"type": "string"
						}
					],
					"name": "sendMessage",
					"outputs": [],
					"stateMutability": "nonpayable",
					"type": "function"
				},
				{
					"inputs": [
						{
							"internalType": "address",
							"name": "_to",
							"type": "address"
						},
						{
							"internalType": "string",
							"name": "_content",
							"type": "string"
						}
					],
					"name": "sendMessage",
					"outputs": [],
					"stateMutability": "nonpayable",
					"type": "function"
				},
				{
					"inputs": [
						{
							"internalType": "address",
							"name": "_from",
							"type": "address"
						},
						{
							"internalType": "string",
							"name": "_content",
							"type": "string"
						}
					],
					"name": "tweet",
					"outputs": [],
					"stateMutability": "nonpayable",
					"type": "function"
				},
				{
					"inputs": [
						{
							"internalType": "string",
							"name": "_content",
							"type": "string"
						}
					],
					"name": "tweet",
					"outputs": [],
					"stateMutability": "nonpayable",
					"type": "function"
				},
				{
					"inputs": [
						{
							"internalType": "uint256",
							"name": "",
							"type": "uint256"
						}
					],
					"name": "tweets",
					"outputs": [
						{
							"internalType": "uint256",
							"name": "id",
							"type": "uint256"
						},
						{
							"internalType": "address",
							"name": "author",
							"type": "address"
						},
						{
							"internalType": "string",
							"name": "content",
							"type": "string"
						},
						{
							"internalType": "uint256",
							"name": "createdAt",
							"type": "uint256"
						}
					],
					"stateMutability": "view",
					"type": "function"
				},
				{
					"inputs": [
						{
							"internalType": "address",
							"name": "",
							"type": "address"
						},
						{
							"internalType": "uint256",
							"name": "",
							"type": "uint256"
						}
					],
					"name": "tweetsOf",
					"outputs": [
						{
							"internalType": "uint256",
							"name": "",
							"type": "uint256"
						}
					],
					"stateMutability": "view",
					"type": "function"
				}
			],
			"devdoc": {
				"kind": "dev",
				"methods": {},
				"version": 1
			},
			"evm": {
				"assembly": "    /* \"contracts/1_Tweeter.sol\":70:2899  contract TweetContent{... */\n  mstore(0x40, 0x80)\n  callvalue\n  dup1\n  iszero\n  tag_1\n  jumpi\n  0x00\n  dup1\n  revert\ntag_1:\n  pop\n  dataSize(sub_0)\n  dup1\n  dataOffset(sub_0)\n  0x00\n  codecopy\n  0x00\n  return\nstop\n\nsub_0: assembly {\n        /* \"contracts/1_Tweeter.sol\":70:2899  contract TweetContent{... */\n      mstore(0x40, 0x80)\n      callvalue\n      dup1\n      iszero\n      tag_1\n      jumpi\n      0x00\n      dup1\n      revert\n    tag_1:\n      pop\n      jumpi(tag_2, lt(calldatasize, 0x04))\n      shr(0xe0, calldataload(0x00))\n      dup1\n      0xaf22bf94\n      gt\n      tag_17\n      jumpi\n      dup1\n      0xde6f24bb\n      gt\n      tag_18\n      jumpi\n      dup1\n      0xde6f24bb\n      eq\n      tag_13\n      jumpi\n      dup1\n      0xe8d857b0\n      eq\n      tag_14\n      jumpi\n      dup1\n      0xfb46d4c5\n      eq\n      tag_15\n      jumpi\n      dup1\n      0xff9913e8\n      eq\n      tag_16\n      jumpi\n      jump(tag_2)\n    tag_18:\n      dup1\n      0xaf22bf94\n      eq\n      tag_10\n      jumpi\n      dup1\n      0xb88e318d\n      eq\n      tag_11\n      jumpi\n      dup1\n      0xd21d1596\n      eq\n      tag_12\n      jumpi\n      jump(tag_2)\n    tag_17:\n      dup1\n      0x4dc0a687\n      gt\n      tag_19\n      jumpi\n      dup1\n      0x4dc0a687\n      eq\n      tag_6\n      jumpi\n      dup1\n      0x5284b64a\n      eq\n      tag_7\n      jumpi\n      dup1\n      0x9139cda5\n      eq\n      tag_8\n      jumpi\n      dup1\n      0xa9ed9cb8\n      eq\n      tag_9\n      jumpi\n      jump(tag_2)\n    tag_19:\n      dup1\n      0x2637588e\n      eq\n      tag_3\n      jumpi\n      dup1\n      0x3befea09\n      eq\n      tag_4\n      jumpi\n      dup1\n      0x4dbf27cc\n      eq\n      tag_5\n      jumpi\n    tag_2:\n      0x00\n      dup1\n      revert\n        /* \"contracts/1_Tweeter.sol\":485:542  mapping(address=>mapping(address=>bool)) public operators */\n    tag_3:\n      tag_20\n      0x04\n      dup1\n      calldatasize\n      sub\n      dup2\n      add\n      swap1\n      tag_21\n      swap2\n      swap1\n      tag_22\n      jump\t// in\n    tag_21:\n      tag_23\n      jump\t// in\n    tag_20:\n      mload(0x40)\n      tag_24\n      swap2\n      swap1\n      tag_25\n      jump\t// in\n    tag_24:\n      mload(0x40)\n      dup1\n      swap2\n      sub\n      swap1\n      return\n        /* \"contracts/1_Tweeter.sol\":431:479  mapping(address=>Message[]) public conversations */\n    tag_4:\n      tag_26\n      0x04\n      dup1\n      calldatasize\n      sub\n      dup2\n      add\n      swap1\n      tag_27\n      swap2\n      swap1\n      tag_28\n      jump\t// in\n    tag_27:\n      tag_29\n      jump\t// in\n    tag_26:\n      mload(0x40)\n      tag_30\n      swap6\n      swap5\n      swap4\n      swap3\n      swap2\n      swap1\n      tag_31\n      jump\t// in\n    tag_30:\n      mload(0x40)\n      dup1\n      swap2\n      sub\n      swap1\n      return\n        /* \"contracts/1_Tweeter.sol\":1601:1697  function follow(address _followed) public {... */\n    tag_5:\n      tag_32\n      0x04\n      dup1\n      calldatasize\n      sub\n      dup2\n      add\n      swap1\n      tag_33\n      swap2\n      swap1\n      tag_34\n      jump\t// in\n    tag_33:\n      tag_35\n      jump\t// in\n    tag_32:\n      stop\n        /* \"contracts/1_Tweeter.sol\":1907:2377  function getLatestTweets(uint count) public view  returns(Tweet[] memory){... */\n    tag_6:\n      tag_36\n      0x04\n      dup1\n      calldatasize\n      sub\n      dup2\n      add\n      swap1\n      tag_37\n      swap2\n      swap1\n      tag_38\n      jump\t// in\n    tag_37:\n      tag_39\n      jump\t// in\n    tag_36:\n      mload(0x40)\n      tag_40\n      swap2\n      swap1\n      tag_41\n      jump\t// in\n    tag_40:\n      mload(0x40)\n      dup1\n      swap2\n      sub\n      swap1\n      return\n        /* \"contracts/1_Tweeter.sol\":2382:2897  function getLatestofUser(address _user,uint count) public view  returns(Tweet[] memory){... */\n    tag_7:\n      tag_42\n      0x04\n      dup1\n      calldatasize\n      sub\n      dup2\n      add\n      swap1\n      tag_43\n      swap2\n      swap1\n      tag_28\n      jump\t// in\n    tag_43:\n      tag_44\n      jump\t// in\n    tag_42:\n      mload(0x40)\n      tag_45\n      swap2\n      swap1\n      tag_41\n      jump\t// in\n    tag_45:\n      mload(0x40)\n      dup1\n      swap2\n      sub\n      swap1\n      return\n        /* \"contracts/1_Tweeter.sol\":548:594  mapping (address=>address[]) public  following */\n    tag_8:\n      tag_46\n      0x04\n      dup1\n      calldatasize\n      sub\n      dup2\n      add\n      swap1\n      tag_47\n      swap2\n      swap1\n      tag_28\n      jump\t// in\n    tag_47:\n      tag_48\n      jump\t// in\n    tag_46:\n      mload(0x40)\n      tag_49\n      swap2\n      swap1\n      tag_50\n      jump\t// in\n    tag_49:\n      mload(0x40)\n      dup1\n      swap2\n      sub\n      swap1\n      return\n        /* \"contracts/1_Tweeter.sol\":1803:1902  function disallow(address _operator) public {... */\n    tag_9:\n      tag_51\n      0x04\n      dup1\n      calldatasize\n      sub\n      dup2\n      add\n      swap1\n      tag_52\n      swap2\n      swap1\n      tag_34\n      jump\t// in\n    tag_52:\n      tag_53\n      jump\t// in\n    tag_51:\n      stop\n        /* \"contracts/1_Tweeter.sol\":385:425  mapping(address=>uint[]) public tweetsOf */\n    tag_10:\n      tag_54\n      0x04\n      dup1\n      calldatasize\n      sub\n      dup2\n      add\n      swap1\n      tag_55\n      swap2\n      swap1\n      tag_28\n      jump\t// in\n    tag_55:\n      tag_56\n      jump\t// in\n    tag_54:\n      mload(0x40)\n      tag_57\n      swap2\n      swap1\n      tag_58\n      jump\t// in\n    tag_57:\n      mload(0x40)\n      dup1\n      swap2\n      sub\n      swap1\n      return\n        /* \"contracts/1_Tweeter.sol\":1342:1471  function sendMessage(address _from,address _to,string memory _content) public {... */\n    tag_11:\n      tag_59\n      0x04\n      dup1\n      calldatasize\n      sub\n      dup2\n      add\n      swap1\n      tag_60\n      swap2\n      swap1\n      tag_61\n      jump\t// in\n    tag_60:\n      tag_62\n      jump\t// in\n    tag_59:\n      stop\n        /* \"contracts/1_Tweeter.sol\":1237:1336  function tweet(address _from,string memory _content) public {... */\n    tag_12:\n      tag_63\n      0x04\n      dup1\n      calldatasize\n      sub\n      dup2\n      add\n      swap1\n      tag_64\n      swap2\n      swap1\n      tag_65\n      jump\t// in\n    tag_64:\n      tag_66\n      jump\t// in\n    tag_63:\n      stop\n        /* \"contracts/1_Tweeter.sol\":1476:1596  function sendMessage(address _to,string memory _content) public {... */\n    tag_13:\n      tag_67\n      0x04\n      dup1\n      calldatasize\n      sub\n      dup2\n      add\n      swap1\n      tag_68\n      swap2\n      swap1\n      tag_65\n      jump\t// in\n    tag_68:\n      tag_69\n      jump\t// in\n    tag_67:\n      stop\n        /* \"contracts/1_Tweeter.sol\":344:379  mapping(uint=>Tweet) public  tweets */\n    tag_14:\n      tag_70\n      0x04\n      dup1\n      calldatasize\n      sub\n      dup2\n      add\n      swap1\n      tag_71\n      swap2\n      swap1\n      tag_38\n      jump\t// in\n    tag_71:\n      tag_72\n      jump\t// in\n    tag_70:\n      mload(0x40)\n      tag_73\n      swap5\n      swap4\n      swap3\n      swap2\n      swap1\n      tag_74\n      jump\t// in\n    tag_73:\n      mload(0x40)\n      dup1\n      swap2\n      sub\n      swap1\n      return\n        /* \"contracts/1_Tweeter.sol\":1142:1232  function tweet(string memory _content) public {... */\n    tag_15:\n      tag_75\n      0x04\n      dup1\n      calldatasize\n      sub\n      dup2\n      add\n      swap1\n      tag_76\n      swap2\n      swap1\n      tag_77\n      jump\t// in\n    tag_76:\n      tag_78\n      jump\t// in\n    tag_75:\n      stop\n        /* \"contracts/1_Tweeter.sol\":1703:1798  function allow(address _operator) public {... */\n    tag_16:\n      tag_79\n      0x04\n      dup1\n      calldatasize\n      sub\n      dup2\n      add\n      swap1\n      tag_80\n      swap2\n      swap1\n      tag_34\n      jump\t// in\n    tag_80:\n      tag_81\n      jump\t// in\n    tag_79:\n      stop\n        /* \"contracts/1_Tweeter.sol\":485:542  mapping(address=>mapping(address=>bool)) public operators */\n    tag_23:\n      mstore(0x20, 0x03)\n      dup2\n      0x00\n      mstore\n      mstore(0x20, keccak256(0x00, 0x40))\n      dup1\n      0x00\n      mstore\n      keccak256(0x00, 0x40)\n      0x00\n      swap2\n      pop\n      swap2\n      pop\n      swap1\n      sload\n      swap1\n      0x0100\n      exp\n      swap1\n      div\n      0xff\n      and\n      dup2\n      jump\t// out\n        /* \"contracts/1_Tweeter.sol\":431:479  mapping(address=>Message[]) public conversations */\n    tag_29:\n      mstore(0x20, 0x02)\n      dup2\n      0x00\n      mstore\n      keccak256(0x00, 0x40)\n      dup2\n      dup2\n      sload\n      dup2\n      lt\n      tag_82\n      jumpi\n      0x00\n      dup1\n      revert\n    tag_82:\n      swap1\n      0x00\n      mstore\n      keccak256(0x00, 0x20)\n      swap1\n      0x05\n      mul\n      add\n      0x00\n      swap2\n      pop\n      swap2\n      pop\n      pop\n      dup1\n      0x00\n      add\n      sload\n      swap1\n      dup1\n      0x01\n      add\n      dup1\n      sload\n      tag_84\n      swap1\n      tag_85\n      jump\t// in\n    tag_84:\n      dup1\n      0x1f\n      add\n      0x20\n      dup1\n      swap2\n      div\n      mul\n      0x20\n      add\n      mload(0x40)\n      swap1\n      dup2\n      add\n      0x40\n      mstore\n      dup1\n      swap3\n      swap2\n      swap1\n      dup2\n      dup2\n      mstore\n      0x20\n      add\n      dup3\n      dup1\n      sload\n      tag_86\n      swap1\n      tag_85\n      jump\t// in\n    tag_86:\n      dup1\n      iszero\n      tag_87\n      jumpi\n      dup1\n      0x1f\n      lt\n      tag_88\n      jumpi\n      0x0100\n      dup1\n      dup4\n      sload\n      div\n      mul\n      dup4\n      mstore\n      swap2\n      0x20\n      add\n      swap2\n      jump(tag_87)\n    tag_88:\n      dup3\n      add\n      swap2\n      swap1\n      0x00\n      mstore\n      keccak256(0x00, 0x20)\n      swap1\n    tag_89:\n      dup2\n      sload\n      dup2\n      mstore\n      swap1\n      0x01\n      add\n      swap1\n      0x20\n      add\n      dup1\n      dup4\n      gt\n      tag_89\n      jumpi\n      dup3\n      swap1\n      sub\n      0x1f\n      and\n      dup3\n      add\n      swap2\n    tag_87:\n      pop\n      pop\n      pop\n      pop\n      pop\n      swap1\n      dup1\n      0x02\n      add\n      0x00\n      swap1\n      sload\n      swap1\n      0x0100\n      exp\n      swap1\n      div\n      0xffffffffffffffffffffffffffffffffffffffff\n      and\n      swap1\n      dup1\n      0x03\n      add\n      0x00\n      swap1\n      sload\n      swap1\n      0x0100\n      exp\n      swap1\n      div\n      0xffffffffffffffffffffffffffffffffffffffff\n      and\n      swap1\n      dup1\n      0x04\n      add\n      sload\n      swap1\n      pop\n      dup6\n      jump\t// out\n        /* \"contracts/1_Tweeter.sol\":1601:1697  function follow(address _followed) public {... */\n    tag_35:\n        /* \"contracts/1_Tweeter.sol\":1653:1662  following */\n      0x04\n        /* \"contracts/1_Tweeter.sol\":1653:1674  following[msg.sender] */\n      0x00\n        /* \"contracts/1_Tweeter.sol\":1663:1673  msg.sender */\n      caller\n        /* \"contracts/1_Tweeter.sol\":1653:1674  following[msg.sender] */\n      0xffffffffffffffffffffffffffffffffffffffff\n      and\n      0xffffffffffffffffffffffffffffffffffffffff\n      and\n      dup2\n      mstore\n      0x20\n      add\n      swap1\n      dup2\n      mstore\n      0x20\n      add\n      0x00\n      keccak256\n        /* \"contracts/1_Tweeter.sol\":1680:1689  _followed */\n      dup2\n        /* \"contracts/1_Tweeter.sol\":1653:1690  following[msg.sender].push(_followed) */\n      swap1\n      dup1\n      0x01\n      dup2\n      sload\n      add\n      dup1\n      dup3\n      sstore\n      dup1\n      swap2\n      pop\n      pop\n      0x01\n      swap1\n      sub\n      swap1\n      0x00\n      mstore\n      keccak256(0x00, 0x20)\n      add\n      0x00\n      swap1\n      swap2\n      swap1\n      swap2\n      swap1\n      swap2\n      0x0100\n      exp\n      dup2\n      sload\n      dup2\n      0xffffffffffffffffffffffffffffffffffffffff\n      mul\n      not\n      and\n      swap1\n      dup4\n      0xffffffffffffffffffffffffffffffffffffffff\n      and\n      mul\n      or\n      swap1\n      sstore\n      pop\n        /* \"contracts/1_Tweeter.sol\":1601:1697  function follow(address _followed) public {... */\n      pop\n      jump\t// out\n        /* \"contracts/1_Tweeter.sol\":1907:2377  function getLatestTweets(uint count) public view  returns(Tweet[] memory){... */\n    tag_39:\n        /* \"contracts/1_Tweeter.sol\":1965:1979  Tweet[] memory */\n      0x60\n        /* \"contracts/1_Tweeter.sol\":2004:2005  0 */\n      0x00\n        /* \"contracts/1_Tweeter.sol\":1998:2003  count */\n      dup3\n        /* \"contracts/1_Tweeter.sol\":1998:2005  count>0 */\n      gt\n        /* \"contracts/1_Tweeter.sol\":1998:2023  count>0 && count<= nextId */\n      dup1\n      iszero\n      tag_93\n      jumpi\n      pop\n        /* \"contracts/1_Tweeter.sol\":2017:2023  nextId */\n      sload(0x05)\n        /* \"contracts/1_Tweeter.sol\":2009:2014  count */\n      dup3\n        /* \"contracts/1_Tweeter.sol\":2009:2023  count<= nextId */\n      gt\n      iszero\n        /* \"contracts/1_Tweeter.sol\":1998:2023  count>0 && count<= nextId */\n    tag_93:\n        /* \"contracts/1_Tweeter.sol\":1990:2046  require(count>0 && count<= nextId,\"Count is not proper\") */\n      tag_94\n      jumpi\n      mload(0x40)\n      0x08c379a000000000000000000000000000000000000000000000000000000000\n      dup2\n      mstore\n      0x04\n      add\n      tag_95\n      swap1\n      tag_96\n      jump\t// in\n    tag_95:\n      mload(0x40)\n      dup1\n      swap2\n      sub\n      swap1\n      revert\n    tag_94:\n        /* \"contracts/1_Tweeter.sol\":2057:2079  Tweet[] memory _tweets */\n      0x00\n        /* \"contracts/1_Tweeter.sol\":2094:2099  count */\n      dup3\n        /* \"contracts/1_Tweeter.sol\":2082:2100  new Tweet[](count) */\n      0xffffffffffffffff\n      dup2\n      gt\n      iszero\n      tag_97\n      jumpi\n      tag_98\n      tag_99\n      jump\t// in\n    tag_98:\n    tag_97:\n      mload(0x40)\n      swap1\n      dup1\n      dup3\n      mstore\n      dup1\n      0x20\n      mul\n      0x20\n      add\n      dup3\n      add\n      0x40\n      mstore\n      dup1\n      iszero\n      tag_100\n      jumpi\n      dup2\n      0x20\n      add\n    tag_101:\n      tag_102\n      tag_103\n      jump\t// in\n    tag_102:\n      dup2\n      mstore\n      0x20\n      add\n      swap1\n      0x01\n      swap1\n      sub\n      swap1\n      dup2\n      tag_101\n      jumpi\n      swap1\n      pop\n    tag_100:\n      pop\n        /* \"contracts/1_Tweeter.sol\":2057:2100  Tweet[] memory _tweets = new Tweet[](count) */\n      swap1\n      pop\n        /* \"contracts/1_Tweeter.sol\":2110:2116  uint j */\n      0x00\n        /* \"contracts/1_Tweeter.sol\":2131:2137  uint i */\n      dup1\n        /* \"contracts/1_Tweeter.sol\":2145:2150  count */\n      dup5\n        /* \"contracts/1_Tweeter.sol\":2138:2144  nextId */\n      sload(0x05)\n        /* \"contracts/1_Tweeter.sol\":2138:2150  nextId-count */\n      tag_107\n      swap2\n      swap1\n      tag_108\n      jump\t// in\n    tag_107:\n        /* \"contracts/1_Tweeter.sol\":2131:2150  uint i=nextId-count */\n      swap1\n      pop\n        /* \"contracts/1_Tweeter.sol\":2127:2345  for(uint i=nextId-count;i<nextId;i++){... */\n    tag_104:\n        /* \"contracts/1_Tweeter.sol\":2153:2159  nextId */\n      sload(0x05)\n        /* \"contracts/1_Tweeter.sol\":2151:2152  i */\n      dup2\n        /* \"contracts/1_Tweeter.sol\":2151:2159  i<nextId */\n      lt\n        /* \"contracts/1_Tweeter.sol\":2127:2345  for(uint i=nextId-count;i<nextId;i++){... */\n      iszero\n      tag_105\n      jumpi\n        /* \"contracts/1_Tweeter.sol\":2178:2202  Tweet storage _structure */\n      0x00\n        /* \"contracts/1_Tweeter.sol\":2205:2211  tweets */\n      dup1\n        /* \"contracts/1_Tweeter.sol\":2205:2214  tweets[i] */\n      0x00\n        /* \"contracts/1_Tweeter.sol\":2212:2213  i */\n      dup4\n        /* \"contracts/1_Tweeter.sol\":2205:2214  tweets[i] */\n      dup2\n      mstore\n      0x20\n      add\n      swap1\n      dup2\n      mstore\n      0x20\n      add\n      0x00\n      keccak256\n        /* \"contracts/1_Tweeter.sol\":2178:2214  Tweet storage _structure = tweets[i] */\n      swap1\n      pop\n        /* \"contracts/1_Tweeter.sol\":2239:2317  Tweet(_structure.id,_structure.author,_structure.content,_structure.createdAt) */\n      mload(0x40)\n      dup1\n      0x80\n      add\n      0x40\n      mstore\n      dup1\n        /* \"contracts/1_Tweeter.sol\":2245:2255  _structure */\n      dup3\n        /* \"contracts/1_Tweeter.sol\":2245:2258  _structure.id */\n      0x00\n      add\n      sload\n        /* \"contracts/1_Tweeter.sol\":2239:2317  Tweet(_structure.id,_structure.author,_structure.content,_structure.createdAt) */\n      dup2\n      mstore\n      0x20\n      add\n        /* \"contracts/1_Tweeter.sol\":2259:2269  _structure */\n      dup3\n        /* \"contracts/1_Tweeter.sol\":2259:2276  _structure.author */\n      0x01\n      add\n      0x00\n      swap1\n      sload\n      swap1\n      0x0100\n      exp\n      swap1\n      div\n      0xffffffffffffffffffffffffffffffffffffffff\n      and\n        /* \"contracts/1_Tweeter.sol\":2239:2317  Tweet(_structure.id,_structure.author,_structure.content,_structure.createdAt) */\n      0xffffffffffffffffffffffffffffffffffffffff\n      and\n      dup2\n      mstore\n      0x20\n      add\n        /* \"contracts/1_Tweeter.sol\":2277:2287  _structure */\n      dup3\n        /* \"contracts/1_Tweeter.sol\":2277:2295  _structure.content */\n      0x02\n      add\n        /* \"contracts/1_Tweeter.sol\":2239:2317  Tweet(_structure.id,_structure.author,_structure.content,_structure.createdAt) */\n      dup1\n      sload\n      tag_109\n      swap1\n      tag_85\n      jump\t// in\n    tag_109:\n      dup1\n      0x1f\n      add\n      0x20\n      dup1\n      swap2\n      div\n      mul\n      0x20\n      add\n      mload(0x40)\n      swap1\n      dup2\n      add\n      0x40\n      mstore\n      dup1\n      swap3\n      swap2\n      swap1\n      dup2\n      dup2\n      mstore\n      0x20\n      add\n      dup3\n      dup1\n      sload\n      tag_110\n      swap1\n      tag_85\n      jump\t// in\n    tag_110:\n      dup1\n      iszero\n      tag_111\n      jumpi\n      dup1\n      0x1f\n      lt\n      tag_112\n      jumpi\n      0x0100\n      dup1\n      dup4\n      sload\n      div\n      mul\n      dup4\n      mstore\n      swap2\n      0x20\n      add\n      swap2\n      jump(tag_111)\n    tag_112:\n      dup3\n      add\n      swap2\n      swap1\n      0x00\n      mstore\n      keccak256(0x00, 0x20)\n      swap1\n    tag_113:\n      dup2\n      sload\n      dup2\n      mstore\n      swap1\n      0x01\n      add\n      swap1\n      0x20\n      add\n      dup1\n      dup4\n      gt\n      tag_113\n      jumpi\n      dup3\n      swap1\n      sub\n      0x1f\n      and\n      dup3\n      add\n      swap2\n    tag_111:\n      pop\n      pop\n      pop\n      pop\n      pop\n      dup2\n      mstore\n      0x20\n      add\n        /* \"contracts/1_Tweeter.sol\":2296:2306  _structure */\n      dup3\n        /* \"contracts/1_Tweeter.sol\":2296:2316  _structure.createdAt */\n      0x03\n      add\n      sload\n        /* \"contracts/1_Tweeter.sol\":2239:2317  Tweet(_structure.id,_structure.author,_structure.content,_structure.createdAt) */\n      dup2\n      mstore\n      pop\n        /* \"contracts/1_Tweeter.sol\":2228:2235  _tweets */\n      dup5\n        /* \"contracts/1_Tweeter.sol\":2236:2237  j */\n      dup5\n        /* \"contracts/1_Tweeter.sol\":2228:2238  _tweets[j] */\n      dup2\n      mload\n      dup2\n      lt\n      tag_114\n      jumpi\n      tag_115\n      tag_116\n      jump\t// in\n    tag_115:\n    tag_114:\n      0x20\n      mul\n      0x20\n      add\n      add\n        /* \"contracts/1_Tweeter.sol\":2228:2317  _tweets[j]=Tweet(_structure.id,_structure.author,_structure.content,_structure.createdAt) */\n      dup2\n      swap1\n      mstore\n      pop\n        /* \"contracts/1_Tweeter.sol\":2331:2334  j++ */\n      dup3\n      dup1\n      tag_117\n      swap1\n      tag_118\n      jump\t// in\n    tag_117:\n      swap4\n      pop\n      pop\n        /* \"contracts/1_Tweeter.sol\":2164:2345  {... */\n      pop\n        /* \"contracts/1_Tweeter.sol\":2160:2163  i++ */\n      dup1\n      dup1\n      0x01\n      add\n      swap2\n      pop\n      pop\n        /* \"contracts/1_Tweeter.sol\":2127:2345  for(uint i=nextId-count;i<nextId;i++){... */\n      jump(tag_104)\n    tag_105:\n      pop\n        /* \"contracts/1_Tweeter.sol\":2362:2369  _tweets */\n      dup2\n        /* \"contracts/1_Tweeter.sol\":2354:2369  return  _tweets */\n      swap3\n      pop\n      pop\n      pop\n        /* \"contracts/1_Tweeter.sol\":1907:2377  function getLatestTweets(uint count) public view  returns(Tweet[] memory){... */\n      swap2\n      swap1\n      pop\n      jump\t// out\n        /* \"contracts/1_Tweeter.sol\":2382:2897  function getLatestofUser(address _user,uint count) public view  returns(Tweet[] memory){... */\n    tag_44:\n        /* \"contracts/1_Tweeter.sol\":2454:2468  Tweet[] memory */\n      0x60\n        /* \"contracts/1_Tweeter.sol\":2479:2501  Tweet[] memory _tweets */\n      0x00\n        /* \"contracts/1_Tweeter.sol\":2516:2521  count */\n      dup3\n        /* \"contracts/1_Tweeter.sol\":2504:2522  new Tweet[](count) */\n      0xffffffffffffffff\n      dup2\n      gt\n      iszero\n      tag_120\n      jumpi\n      tag_121\n      tag_99\n      jump\t// in\n    tag_121:\n    tag_120:\n      mload(0x40)\n      swap1\n      dup1\n      dup3\n      mstore\n      dup1\n      0x20\n      mul\n      0x20\n      add\n      dup3\n      add\n      0x40\n      mstore\n      dup1\n      iszero\n      tag_122\n      jumpi\n      dup2\n      0x20\n      add\n    tag_123:\n      tag_124\n      tag_103\n      jump\t// in\n    tag_124:\n      dup2\n      mstore\n      0x20\n      add\n      swap1\n      0x01\n      swap1\n      sub\n      swap1\n      dup2\n      tag_123\n      jumpi\n      swap1\n      pop\n    tag_122:\n      pop\n        /* \"contracts/1_Tweeter.sol\":2479:2522  Tweet[] memory _tweets = new Tweet[](count) */\n      swap1\n      pop\n        /* \"contracts/1_Tweeter.sol\":2546:2547  0 */\n      0x00\n        /* \"contracts/1_Tweeter.sol\":2540:2545  count */\n      dup4\n        /* \"contracts/1_Tweeter.sol\":2540:2547  count>0 */\n      gt\n        /* \"contracts/1_Tweeter.sol\":2540:2565  count>0 && count<= nextId */\n      dup1\n      iszero\n      tag_125\n      jumpi\n      pop\n        /* \"contracts/1_Tweeter.sol\":2559:2565  nextId */\n      sload(0x05)\n        /* \"contracts/1_Tweeter.sol\":2551:2556  count */\n      dup4\n        /* \"contracts/1_Tweeter.sol\":2551:2565  count<= nextId */\n      gt\n      iszero\n        /* \"contracts/1_Tweeter.sol\":2540:2565  count>0 && count<= nextId */\n    tag_125:\n        /* \"contracts/1_Tweeter.sol\":2532:2588  require(count>0 && count<= nextId,\"Count is not proper\") */\n      tag_126\n      jumpi\n      mload(0x40)\n      0x08c379a000000000000000000000000000000000000000000000000000000000\n      dup2\n      mstore\n      0x04\n      add\n      tag_127\n      swap1\n      tag_96\n      jump\t// in\n    tag_127:\n      mload(0x40)\n      dup1\n      swap2\n      sub\n      swap1\n      revert\n    tag_126:\n        /* \"contracts/1_Tweeter.sol\":2598:2604  uint j */\n      0x00\n        /* \"contracts/1_Tweeter.sol\":2619:2625  uint i */\n      dup1\n        /* \"contracts/1_Tweeter.sol\":2649:2654  count */\n      dup5\n        /* \"contracts/1_Tweeter.sol\":2626:2634  tweetsOf */\n      0x01\n        /* \"contracts/1_Tweeter.sol\":2626:2641  tweetsOf[_user] */\n      0x00\n        /* \"contracts/1_Tweeter.sol\":2635:2640  _user */\n      dup9\n        /* \"contracts/1_Tweeter.sol\":2626:2641  tweetsOf[_user] */\n      0xffffffffffffffffffffffffffffffffffffffff\n      and\n      0xffffffffffffffffffffffffffffffffffffffff\n      and\n      dup2\n      mstore\n      0x20\n      add\n      swap1\n      dup2\n      mstore\n      0x20\n      add\n      0x00\n      keccak256\n        /* \"contracts/1_Tweeter.sol\":2626:2648  tweetsOf[_user].length */\n      dup1\n      sload\n      swap1\n      pop\n        /* \"contracts/1_Tweeter.sol\":2626:2654  tweetsOf[_user].length-count */\n      tag_131\n      swap2\n      swap1\n      tag_108\n      jump\t// in\n    tag_131:\n        /* \"contracts/1_Tweeter.sol\":2619:2654  uint i=tweetsOf[_user].length-count */\n      swap1\n      pop\n        /* \"contracts/1_Tweeter.sol\":2615:2865  for(uint i=tweetsOf[_user].length-count;i<tweetsOf[_user].length;i++){... */\n    tag_128:\n        /* \"contracts/1_Tweeter.sol\":2657:2665  tweetsOf */\n      0x01\n        /* \"contracts/1_Tweeter.sol\":2657:2672  tweetsOf[_user] */\n      0x00\n        /* \"contracts/1_Tweeter.sol\":2666:2671  _user */\n      dup8\n        /* \"contracts/1_Tweeter.sol\":2657:2672  tweetsOf[_user] */\n      0xffffffffffffffffffffffffffffffffffffffff\n      and\n      0xffffffffffffffffffffffffffffffffffffffff\n      and\n      dup2\n      mstore\n      0x20\n      add\n      swap1\n      dup2\n      mstore\n      0x20\n      add\n      0x00\n      keccak256\n        /* \"contracts/1_Tweeter.sol\":2657:2679  tweetsOf[_user].length */\n      dup1\n      sload\n      swap1\n      pop\n        /* \"contracts/1_Tweeter.sol\":2655:2656  i */\n      dup2\n        /* \"contracts/1_Tweeter.sol\":2655:2679  i<tweetsOf[_user].length */\n      lt\n        /* \"contracts/1_Tweeter.sol\":2615:2865  for(uint i=tweetsOf[_user].length-count;i<tweetsOf[_user].length;i++){... */\n      iszero\n      tag_129\n      jumpi\n        /* \"contracts/1_Tweeter.sol\":2698:2722  Tweet storage _structure */\n      0x00\n        /* \"contracts/1_Tweeter.sol\":2725:2731  tweets */\n      dup1\n        /* \"contracts/1_Tweeter.sol\":2725:2734  tweets[i] */\n      0x00\n        /* \"contracts/1_Tweeter.sol\":2732:2733  i */\n      dup4\n        /* \"contracts/1_Tweeter.sol\":2725:2734  tweets[i] */\n      dup2\n      mstore\n      0x20\n      add\n      swap1\n      dup2\n      mstore\n      0x20\n      add\n      0x00\n      keccak256\n        /* \"contracts/1_Tweeter.sol\":2698:2734  Tweet storage _structure = tweets[i] */\n      swap1\n      pop\n        /* \"contracts/1_Tweeter.sol\":2759:2837  Tweet(_structure.id,_structure.author,_structure.content,_structure.createdAt) */\n      mload(0x40)\n      dup1\n      0x80\n      add\n      0x40\n      mstore\n      dup1\n        /* \"contracts/1_Tweeter.sol\":2765:2775  _structure */\n      dup3\n        /* \"contracts/1_Tweeter.sol\":2765:2778  _structure.id */\n      0x00\n      add\n      sload\n        /* \"contracts/1_Tweeter.sol\":2759:2837  Tweet(_structure.id,_structure.author,_structure.content,_structure.createdAt) */\n      dup2\n      mstore\n      0x20\n      add\n        /* \"contracts/1_Tweeter.sol\":2779:2789  _structure */\n      dup3\n        /* \"contracts/1_Tweeter.sol\":2779:2796  _structure.author */\n      0x01\n      add\n      0x00\n      swap1\n      sload\n      swap1\n      0x0100\n      exp\n      swap1\n      div\n      0xffffffffffffffffffffffffffffffffffffffff\n      and\n        /* \"contracts/1_Tweeter.sol\":2759:2837  Tweet(_structure.id,_structure.author,_structure.content,_structure.createdAt) */\n      0xffffffffffffffffffffffffffffffffffffffff\n      and\n      dup2\n      mstore\n      0x20\n      add\n        /* \"contracts/1_Tweeter.sol\":2797:2807  _structure */\n      dup3\n        /* \"contracts/1_Tweeter.sol\":2797:2815  _structure.content */\n      0x02\n      add\n        /* \"contracts/1_Tweeter.sol\":2759:2837  Tweet(_structure.id,_structure.author,_structure.content,_structure.createdAt) */\n      dup1\n      sload\n      tag_132\n      swap1\n      tag_85\n      jump\t// in\n    tag_132:\n      dup1\n      0x1f\n      add\n      0x20\n      dup1\n      swap2\n      div\n      mul\n      0x20\n      add\n      mload(0x40)\n      swap1\n      dup2\n      add\n      0x40\n      mstore\n      dup1\n      swap3\n      swap2\n      swap1\n      dup2\n      dup2\n      mstore\n      0x20\n      add\n      dup3\n      dup1\n      sload\n      tag_133\n      swap1\n      tag_85\n      jump\t// in\n    tag_133:\n      dup1\n      iszero\n      tag_134\n      jumpi\n      dup1\n      0x1f\n      lt\n      tag_135\n      jumpi\n      0x0100\n      dup1\n      dup4\n      sload\n      div\n      mul\n      dup4\n      mstore\n      swap2\n      0x20\n      add\n      swap2\n      jump(tag_134)\n    tag_135:\n      dup3\n      add\n      swap2\n      swap1\n      0x00\n      mstore\n      keccak256(0x00, 0x20)\n      swap1\n    tag_136:\n      dup2\n      sload\n      dup2\n      mstore\n      swap1\n      0x01\n      add\n      swap1\n      0x20\n      add\n      dup1\n      dup4\n      gt\n      tag_136\n      jumpi\n      dup3\n      swap1\n      sub\n      0x1f\n      and\n      dup3\n      add\n      swap2\n    tag_134:\n      pop\n      pop\n      pop\n      pop\n      pop\n      dup2\n      mstore\n      0x20\n      add\n        /* \"contracts/1_Tweeter.sol\":2816:2826  _structure */\n      dup3\n        /* \"contracts/1_Tweeter.sol\":2816:2836  _structure.createdAt */\n      0x03\n      add\n      sload\n        /* \"contracts/1_Tweeter.sol\":2759:2837  Tweet(_structure.id,_structure.author,_structure.content,_structure.createdAt) */\n      dup2\n      mstore\n      pop\n        /* \"contracts/1_Tweeter.sol\":2748:2755  _tweets */\n      dup5\n        /* \"contracts/1_Tweeter.sol\":2756:2757  j */\n      dup5\n        /* \"contracts/1_Tweeter.sol\":2748:2758  _tweets[j] */\n      dup2\n      mload\n      dup2\n      lt\n      tag_137\n      jumpi\n      tag_138\n      tag_116\n      jump\t// in\n    tag_138:\n    tag_137:\n      0x20\n      mul\n      0x20\n      add\n      add\n        /* \"contracts/1_Tweeter.sol\":2748:2837  _tweets[j]=Tweet(_structure.id,_structure.author,_structure.content,_structure.createdAt) */\n      dup2\n      swap1\n      mstore\n      pop\n        /* \"contracts/1_Tweeter.sol\":2851:2854  j++ */\n      dup3\n      dup1\n      tag_139\n      swap1\n      tag_118\n      jump\t// in\n    tag_139:\n      swap4\n      pop\n      pop\n        /* \"contracts/1_Tweeter.sol\":2684:2865  {... */\n      pop\n        /* \"contracts/1_Tweeter.sol\":2680:2683  i++ */\n      dup1\n      dup1\n      0x01\n      add\n      swap2\n      pop\n      pop\n        /* \"contracts/1_Tweeter.sol\":2615:2865  for(uint i=tweetsOf[_user].length-count;i<tweetsOf[_user].length;i++){... */\n      jump(tag_128)\n    tag_129:\n      pop\n        /* \"contracts/1_Tweeter.sol\":2882:2889  _tweets */\n      dup2\n        /* \"contracts/1_Tweeter.sol\":2874:2889  return  _tweets */\n      swap3\n      pop\n      pop\n      pop\n        /* \"contracts/1_Tweeter.sol\":2382:2897  function getLatestofUser(address _user,uint count) public view  returns(Tweet[] memory){... */\n      swap3\n      swap2\n      pop\n      pop\n      jump\t// out\n        /* \"contracts/1_Tweeter.sol\":548:594  mapping (address=>address[]) public  following */\n    tag_48:\n      mstore(0x20, 0x04)\n      dup2\n      0x00\n      mstore\n      keccak256(0x00, 0x40)\n      dup2\n      dup2\n      sload\n      dup2\n      lt\n      tag_140\n      jumpi\n      0x00\n      dup1\n      revert\n    tag_140:\n      swap1\n      0x00\n      mstore\n      keccak256(0x00, 0x20)\n      add\n      0x00\n      swap2\n      pop\n      swap2\n      pop\n      swap1\n      sload\n      swap1\n      0x0100\n      exp\n      swap1\n      div\n      0xffffffffffffffffffffffffffffffffffffffff\n      and\n      dup2\n      jump\t// out\n        /* \"contracts/1_Tweeter.sol\":1803:1902  function disallow(address _operator) public {... */\n    tag_53:\n        /* \"contracts/1_Tweeter.sol\":1890:1895  false */\n      0x00\n        /* \"contracts/1_Tweeter.sol\":1857:1866  operators */\n      0x03\n        /* \"contracts/1_Tweeter.sol\":1857:1878  operators[msg.sender] */\n      0x00\n        /* \"contracts/1_Tweeter.sol\":1867:1877  msg.sender */\n      caller\n        /* \"contracts/1_Tweeter.sol\":1857:1878  operators[msg.sender] */\n      0xffffffffffffffffffffffffffffffffffffffff\n      and\n      0xffffffffffffffffffffffffffffffffffffffff\n      and\n      dup2\n      mstore\n      0x20\n      add\n      swap1\n      dup2\n      mstore\n      0x20\n      add\n      0x00\n      keccak256\n        /* \"contracts/1_Tweeter.sol\":1857:1889  operators[msg.sender][_operator] */\n      0x00\n        /* \"contracts/1_Tweeter.sol\":1879:1888  _operator */\n      dup4\n        /* \"contracts/1_Tweeter.sol\":1857:1889  operators[msg.sender][_operator] */\n      0xffffffffffffffffffffffffffffffffffffffff\n      and\n      0xffffffffffffffffffffffffffffffffffffffff\n      and\n      dup2\n      mstore\n      0x20\n      add\n      swap1\n      dup2\n      mstore\n      0x20\n      add\n      0x00\n      keccak256\n      0x00\n        /* \"contracts/1_Tweeter.sol\":1857:1895  operators[msg.sender][_operator]=false */\n      0x0100\n      exp\n      dup2\n      sload\n      dup2\n      0xff\n      mul\n      not\n      and\n      swap1\n      dup4\n      iszero\n      iszero\n      mul\n      or\n      swap1\n      sstore\n      pop\n        /* \"contracts/1_Tweeter.sol\":1803:1902  function disallow(address _operator) public {... */\n      pop\n      jump\t// out\n        /* \"contracts/1_Tweeter.sol\":385:425  mapping(address=>uint[]) public tweetsOf */\n    tag_56:\n      mstore(0x20, 0x01)\n      dup2\n      0x00\n      mstore\n      keccak256(0x00, 0x40)\n      dup2\n      dup2\n      sload\n      dup2\n      lt\n      tag_143\n      jumpi\n      0x00\n      dup1\n      revert\n    tag_143:\n      swap1\n      0x00\n      mstore\n      keccak256(0x00, 0x20)\n      add\n      0x00\n      swap2\n      pop\n      swap2\n      pop\n      pop\n      sload\n      dup2\n      jump\t// out\n        /* \"contracts/1_Tweeter.sol\":1342:1471  function sendMessage(address _from,address _to,string memory _content) public {... */\n    tag_62:\n        /* \"contracts/1_Tweeter.sol\":1430:1464  _sendMessage(_from, _to, _content) */\n      tag_146\n        /* \"contracts/1_Tweeter.sol\":1443:1448  _from */\n      dup4\n        /* \"contracts/1_Tweeter.sol\":1450:1453  _to */\n      dup4\n        /* \"contracts/1_Tweeter.sol\":1455:1463  _content */\n      dup4\n        /* \"contracts/1_Tweeter.sol\":1430:1442  _sendMessage */\n      tag_147\n        /* \"contracts/1_Tweeter.sol\":1430:1464  _sendMessage(_from, _to, _content) */\n      jump\t// in\n    tag_146:\n        /* \"contracts/1_Tweeter.sol\":1342:1471  function sendMessage(address _from,address _to,string memory _content) public {... */\n      pop\n      pop\n      pop\n      jump\t// out\n        /* \"contracts/1_Tweeter.sol\":1237:1336  function tweet(address _from,string memory _content) public {... */\n    tag_66:\n        /* \"contracts/1_Tweeter.sol\":1307:1329  _tweet(_from,_content) */\n      tag_149\n        /* \"contracts/1_Tweeter.sol\":1314:1319  _from */\n      dup3\n        /* \"contracts/1_Tweeter.sol\":1320:1328  _content */\n      dup3\n        /* \"contracts/1_Tweeter.sol\":1307:1313  _tweet */\n      tag_150\n        /* \"contracts/1_Tweeter.sol\":1307:1329  _tweet(_from,_content) */\n      jump\t// in\n    tag_149:\n        /* \"contracts/1_Tweeter.sol\":1237:1336  function tweet(address _from,string memory _content) public {... */\n      pop\n      pop\n      jump\t// out\n        /* \"contracts/1_Tweeter.sol\":1476:1596  function sendMessage(address _to,string memory _content) public {... */\n    tag_69:\n        /* \"contracts/1_Tweeter.sol\":1550:1589  _sendMessage(msg.sender, _to, _content) */\n      tag_152\n        /* \"contracts/1_Tweeter.sol\":1563:1573  msg.sender */\n      caller\n        /* \"contracts/1_Tweeter.sol\":1575:1578  _to */\n      dup4\n        /* \"contracts/1_Tweeter.sol\":1580:1588  _content */\n      dup4\n        /* \"contracts/1_Tweeter.sol\":1550:1562  _sendMessage */\n      tag_147\n        /* \"contracts/1_Tweeter.sol\":1550:1589  _sendMessage(msg.sender, _to, _content) */\n      jump\t// in\n    tag_152:\n        /* \"contracts/1_Tweeter.sol\":1476:1596  function sendMessage(address _to,string memory _content) public {... */\n      pop\n      pop\n      jump\t// out\n        /* \"contracts/1_Tweeter.sol\":344:379  mapping(uint=>Tweet) public  tweets */\n    tag_72:\n      mstore(0x20, 0x00)\n      dup1\n      0x00\n      mstore\n      keccak256(0x00, 0x40)\n      0x00\n      swap2\n      pop\n      swap1\n      pop\n      dup1\n      0x00\n      add\n      sload\n      swap1\n      dup1\n      0x01\n      add\n      0x00\n      swap1\n      sload\n      swap1\n      0x0100\n      exp\n      swap1\n      div\n      0xffffffffffffffffffffffffffffffffffffffff\n      and\n      swap1\n      dup1\n      0x02\n      add\n      dup1\n      sload\n      tag_153\n      swap1\n      tag_85\n      jump\t// in\n    tag_153:\n      dup1\n      0x1f\n      add\n      0x20\n      dup1\n      swap2\n      div\n      mul\n      0x20\n      add\n      mload(0x40)\n      swap1\n      dup2\n      add\n      0x40\n      mstore\n      dup1\n      swap3\n      swap2\n      swap1\n      dup2\n      dup2\n      mstore\n      0x20\n      add\n      dup3\n      dup1\n      sload\n      tag_154\n      swap1\n      tag_85\n      jump\t// in\n    tag_154:\n      dup1\n      iszero\n      tag_155\n      jumpi\n      dup1\n      0x1f\n      lt\n      tag_156\n      jumpi\n      0x0100\n      dup1\n      dup4\n      sload\n      div\n      mul\n      dup4\n      mstore\n      swap2\n      0x20\n      add\n      swap2\n      jump(tag_155)\n    tag_156:\n      dup3\n      add\n      swap2\n      swap1\n      0x00\n      mstore\n      keccak256(0x00, 0x20)\n      swap1\n    tag_157:\n      dup2\n      sload\n      dup2\n      mstore\n      swap1\n      0x01\n      add\n      swap1\n      0x20\n      add\n      dup1\n      dup4\n      gt\n      tag_157\n      jumpi\n      dup3\n      swap1\n      sub\n      0x1f\n      and\n      dup3\n      add\n      swap2\n    tag_155:\n      pop\n      pop\n      pop\n      pop\n      pop\n      swap1\n      dup1\n      0x03\n      add\n      sload\n      swap1\n      pop\n      dup5\n      jump\t// out\n        /* \"contracts/1_Tweeter.sol\":1142:1232  function tweet(string memory _content) public {... */\n    tag_78:\n        /* \"contracts/1_Tweeter.sol\":1198:1225  _tweet(msg.sender,_content) */\n      tag_159\n        /* \"contracts/1_Tweeter.sol\":1205:1215  msg.sender */\n      caller\n        /* \"contracts/1_Tweeter.sol\":1216:1224  _content */\n      dup3\n        /* \"contracts/1_Tweeter.sol\":1198:1204  _tweet */\n      tag_150\n        /* \"contracts/1_Tweeter.sol\":1198:1225  _tweet(msg.sender,_content) */\n      jump\t// in\n    tag_159:\n        /* \"contracts/1_Tweeter.sol\":1142:1232  function tweet(string memory _content) public {... */\n      pop\n      jump\t// out\n        /* \"contracts/1_Tweeter.sol\":1703:1798  function allow(address _operator) public {... */\n    tag_81:\n        /* \"contracts/1_Tweeter.sol\":1787:1791  true */\n      0x01\n        /* \"contracts/1_Tweeter.sol\":1754:1763  operators */\n      0x03\n        /* \"contracts/1_Tweeter.sol\":1754:1775  operators[msg.sender] */\n      0x00\n        /* \"contracts/1_Tweeter.sol\":1764:1774  msg.sender */\n      caller\n        /* \"contracts/1_Tweeter.sol\":1754:1775  operators[msg.sender] */\n      0xffffffffffffffffffffffffffffffffffffffff\n      and\n      0xffffffffffffffffffffffffffffffffffffffff\n      and\n      dup2\n      mstore\n      0x20\n      add\n      swap1\n      dup2\n      mstore\n      0x20\n      add\n      0x00\n      keccak256\n        /* \"contracts/1_Tweeter.sol\":1754:1786  operators[msg.sender][_operator] */\n      0x00\n        /* \"contracts/1_Tweeter.sol\":1776:1785  _operator */\n      dup4\n        /* \"contracts/1_Tweeter.sol\":1754:1786  operators[msg.sender][_operator] */\n      0xffffffffffffffffffffffffffffffffffffffff\n      and\n      0xffffffffffffffffffffffffffffffffffffffff\n      and\n      dup2\n      mstore\n      0x20\n      add\n      swap1\n      dup2\n      mstore\n      0x20\n      add\n      0x00\n      keccak256\n      0x00\n        /* \"contracts/1_Tweeter.sol\":1754:1791  operators[msg.sender][_operator]=true */\n      0x0100\n      exp\n      dup2\n      sload\n      dup2\n      0xff\n      mul\n      not\n      and\n      swap1\n      dup4\n      iszero\n      iszero\n      mul\n      or\n      swap1\n      sstore\n      pop\n        /* \"contracts/1_Tweeter.sol\":1703:1798  function allow(address _operator) public {... */\n      pop\n      jump\t// out\n        /* \"contracts/1_Tweeter.sol\":872:1137  function _sendMessage(address _from,address _to,string memory _content) internal {... */\n    tag_147:\n        /* \"contracts/1_Tweeter.sol\":985:990  _from */\n      dup3\n        /* \"contracts/1_Tweeter.sol\":972:990  msg.sender== _from */\n      0xffffffffffffffffffffffffffffffffffffffff\n      and\n        /* \"contracts/1_Tweeter.sol\":972:982  msg.sender */\n      caller\n        /* \"contracts/1_Tweeter.sol\":972:990  msg.sender== _from */\n      0xffffffffffffffffffffffffffffffffffffffff\n      and\n      eq\n        /* \"contracts/1_Tweeter.sol\":963:1011  require((msg.sender== _from),\"Not a valid user\") */\n      tag_162\n      jumpi\n      mload(0x40)\n      0x08c379a000000000000000000000000000000000000000000000000000000000\n      dup2\n      mstore\n      0x04\n      add\n      tag_163\n      swap1\n      tag_164\n      jump\t// in\n    tag_163:\n      mload(0x40)\n      dup1\n      swap2\n      sub\n      swap1\n      revert\n    tag_162:\n        /* \"contracts/1_Tweeter.sol\":1021:1034  conversations */\n      0x02\n        /* \"contracts/1_Tweeter.sol\":1021:1041  conversations[_from] */\n      0x00\n        /* \"contracts/1_Tweeter.sol\":1035:1040  _from */\n      dup5\n        /* \"contracts/1_Tweeter.sol\":1021:1041  conversations[_from] */\n      0xffffffffffffffffffffffffffffffffffffffff\n      and\n      0xffffffffffffffffffffffffffffffffffffffff\n      and\n      dup2\n      mstore\n      0x20\n      add\n      swap1\n      dup2\n      mstore\n      0x20\n      add\n      0x00\n      keccak256\n        /* \"contracts/1_Tweeter.sol\":1047:1104  Message(nextMessageId,_content,_to,_from,block.timestamp) */\n      mload(0x40)\n      dup1\n      0xa0\n      add\n      0x40\n      mstore\n      dup1\n        /* \"contracts/1_Tweeter.sol\":1055:1068  nextMessageId */\n      sload(0x06)\n        /* \"contracts/1_Tweeter.sol\":1047:1104  Message(nextMessageId,_content,_to,_from,block.timestamp) */\n      dup2\n      mstore\n      0x20\n      add\n        /* \"contracts/1_Tweeter.sol\":1069:1077  _content */\n      dup4\n        /* \"contracts/1_Tweeter.sol\":1047:1104  Message(nextMessageId,_content,_to,_from,block.timestamp) */\n      dup2\n      mstore\n      0x20\n      add\n        /* \"contracts/1_Tweeter.sol\":1078:1081  _to */\n      dup5\n        /* \"contracts/1_Tweeter.sol\":1047:1104  Message(nextMessageId,_content,_to,_from,block.timestamp) */\n      0xffffffffffffffffffffffffffffffffffffffff\n      and\n      dup2\n      mstore\n      0x20\n      add\n        /* \"contracts/1_Tweeter.sol\":1082:1087  _from */\n      dup6\n        /* \"contracts/1_Tweeter.sol\":1047:1104  Message(nextMessageId,_content,_to,_from,block.timestamp) */\n      0xffffffffffffffffffffffffffffffffffffffff\n      and\n      dup2\n      mstore\n      0x20\n      add\n        /* \"contracts/1_Tweeter.sol\":1088:1103  block.timestamp */\n      timestamp\n        /* \"contracts/1_Tweeter.sol\":1047:1104  Message(nextMessageId,_content,_to,_from,block.timestamp) */\n      dup2\n      mstore\n      pop\n        /* \"contracts/1_Tweeter.sol\":1021:1105  conversations[_from].push(Message(nextMessageId,_content,_to,_from,block.timestamp)) */\n      swap1\n      dup1\n      0x01\n      dup2\n      sload\n      add\n      dup1\n      dup3\n      sstore\n      dup1\n      swap2\n      pop\n      pop\n      0x01\n      swap1\n      sub\n      swap1\n      0x00\n      mstore\n      keccak256(0x00, 0x20)\n      swap1\n      0x05\n      mul\n      add\n      0x00\n      swap1\n      swap2\n      swap1\n      swap2\n      swap1\n      swap2\n      pop\n      0x00\n      dup3\n      add\n      mload\n      dup2\n      0x00\n      add\n      sstore\n      0x20\n      dup3\n      add\n      mload\n      dup2\n      0x01\n      add\n      swap1\n      dup2\n      tag_166\n      swap2\n      swap1\n      tag_167\n      jump\t// in\n    tag_166:\n      pop\n      0x40\n      dup3\n      add\n      mload\n      dup2\n      0x02\n      add\n      exp(0x0100, 0x00)\n      dup2\n      sload\n      dup2\n      0xffffffffffffffffffffffffffffffffffffffff\n      mul\n      not\n      and\n      swap1\n      dup4\n      0xffffffffffffffffffffffffffffffffffffffff\n      and\n      mul\n      or\n      swap1\n      sstore\n      pop\n      0x60\n      dup3\n      add\n      mload\n      dup2\n      0x03\n      add\n      exp(0x0100, 0x00)\n      dup2\n      sload\n      dup2\n      0xffffffffffffffffffffffffffffffffffffffff\n      mul\n      not\n      and\n      swap1\n      dup4\n      0xffffffffffffffffffffffffffffffffffffffff\n      and\n      mul\n      or\n      swap1\n      sstore\n      pop\n      0x80\n      dup3\n      add\n      mload\n      dup2\n      0x04\n      add\n      sstore\n      pop\n      pop\n        /* \"contracts/1_Tweeter.sol\":1115:1128  nextMessageId */\n      0x06\n      0x00\n        /* \"contracts/1_Tweeter.sol\":1115:1130  nextMessageId++ */\n      dup2\n      sload\n      dup1\n      swap3\n      swap2\n      swap1\n      tag_168\n      swap1\n      tag_118\n      jump\t// in\n    tag_168:\n      swap2\n      swap1\n      pop\n      sstore\n      pop\n        /* \"contracts/1_Tweeter.sol\":872:1137  function _sendMessage(address _from,address _to,string memory _content) internal {... */\n      pop\n      pop\n      pop\n      jump\t// out\n        /* \"contracts/1_Tweeter.sol\":643:866  function _tweet(address _from,string memory _content) internal  {... */\n    tag_150:\n        /* \"contracts/1_Tweeter.sol\":739:744  _from */\n      dup2\n        /* \"contracts/1_Tweeter.sol\":726:744  msg.sender== _from */\n      0xffffffffffffffffffffffffffffffffffffffff\n      and\n        /* \"contracts/1_Tweeter.sol\":726:736  msg.sender */\n      caller\n        /* \"contracts/1_Tweeter.sol\":726:744  msg.sender== _from */\n      0xffffffffffffffffffffffffffffffffffffffff\n      and\n      eq\n        /* \"contracts/1_Tweeter.sol\":717:765  require((msg.sender== _from),\"Not a valid user\") */\n      tag_170\n      jumpi\n      mload(0x40)\n      0x08c379a000000000000000000000000000000000000000000000000000000000\n      dup2\n      mstore\n      0x04\n      add\n      tag_171\n      swap1\n      tag_164\n      jump\t// in\n    tag_171:\n      mload(0x40)\n      dup1\n      swap2\n      sub\n      swap1\n      revert\n    tag_170:\n        /* \"contracts/1_Tweeter.sol\":790:834  Tweet(nextId,_from,_content,block.timestamp) */\n      mload(0x40)\n      dup1\n      0x80\n      add\n      0x40\n      mstore\n      dup1\n        /* \"contracts/1_Tweeter.sol\":796:802  nextId */\n      sload(0x05)\n        /* \"contracts/1_Tweeter.sol\":790:834  Tweet(nextId,_from,_content,block.timestamp) */\n      dup2\n      mstore\n      0x20\n      add\n        /* \"contracts/1_Tweeter.sol\":803:808  _from */\n      dup4\n        /* \"contracts/1_Tweeter.sol\":790:834  Tweet(nextId,_from,_content,block.timestamp) */\n      0xffffffffffffffffffffffffffffffffffffffff\n      and\n      dup2\n      mstore\n      0x20\n      add\n        /* \"contracts/1_Tweeter.sol\":809:817  _content */\n      dup3\n        /* \"contracts/1_Tweeter.sol\":790:834  Tweet(nextId,_from,_content,block.timestamp) */\n      dup2\n      mstore\n      0x20\n      add\n        /* \"contracts/1_Tweeter.sol\":818:833  block.timestamp */\n      timestamp\n        /* \"contracts/1_Tweeter.sol\":790:834  Tweet(nextId,_from,_content,block.timestamp) */\n      dup2\n      mstore\n      pop\n        /* \"contracts/1_Tweeter.sol\":775:781  tweets */\n      0x00\n        /* \"contracts/1_Tweeter.sol\":775:789  tweets[nextId] */\n      dup1\n        /* \"contracts/1_Tweeter.sol\":782:788  nextId */\n      sload(0x05)\n        /* \"contracts/1_Tweeter.sol\":775:789  tweets[nextId] */\n      dup2\n      mstore\n      0x20\n      add\n      swap1\n      dup2\n      mstore\n      0x20\n      add\n      0x00\n      keccak256\n        /* \"contracts/1_Tweeter.sol\":775:834  tweets[nextId]=Tweet(nextId,_from,_content,block.timestamp) */\n      0x00\n      dup3\n      add\n      mload\n      dup2\n      0x00\n      add\n      sstore\n      0x20\n      dup3\n      add\n      mload\n      dup2\n      0x01\n      add\n      exp(0x0100, 0x00)\n      dup2\n      sload\n      dup2\n      0xffffffffffffffffffffffffffffffffffffffff\n      mul\n      not\n      and\n      swap1\n      dup4\n      0xffffffffffffffffffffffffffffffffffffffff\n      and\n      mul\n      or\n      swap1\n      sstore\n      pop\n      0x40\n      dup3\n      add\n      mload\n      dup2\n      0x02\n      add\n      swap1\n      dup2\n      tag_172\n      swap2\n      swap1\n      tag_167\n      jump\t// in\n    tag_172:\n      pop\n      0x60\n      dup3\n      add\n      mload\n      dup2\n      0x03\n      add\n      sstore\n      swap1\n      pop\n      pop\n        /* \"contracts/1_Tweeter.sol\":858:859  1 */\n      0x01\n        /* \"contracts/1_Tweeter.sol\":851:857  nextId */\n      sload(0x05)\n        /* \"contracts/1_Tweeter.sol\":851:859  nextId+1 */\n      tag_173\n      swap2\n      swap1\n      tag_174\n      jump\t// in\n    tag_173:\n        /* \"contracts/1_Tweeter.sol\":844:850  nextId */\n      0x05\n        /* \"contracts/1_Tweeter.sol\":844:859  nextId=nextId+1 */\n      dup2\n      swap1\n      sstore\n      pop\n        /* \"contracts/1_Tweeter.sol\":643:866  function _tweet(address _from,string memory _content) internal  {... */\n      pop\n      pop\n      jump\t// out\n    tag_103:\n      mload(0x40)\n      dup1\n      0x80\n      add\n      0x40\n      mstore\n      dup1\n      0x00\n      dup2\n      mstore\n      0x20\n      add\n      and(0xffffffffffffffffffffffffffffffffffffffff, 0x00)\n      dup2\n      mstore\n      0x20\n      add\n      0x60\n      dup2\n      mstore\n      0x20\n      add\n      0x00\n      dup2\n      mstore\n      pop\n      swap1\n      jump\t// out\n        /* \"#utility.yul\":7:82   */\n    tag_175:\n        /* \"#utility.yul\":40:46   */\n      0x00\n        /* \"#utility.yul\":73:75   */\n      0x40\n        /* \"#utility.yul\":67:76   */\n      mload\n        /* \"#utility.yul\":57:76   */\n      swap1\n      pop\n        /* \"#utility.yul\":7:82   */\n      swap1\n      jump\t// out\n        /* \"#utility.yul\":88:205   */\n    tag_176:\n        /* \"#utility.yul\":197:198   */\n      0x00\n        /* \"#utility.yul\":194:195   */\n      dup1\n        /* \"#utility.yul\":187:199   */\n      revert\n        /* \"#utility.yul\":211:328   */\n    tag_177:\n        /* \"#utility.yul\":320:321   */\n      0x00\n        /* \"#utility.yul\":317:318   */\n      dup1\n        /* \"#utility.yul\":310:322   */\n      revert\n        /* \"#utility.yul\":334:460   */\n    tag_178:\n        /* \"#utility.yul\":371:378   */\n      0x00\n        /* \"#utility.yul\":411:453   */\n      0xffffffffffffffffffffffffffffffffffffffff\n        /* \"#utility.yul\":404:409   */\n      dup3\n        /* \"#utility.yul\":400:454   */\n      and\n        /* \"#utility.yul\":389:454   */\n      swap1\n      pop\n        /* \"#utility.yul\":334:460   */\n      swap2\n      swap1\n      pop\n      jump\t// out\n        /* \"#utility.yul\":466:562   */\n    tag_179:\n        /* \"#utility.yul\":503:510   */\n      0x00\n        /* \"#utility.yul\":532:556   */\n      tag_240\n        /* \"#utility.yul\":550:555   */\n      dup3\n        /* \"#utility.yul\":532:556   */\n      tag_178\n      jump\t// in\n    tag_240:\n        /* \"#utility.yul\":521:556   */\n      swap1\n      pop\n        /* \"#utility.yul\":466:562   */\n      swap2\n      swap1\n      pop\n      jump\t// out\n        /* \"#utility.yul\":568:690   */\n    tag_180:\n        /* \"#utility.yul\":641:665   */\n      tag_242\n        /* \"#utility.yul\":659:664   */\n      dup2\n        /* \"#utility.yul\":641:665   */\n      tag_179\n      jump\t// in\n    tag_242:\n        /* \"#utility.yul\":634:639   */\n      dup2\n        /* \"#utility.yul\":631:666   */\n      eq\n        /* \"#utility.yul\":621:684   */\n      tag_243\n      jumpi\n        /* \"#utility.yul\":680:681   */\n      0x00\n        /* \"#utility.yul\":677:678   */\n      dup1\n        /* \"#utility.yul\":670:682   */\n      revert\n        /* \"#utility.yul\":621:684   */\n    tag_243:\n        /* \"#utility.yul\":568:690   */\n      pop\n      jump\t// out\n        /* \"#utility.yul\":696:835   */\n    tag_181:\n        /* \"#utility.yul\":742:747   */\n      0x00\n        /* \"#utility.yul\":780:786   */\n      dup2\n        /* \"#utility.yul\":767:787   */\n      calldataload\n        /* \"#utility.yul\":758:787   */\n      swap1\n      pop\n        /* \"#utility.yul\":796:829   */\n      tag_245\n        /* \"#utility.yul\":823:828   */\n      dup2\n        /* \"#utility.yul\":796:829   */\n      tag_180\n      jump\t// in\n    tag_245:\n        /* \"#utility.yul\":696:835   */\n      swap3\n      swap2\n      pop\n      pop\n      jump\t// out\n        /* \"#utility.yul\":841:1315   */\n    tag_22:\n        /* \"#utility.yul\":909:915   */\n      0x00\n        /* \"#utility.yul\":917:923   */\n      dup1\n        /* \"#utility.yul\":966:968   */\n      0x40\n        /* \"#utility.yul\":954:963   */\n      dup4\n        /* \"#utility.yul\":945:952   */\n      dup6\n        /* \"#utility.yul\":941:964   */\n      sub\n        /* \"#utility.yul\":937:969   */\n      slt\n        /* \"#utility.yul\":934:1053   */\n      iszero\n      tag_247\n      jumpi\n        /* \"#utility.yul\":972:1051   */\n      tag_248\n      tag_176\n      jump\t// in\n    tag_248:\n        /* \"#utility.yul\":934:1053   */\n    tag_247:\n        /* \"#utility.yul\":1092:1093   */\n      0x00\n        /* \"#utility.yul\":1117:1170   */\n      tag_249\n        /* \"#utility.yul\":1162:1169   */\n      dup6\n        /* \"#utility.yul\":1153:1159   */\n      dup3\n        /* \"#utility.yul\":1142:1151   */\n      dup7\n        /* \"#utility.yul\":1138:1160   */\n      add\n        /* \"#utility.yul\":1117:1170   */\n      tag_181\n      jump\t// in\n    tag_249:\n        /* \"#utility.yul\":1107:1170   */\n      swap3\n      pop\n        /* \"#utility.yul\":1063:1180   */\n      pop\n        /* \"#utility.yul\":1219:1221   */\n      0x20\n        /* \"#utility.yul\":1245:1298   */\n      tag_250\n        /* \"#utility.yul\":1290:1297   */\n      dup6\n        /* \"#utility.yul\":1281:1287   */\n      dup3\n        /* \"#utility.yul\":1270:1279   */\n      dup7\n        /* \"#utility.yul\":1266:1288   */\n      add\n        /* \"#utility.yul\":1245:1298   */\n      tag_181\n      jump\t// in\n    tag_250:\n        /* \"#utility.yul\":1235:1298   */\n      swap2\n      pop\n        /* \"#utility.yul\":1190:1308   */\n      pop\n        /* \"#utility.yul\":841:1315   */\n      swap3\n      pop\n      swap3\n      swap1\n      pop\n      jump\t// out\n        /* \"#utility.yul\":1321:1411   */\n    tag_182:\n        /* \"#utility.yul\":1355:1362   */\n      0x00\n        /* \"#utility.yul\":1398:1403   */\n      dup2\n        /* \"#utility.yul\":1391:1404   */\n      iszero\n        /* \"#utility.yul\":1384:1405   */\n      iszero\n        /* \"#utility.yul\":1373:1405   */\n      swap1\n      pop\n        /* \"#utility.yul\":1321:1411   */\n      swap2\n      swap1\n      pop\n      jump\t// out\n        /* \"#utility.yul\":1417:1526   */\n    tag_183:\n        /* \"#utility.yul\":1498:1519   */\n      tag_253\n        /* \"#utility.yul\":1513:1518   */\n      dup2\n        /* \"#utility.yul\":1498:1519   */\n      tag_182\n      jump\t// in\n    tag_253:\n        /* \"#utility.yul\":1493:1496   */\n      dup3\n        /* \"#utility.yul\":1486:1520   */\n      mstore\n        /* \"#utility.yul\":1417:1526   */\n      pop\n      pop\n      jump\t// out\n        /* \"#utility.yul\":1532:1742   */\n    tag_25:\n        /* \"#utility.yul\":1619:1623   */\n      0x00\n        /* \"#utility.yul\":1657:1659   */\n      0x20\n        /* \"#utility.yul\":1646:1655   */\n      dup3\n        /* \"#utility.yul\":1642:1660   */\n      add\n        /* \"#utility.yul\":1634:1660   */\n      swap1\n      pop\n        /* \"#utility.yul\":1670:1735   */\n      tag_255\n        /* \"#utility.yul\":1732:1733   */\n      0x00\n        /* \"#utility.yul\":1721:1730   */\n      dup4\n        /* \"#utility.yul\":1717:1734   */\n      add\n        /* \"#utility.yul\":1708:1714   */\n      dup5\n        /* \"#utility.yul\":1670:1735   */\n      tag_183\n      jump\t// in\n    tag_255:\n        /* \"#utility.yul\":1532:1742   */\n      swap3\n      swap2\n      pop\n      pop\n      jump\t// out\n        /* \"#utility.yul\":1748:1825   */\n    tag_184:\n        /* \"#utility.yul\":1785:1792   */\n      0x00\n        /* \"#utility.yul\":1814:1819   */\n      dup2\n        /* \"#utility.yul\":1803:1819   */\n      swap1\n      pop\n        /* \"#utility.yul\":1748:1825   */\n      swap2\n      swap1\n      pop\n      jump\t// out\n        /* \"#utility.yul\":1831:1953   */\n    tag_185:\n        /* \"#utility.yul\":1904:1928   */\n      tag_258\n        /* \"#utility.yul\":1922:1927   */\n      dup2\n        /* \"#utility.yul\":1904:1928   */\n      tag_184\n      jump\t// in\n    tag_258:\n        /* \"#utility.yul\":1897:1902   */\n      dup2\n        /* \"#utility.yul\":1894:1929   */\n      eq\n        /* \"#utility.yul\":1884:1947   */\n      tag_259\n      jumpi\n        /* \"#utility.yul\":1943:1944   */\n      0x00\n        /* \"#utility.yul\":1940:1941   */\n      dup1\n        /* \"#utility.yul\":1933:1945   */\n      revert\n        /* \"#utility.yul\":1884:1947   */\n    tag_259:\n        /* \"#utility.yul\":1831:1953   */\n      pop\n      jump\t// out\n        /* \"#utility.yul\":1959:2098   */\n    tag_186:\n        /* \"#utility.yul\":2005:2010   */\n      0x00\n        /* \"#utility.yul\":2043:2049   */\n      dup2\n        /* \"#utility.yul\":2030:2050   */\n      calldataload\n        /* \"#utility.yul\":2021:2050   */\n      swap1\n      pop\n        /* \"#utility.yul\":2059:2092   */\n      tag_261\n        /* \"#utility.yul\":2086:2091   */\n      dup2\n        /* \"#utility.yul\":2059:2092   */\n      tag_185\n      jump\t// in\n    tag_261:\n        /* \"#utility.yul\":1959:2098   */\n      swap3\n      swap2\n      pop\n      pop\n      jump\t// out\n        /* \"#utility.yul\":2104:2578   */\n    tag_28:\n        /* \"#utility.yul\":2172:2178   */\n      0x00\n        /* \"#utility.yul\":2180:2186   */\n      dup1\n        /* \"#utility.yul\":2229:2231   */\n      0x40\n        /* \"#utility.yul\":2217:2226   */\n      dup4\n        /* \"#utility.yul\":2208:2215   */\n      dup6\n        /* \"#utility.yul\":2204:2227   */\n      sub\n        /* \"#utility.yul\":2200:2232   */\n      slt\n        /* \"#utility.yul\":2197:2316   */\n      iszero\n      tag_263\n      jumpi\n        /* \"#utility.yul\":2235:2314   */\n      tag_264\n      tag_176\n      jump\t// in\n    tag_264:\n        /* \"#utility.yul\":2197:2316   */\n    tag_263:\n        /* \"#utility.yul\":2355:2356   */\n      0x00\n        /* \"#utility.yul\":2380:2433   */\n      tag_265\n        /* \"#utility.yul\":2425:2432   */\n      dup6\n        /* \"#utility.yul\":2416:2422   */\n      dup3\n        /* \"#utility.yul\":2405:2414   */\n      dup7\n        /* \"#utility.yul\":2401:2423   */\n      add\n        /* \"#utility.yul\":2380:2433   */\n      tag_181\n      jump\t// in\n    tag_265:\n        /* \"#utility.yul\":2370:2433   */\n      swap3\n      pop\n        /* \"#utility.yul\":2326:2443   */\n      pop\n        /* \"#utility.yul\":2482:2484   */\n      0x20\n        /* \"#utility.yul\":2508:2561   */\n      tag_266\n        /* \"#utility.yul\":2553:2560   */\n      dup6\n        /* \"#utility.yul\":2544:2550   */\n      dup3\n        /* \"#utility.yul\":2533:2542   */\n      dup7\n        /* \"#utility.yul\":2529:2551   */\n      add\n        /* \"#utility.yul\":2508:2561   */\n      tag_186\n      jump\t// in\n    tag_266:\n        /* \"#utility.yul\":2498:2561   */\n      swap2\n      pop\n        /* \"#utility.yul\":2453:2571   */\n      pop\n        /* \"#utility.yul\":2104:2578   */\n      swap3\n      pop\n      swap3\n      swap1\n      pop\n      jump\t// out\n        /* \"#utility.yul\":2584:2702   */\n    tag_187:\n        /* \"#utility.yul\":2671:2695   */\n      tag_268\n        /* \"#utility.yul\":2689:2694   */\n      dup2\n        /* \"#utility.yul\":2671:2695   */\n      tag_184\n      jump\t// in\n    tag_268:\n        /* \"#utility.yul\":2666:2669   */\n      dup3\n        /* \"#utility.yul\":2659:2696   */\n      mstore\n        /* \"#utility.yul\":2584:2702   */\n      pop\n      pop\n      jump\t// out\n        /* \"#utility.yul\":2708:2807   */\n    tag_188:\n        /* \"#utility.yul\":2760:2766   */\n      0x00\n        /* \"#utility.yul\":2794:2799   */\n      dup2\n        /* \"#utility.yul\":2788:2800   */\n      mload\n        /* \"#utility.yul\":2778:2800   */\n      swap1\n      pop\n        /* \"#utility.yul\":2708:2807   */\n      swap2\n      swap1\n      pop\n      jump\t// out\n        /* \"#utility.yul\":2813:2982   */\n    tag_189:\n        /* \"#utility.yul\":2897:2908   */\n      0x00\n        /* \"#utility.yul\":2931:2937   */\n      dup3\n        /* \"#utility.yul\":2926:2929   */\n      dup3\n        /* \"#utility.yul\":2919:2938   */\n      mstore\n        /* \"#utility.yul\":2971:2975   */\n      0x20\n        /* \"#utility.yul\":2966:2969   */\n      dup3\n        /* \"#utility.yul\":2962:2976   */\n      add\n        /* \"#utility.yul\":2947:2976   */\n      swap1\n      pop\n        /* \"#utility.yul\":2813:2982   */\n      swap3\n      swap2\n      pop\n      pop\n      jump\t// out\n        /* \"#utility.yul\":2988:3234   */\n    tag_190:\n        /* \"#utility.yul\":3069:3070   */\n      0x00\n        /* \"#utility.yul\":3079:3192   */\n    tag_272:\n        /* \"#utility.yul\":3093:3099   */\n      dup4\n        /* \"#utility.yul\":3090:3091   */\n      dup2\n        /* \"#utility.yul\":3087:3100   */\n      lt\n        /* \"#utility.yul\":3079:3192   */\n      iszero\n      tag_274\n      jumpi\n        /* \"#utility.yul\":3178:3179   */\n      dup1\n        /* \"#utility.yul\":3173:3176   */\n      dup3\n        /* \"#utility.yul\":3169:3180   */\n      add\n        /* \"#utility.yul\":3163:3181   */\n      mload\n        /* \"#utility.yul\":3159:3160   */\n      dup2\n        /* \"#utility.yul\":3154:3157   */\n      dup5\n        /* \"#utility.yul\":3150:3161   */\n      add\n        /* \"#utility.yul\":3143:3182   */\n      mstore\n        /* \"#utility.yul\":3115:3117   */\n      0x20\n        /* \"#utility.yul\":3112:3113   */\n      dup2\n        /* \"#utility.yul\":3108:3118   */\n      add\n        /* \"#utility.yul\":3103:3118   */\n      swap1\n      pop\n        /* \"#utility.yul\":3079:3192   */\n      jump(tag_272)\n    tag_274:\n        /* \"#utility.yul\":3226:3227   */\n      0x00\n        /* \"#utility.yul\":3217:3223   */\n      dup5\n        /* \"#utility.yul\":3212:3215   */\n      dup5\n        /* \"#utility.yul\":3208:3224   */\n      add\n        /* \"#utility.yul\":3201:3228   */\n      mstore\n        /* \"#utility.yul\":3050:3234   */\n      pop\n        /* \"#utility.yul\":2988:3234   */\n      pop\n      pop\n      pop\n      jump\t// out\n        /* \"#utility.yul\":3240:3342   */\n    tag_191:\n        /* \"#utility.yul\":3281:3287   */\n      0x00\n        /* \"#utility.yul\":3332:3334   */\n      0x1f\n        /* \"#utility.yul\":3328:3335   */\n      not\n        /* \"#utility.yul\":3323:3325   */\n      0x1f\n        /* \"#utility.yul\":3316:3321   */\n      dup4\n        /* \"#utility.yul\":3312:3326   */\n      add\n        /* \"#utility.yul\":3308:3336   */\n      and\n        /* \"#utility.yul\":3298:3336   */\n      swap1\n      pop\n        /* \"#utility.yul\":3240:3342   */\n      swap2\n      swap1\n      pop\n      jump\t// out\n        /* \"#utility.yul\":3348:3725   */\n    tag_192:\n        /* \"#utility.yul\":3436:3439   */\n      0x00\n        /* \"#utility.yul\":3464:3503   */\n      tag_277\n        /* \"#utility.yul\":3497:3502   */\n      dup3\n        /* \"#utility.yul\":3464:3503   */\n      tag_188\n      jump\t// in\n    tag_277:\n        /* \"#utility.yul\":3519:3590   */\n      tag_278\n        /* \"#utility.yul\":3583:3589   */\n      dup2\n        /* \"#utility.yul\":3578:3581   */\n      dup6\n        /* \"#utility.yul\":3519:3590   */\n      tag_189\n      jump\t// in\n    tag_278:\n        /* \"#utility.yul\":3512:3590   */\n      swap4\n      pop\n        /* \"#utility.yul\":3599:3664   */\n      tag_279\n        /* \"#utility.yul\":3657:3663   */\n      dup2\n        /* \"#utility.yul\":3652:3655   */\n      dup6\n        /* \"#utility.yul\":3645:3649   */\n      0x20\n        /* \"#utility.yul\":3638:3643   */\n      dup7\n        /* \"#utility.yul\":3634:3650   */\n      add\n        /* \"#utility.yul\":3599:3664   */\n      tag_190\n      jump\t// in\n    tag_279:\n        /* \"#utility.yul\":3689:3718   */\n      tag_280\n        /* \"#utility.yul\":3711:3717   */\n      dup2\n        /* \"#utility.yul\":3689:3718   */\n      tag_191\n      jump\t// in\n    tag_280:\n        /* \"#utility.yul\":3684:3687   */\n      dup5\n        /* \"#utility.yul\":3680:3719   */\n      add\n        /* \"#utility.yul\":3673:3719   */\n      swap2\n      pop\n        /* \"#utility.yul\":3440:3725   */\n      pop\n        /* \"#utility.yul\":3348:3725   */\n      swap3\n      swap2\n      pop\n      pop\n      jump\t// out\n        /* \"#utility.yul\":3731:3849   */\n    tag_193:\n        /* \"#utility.yul\":3818:3842   */\n      tag_282\n        /* \"#utility.yul\":3836:3841   */\n      dup2\n        /* \"#utility.yul\":3818:3842   */\n      tag_179\n      jump\t// in\n    tag_282:\n        /* \"#utility.yul\":3813:3816   */\n      dup3\n        /* \"#utility.yul\":3806:3843   */\n      mstore\n        /* \"#utility.yul\":3731:3849   */\n      pop\n      pop\n      jump\t// out\n        /* \"#utility.yul\":3855:4610   */\n    tag_31:\n        /* \"#utility.yul\":4080:4084   */\n      0x00\n        /* \"#utility.yul\":4118:4121   */\n      0xa0\n        /* \"#utility.yul\":4107:4116   */\n      dup3\n        /* \"#utility.yul\":4103:4122   */\n      add\n        /* \"#utility.yul\":4095:4122   */\n      swap1\n      pop\n        /* \"#utility.yul\":4132:4203   */\n      tag_284\n        /* \"#utility.yul\":4200:4201   */\n      0x00\n        /* \"#utility.yul\":4189:4198   */\n      dup4\n        /* \"#utility.yul\":4185:4202   */\n      add\n        /* \"#utility.yul\":4176:4182   */\n      dup9\n        /* \"#utility.yul\":4132:4203   */\n      tag_187\n      jump\t// in\n    tag_284:\n        /* \"#utility.yul\":4250:4259   */\n      dup2\n        /* \"#utility.yul\":4244:4248   */\n      dup2\n        /* \"#utility.yul\":4240:4260   */\n      sub\n        /* \"#utility.yul\":4235:4237   */\n      0x20\n        /* \"#utility.yul\":4224:4233   */\n      dup4\n        /* \"#utility.yul\":4220:4238   */\n      add\n        /* \"#utility.yul\":4213:4261   */\n      mstore\n        /* \"#utility.yul\":4278:4356   */\n      tag_285\n        /* \"#utility.yul\":4351:4355   */\n      dup2\n        /* \"#utility.yul\":4342:4348   */\n      dup8\n        /* \"#utility.yul\":4278:4356   */\n      tag_192\n      jump\t// in\n    tag_285:\n        /* \"#utility.yul\":4270:4356   */\n      swap1\n      pop\n        /* \"#utility.yul\":4366:4438   */\n      tag_286\n        /* \"#utility.yul\":4434:4436   */\n      0x40\n        /* \"#utility.yul\":4423:4432   */\n      dup4\n        /* \"#utility.yul\":4419:4437   */\n      add\n        /* \"#utility.yul\":4410:4416   */\n      dup7\n        /* \"#utility.yul\":4366:4438   */\n      tag_193\n      jump\t// in\n    tag_286:\n        /* \"#utility.yul\":4448:4520   */\n      tag_287\n        /* \"#utility.yul\":4516:4518   */\n      0x60\n        /* \"#utility.yul\":4505:4514   */\n      dup4\n        /* \"#utility.yul\":4501:4519   */\n      add\n        /* \"#utility.yul\":4492:4498   */\n      dup6\n        /* \"#utility.yul\":4448:4520   */\n      tag_193\n      jump\t// in\n    tag_287:\n        /* \"#utility.yul\":4530:4603   */\n      tag_288\n        /* \"#utility.yul\":4598:4601   */\n      0x80\n        /* \"#utility.yul\":4587:4596   */\n      dup4\n        /* \"#utility.yul\":4583:4602   */\n      add\n        /* \"#utility.yul\":4574:4580   */\n      dup5\n        /* \"#utility.yul\":4530:4603   */\n      tag_187\n      jump\t// in\n    tag_288:\n        /* \"#utility.yul\":3855:4610   */\n      swap7\n      swap6\n      pop\n      pop\n      pop\n      pop\n      pop\n      pop\n      jump\t// out\n        /* \"#utility.yul\":4616:4945   */\n    tag_34:\n        /* \"#utility.yul\":4675:4681   */\n      0x00\n        /* \"#utility.yul\":4724:4726   */\n      0x20\n        /* \"#utility.yul\":4712:4721   */\n      dup3\n        /* \"#utility.yul\":4703:4710   */\n      dup5\n        /* \"#utility.yul\":4699:4722   */\n      sub\n        /* \"#utility.yul\":4695:4727   */\n      slt\n        /* \"#utility.yul\":4692:4811   */\n      iszero\n      tag_290\n      jumpi\n        /* \"#utility.yul\":4730:4809   */\n      tag_291\n      tag_176\n      jump\t// in\n    tag_291:\n        /* \"#utility.yul\":4692:4811   */\n    tag_290:\n        /* \"#utility.yul\":4850:4851   */\n      0x00\n        /* \"#utility.yul\":4875:4928   */\n      tag_292\n        /* \"#utility.yul\":4920:4927   */\n      dup5\n        /* \"#utility.yul\":4911:4917   */\n      dup3\n        /* \"#utility.yul\":4900:4909   */\n      dup6\n        /* \"#utility.yul\":4896:4918   */\n      add\n        /* \"#utility.yul\":4875:4928   */\n      tag_181\n      jump\t// in\n    tag_292:\n        /* \"#utility.yul\":4865:4928   */\n      swap2\n      pop\n        /* \"#utility.yul\":4821:4938   */\n      pop\n        /* \"#utility.yul\":4616:4945   */\n      swap3\n      swap2\n      pop\n      pop\n      jump\t// out\n        /* \"#utility.yul\":4951:5280   */\n    tag_38:\n        /* \"#utility.yul\":5010:5016   */\n      0x00\n        /* \"#utility.yul\":5059:5061   */\n      0x20\n        /* \"#utility.yul\":5047:5056   */\n      dup3\n        /* \"#utility.yul\":5038:5045   */\n      dup5\n        /* \"#utility.yul\":5034:5057   */\n      sub\n        /* \"#utility.yul\":5030:5062   */\n      slt\n        /* \"#utility.yul\":5027:5146   */\n      iszero\n      tag_294\n      jumpi\n        /* \"#utility.yul\":5065:5144   */\n      tag_295\n      tag_176\n      jump\t// in\n    tag_295:\n        /* \"#utility.yul\":5027:5146   */\n    tag_294:\n        /* \"#utility.yul\":5185:5186   */\n      0x00\n        /* \"#utility.yul\":5210:5263   */\n      tag_296\n        /* \"#utility.yul\":5255:5262   */\n      dup5\n        /* \"#utility.yul\":5246:5252   */\n      dup3\n        /* \"#utility.yul\":5235:5244   */\n      dup6\n        /* \"#utility.yul\":5231:5253   */\n      add\n        /* \"#utility.yul\":5210:5263   */\n      tag_186\n      jump\t// in\n    tag_296:\n        /* \"#utility.yul\":5200:5263   */\n      swap2\n      pop\n        /* \"#utility.yul\":5156:5273   */\n      pop\n        /* \"#utility.yul\":4951:5280   */\n      swap3\n      swap2\n      pop\n      pop\n      jump\t// out\n        /* \"#utility.yul\":5286:5421   */\n    tag_194:\n        /* \"#utility.yul\":5374:5380   */\n      0x00\n        /* \"#utility.yul\":5408:5413   */\n      dup2\n        /* \"#utility.yul\":5402:5414   */\n      mload\n        /* \"#utility.yul\":5392:5414   */\n      swap1\n      pop\n        /* \"#utility.yul\":5286:5421   */\n      swap2\n      swap1\n      pop\n      jump\t// out\n        /* \"#utility.yul\":5427:5632   */\n    tag_195:\n        /* \"#utility.yul\":5547:5558   */\n      0x00\n        /* \"#utility.yul\":5581:5587   */\n      dup3\n        /* \"#utility.yul\":5576:5579   */\n      dup3\n        /* \"#utility.yul\":5569:5588   */\n      mstore\n        /* \"#utility.yul\":5621:5625   */\n      0x20\n        /* \"#utility.yul\":5616:5619   */\n      dup3\n        /* \"#utility.yul\":5612:5626   */\n      add\n        /* \"#utility.yul\":5597:5626   */\n      swap1\n      pop\n        /* \"#utility.yul\":5427:5632   */\n      swap3\n      swap2\n      pop\n      pop\n      jump\t// out\n        /* \"#utility.yul\":5638:5791   */\n    tag_196:\n        /* \"#utility.yul\":5726:5730   */\n      0x00\n        /* \"#utility.yul\":5749:5752   */\n      dup2\n        /* \"#utility.yul\":5741:5752   */\n      swap1\n      pop\n        /* \"#utility.yul\":5779:5783   */\n      0x20\n        /* \"#utility.yul\":5774:5777   */\n      dup3\n        /* \"#utility.yul\":5770:5784   */\n      add\n        /* \"#utility.yul\":5762:5784   */\n      swap1\n      pop\n        /* \"#utility.yul\":5638:5791   */\n      swap2\n      swap1\n      pop\n      jump\t// out\n        /* \"#utility.yul\":5797:5905   */\n    tag_197:\n        /* \"#utility.yul\":5874:5898   */\n      tag_301\n        /* \"#utility.yul\":5892:5897   */\n      dup2\n        /* \"#utility.yul\":5874:5898   */\n      tag_184\n      jump\t// in\n    tag_301:\n        /* \"#utility.yul\":5869:5872   */\n      dup3\n        /* \"#utility.yul\":5862:5899   */\n      mstore\n        /* \"#utility.yul\":5797:5905   */\n      pop\n      pop\n      jump\t// out\n        /* \"#utility.yul\":5911:6019   */\n    tag_198:\n        /* \"#utility.yul\":5988:6012   */\n      tag_303\n        /* \"#utility.yul\":6006:6011   */\n      dup2\n        /* \"#utility.yul\":5988:6012   */\n      tag_179\n      jump\t// in\n    tag_303:\n        /* \"#utility.yul\":5983:5986   */\n      dup3\n        /* \"#utility.yul\":5976:6013   */\n      mstore\n        /* \"#utility.yul\":5911:6019   */\n      pop\n      pop\n      jump\t// out\n        /* \"#utility.yul\":6025:6184   */\n    tag_199:\n        /* \"#utility.yul\":6099:6110   */\n      0x00\n        /* \"#utility.yul\":6133:6139   */\n      dup3\n        /* \"#utility.yul\":6128:6131   */\n      dup3\n        /* \"#utility.yul\":6121:6140   */\n      mstore\n        /* \"#utility.yul\":6173:6177   */\n      0x20\n        /* \"#utility.yul\":6168:6171   */\n      dup3\n        /* \"#utility.yul\":6164:6178   */\n      add\n        /* \"#utility.yul\":6149:6178   */\n      swap1\n      pop\n        /* \"#utility.yul\":6025:6184   */\n      swap3\n      swap2\n      pop\n      pop\n      jump\t// out\n        /* \"#utility.yul\":6190:6547   */\n    tag_200:\n        /* \"#utility.yul\":6268:6271   */\n      0x00\n        /* \"#utility.yul\":6296:6335   */\n      tag_306\n        /* \"#utility.yul\":6329:6334   */\n      dup3\n        /* \"#utility.yul\":6296:6335   */\n      tag_188\n      jump\t// in\n    tag_306:\n        /* \"#utility.yul\":6351:6412   */\n      tag_307\n        /* \"#utility.yul\":6405:6411   */\n      dup2\n        /* \"#utility.yul\":6400:6403   */\n      dup6\n        /* \"#utility.yul\":6351:6412   */\n      tag_199\n      jump\t// in\n    tag_307:\n        /* \"#utility.yul\":6344:6412   */\n      swap4\n      pop\n        /* \"#utility.yul\":6421:6486   */\n      tag_308\n        /* \"#utility.yul\":6479:6485   */\n      dup2\n        /* \"#utility.yul\":6474:6477   */\n      dup6\n        /* \"#utility.yul\":6467:6471   */\n      0x20\n        /* \"#utility.yul\":6460:6465   */\n      dup7\n        /* \"#utility.yul\":6456:6472   */\n      add\n        /* \"#utility.yul\":6421:6486   */\n      tag_190\n      jump\t// in\n    tag_308:\n        /* \"#utility.yul\":6511:6540   */\n      tag_309\n        /* \"#utility.yul\":6533:6539   */\n      dup2\n        /* \"#utility.yul\":6511:6540   */\n      tag_191\n      jump\t// in\n    tag_309:\n        /* \"#utility.yul\":6506:6509   */\n      dup5\n        /* \"#utility.yul\":6502:6541   */\n      add\n        /* \"#utility.yul\":6495:6541   */\n      swap2\n      pop\n        /* \"#utility.yul\":6272:6547   */\n      pop\n        /* \"#utility.yul\":6190:6547   */\n      swap3\n      swap2\n      pop\n      pop\n      jump\t// out\n        /* \"#utility.yul\":6615:7559   */\n    tag_201:\n        /* \"#utility.yul\":6716:6719   */\n      0x00\n        /* \"#utility.yul\":6752:6756   */\n      0x80\n        /* \"#utility.yul\":6747:6750   */\n      dup4\n        /* \"#utility.yul\":6743:6757   */\n      add\n        /* \"#utility.yul\":6837:6841   */\n      0x00\n        /* \"#utility.yul\":6830:6835   */\n      dup4\n        /* \"#utility.yul\":6826:6842   */\n      add\n        /* \"#utility.yul\":6820:6843   */\n      mload\n        /* \"#utility.yul\":6856:6919   */\n      tag_311\n        /* \"#utility.yul\":6913:6917   */\n      0x00\n        /* \"#utility.yul\":6908:6911   */\n      dup7\n        /* \"#utility.yul\":6904:6918   */\n      add\n        /* \"#utility.yul\":6890:6902   */\n      dup3\n        /* \"#utility.yul\":6856:6919   */\n      tag_197\n      jump\t// in\n    tag_311:\n        /* \"#utility.yul\":6767:6929   */\n      pop\n        /* \"#utility.yul\":7013:7017   */\n      0x20\n        /* \"#utility.yul\":7006:7011   */\n      dup4\n        /* \"#utility.yul\":7002:7018   */\n      add\n        /* \"#utility.yul\":6996:7019   */\n      mload\n        /* \"#utility.yul\":7032:7095   */\n      tag_312\n        /* \"#utility.yul\":7089:7093   */\n      0x20\n        /* \"#utility.yul\":7084:7087   */\n      dup7\n        /* \"#utility.yul\":7080:7094   */\n      add\n        /* \"#utility.yul\":7066:7078   */\n      dup3\n        /* \"#utility.yul\":7032:7095   */\n      tag_198\n      jump\t// in\n    tag_312:\n        /* \"#utility.yul\":6939:7105   */\n      pop\n        /* \"#utility.yul\":7190:7194   */\n      0x40\n        /* \"#utility.yul\":7183:7188   */\n      dup4\n        /* \"#utility.yul\":7179:7195   */\n      add\n        /* \"#utility.yul\":7173:7196   */\n      mload\n        /* \"#utility.yul\":7243:7246   */\n      dup5\n        /* \"#utility.yul\":7237:7241   */\n      dup3\n        /* \"#utility.yul\":7233:7247   */\n      sub\n        /* \"#utility.yul\":7226:7230   */\n      0x40\n        /* \"#utility.yul\":7221:7224   */\n      dup7\n        /* \"#utility.yul\":7217:7231   */\n      add\n        /* \"#utility.yul\":7210:7248   */\n      mstore\n        /* \"#utility.yul\":7269:7342   */\n      tag_313\n        /* \"#utility.yul\":7337:7341   */\n      dup3\n        /* \"#utility.yul\":7323:7335   */\n      dup3\n        /* \"#utility.yul\":7269:7342   */\n      tag_200\n      jump\t// in\n    tag_313:\n        /* \"#utility.yul\":7261:7342   */\n      swap2\n      pop\n        /* \"#utility.yul\":7115:7353   */\n      pop\n        /* \"#utility.yul\":7440:7444   */\n      0x60\n        /* \"#utility.yul\":7433:7438   */\n      dup4\n        /* \"#utility.yul\":7429:7445   */\n      add\n        /* \"#utility.yul\":7423:7446   */\n      mload\n        /* \"#utility.yul\":7459:7522   */\n      tag_314\n        /* \"#utility.yul\":7516:7520   */\n      0x60\n        /* \"#utility.yul\":7511:7514   */\n      dup7\n        /* \"#utility.yul\":7507:7521   */\n      add\n        /* \"#utility.yul\":7493:7505   */\n      dup3\n        /* \"#utility.yul\":7459:7522   */\n      tag_197\n      jump\t// in\n    tag_314:\n        /* \"#utility.yul\":7363:7532   */\n      pop\n        /* \"#utility.yul\":7549:7553   */\n      dup1\n        /* \"#utility.yul\":7542:7553   */\n      swap2\n      pop\n        /* \"#utility.yul\":6721:7559   */\n      pop\n        /* \"#utility.yul\":6615:7559   */\n      swap3\n      swap2\n      pop\n      pop\n      jump\t// out\n        /* \"#utility.yul\":7565:7805   */\n    tag_202:\n        /* \"#utility.yul\":7676:7686   */\n      0x00\n        /* \"#utility.yul\":7711:7799   */\n      tag_316\n        /* \"#utility.yul\":7795:7798   */\n      dup4\n        /* \"#utility.yul\":7787:7793   */\n      dup4\n        /* \"#utility.yul\":7711:7799   */\n      tag_201\n      jump\t// in\n    tag_316:\n        /* \"#utility.yul\":7697:7799   */\n      swap1\n      pop\n        /* \"#utility.yul\":7565:7805   */\n      swap3\n      swap2\n      pop\n      pop\n      jump\t// out\n        /* \"#utility.yul\":7811:7945   */\n    tag_203:\n        /* \"#utility.yul\":7902:7906   */\n      0x00\n        /* \"#utility.yul\":7934:7938   */\n      0x20\n        /* \"#utility.yul\":7929:7932   */\n      dup3\n        /* \"#utility.yul\":7925:7939   */\n      add\n        /* \"#utility.yul\":7917:7939   */\n      swap1\n      pop\n        /* \"#utility.yul\":7811:7945   */\n      swap2\n      swap1\n      pop\n      jump\t// out\n        /* \"#utility.yul\":8017:9096   */\n    tag_204:\n        /* \"#utility.yul\":8178:8181   */\n      0x00\n        /* \"#utility.yul\":8207:8282   */\n      tag_319\n        /* \"#utility.yul\":8276:8281   */\n      dup3\n        /* \"#utility.yul\":8207:8282   */\n      tag_194\n      jump\t// in\n    tag_319:\n        /* \"#utility.yul\":8298:8405   */\n      tag_320\n        /* \"#utility.yul\":8398:8404   */\n      dup2\n        /* \"#utility.yul\":8393:8396   */\n      dup6\n        /* \"#utility.yul\":8298:8405   */\n      tag_195\n      jump\t// in\n    tag_320:\n        /* \"#utility.yul\":8291:8405   */\n      swap4\n      pop\n        /* \"#utility.yul\":8431:8434   */\n      dup4\n        /* \"#utility.yul\":8476:8480   */\n      0x20\n        /* \"#utility.yul\":8468:8474   */\n      dup3\n        /* \"#utility.yul\":8464:8481   */\n      mul\n        /* \"#utility.yul\":8459:8462   */\n      dup6\n        /* \"#utility.yul\":8455:8482   */\n      add\n        /* \"#utility.yul\":8506:8583   */\n      tag_321\n        /* \"#utility.yul\":8577:8582   */\n      dup6\n        /* \"#utility.yul\":8506:8583   */\n      tag_196\n      jump\t// in\n    tag_321:\n        /* \"#utility.yul\":8606:8613   */\n      dup1\n        /* \"#utility.yul\":8637:8638   */\n      0x00\n        /* \"#utility.yul\":8622:9051   */\n    tag_322:\n        /* \"#utility.yul\":8647:8653   */\n      dup6\n        /* \"#utility.yul\":8644:8645   */\n      dup2\n        /* \"#utility.yul\":8641:8654   */\n      lt\n        /* \"#utility.yul\":8622:9051   */\n      iszero\n      tag_324\n      jumpi\n        /* \"#utility.yul\":8718:8727   */\n      dup5\n        /* \"#utility.yul\":8712:8716   */\n      dup5\n        /* \"#utility.yul\":8708:8728   */\n      sub\n        /* \"#utility.yul\":8703:8706   */\n      dup10\n        /* \"#utility.yul\":8696:8729   */\n      mstore\n        /* \"#utility.yul\":8769:8775   */\n      dup2\n        /* \"#utility.yul\":8763:8776   */\n      mload\n        /* \"#utility.yul\":8797:8903   */\n      tag_325\n        /* \"#utility.yul\":8898:8902   */\n      dup6\n        /* \"#utility.yul\":8883:8896   */\n      dup3\n        /* \"#utility.yul\":8797:8903   */\n      tag_202\n      jump\t// in\n    tag_325:\n        /* \"#utility.yul\":8789:8903   */\n      swap5\n      pop\n        /* \"#utility.yul\":8926:9007   */\n      tag_326\n        /* \"#utility.yul\":9000:9006   */\n      dup4\n        /* \"#utility.yul\":8926:9007   */\n      tag_203\n      jump\t// in\n    tag_326:\n        /* \"#utility.yul\":8916:9007   */\n      swap3\n      pop\n        /* \"#utility.yul\":9036:9040   */\n      0x20\n        /* \"#utility.yul\":9031:9034   */\n      dup11\n        /* \"#utility.yul\":9027:9041   */\n      add\n        /* \"#utility.yul\":9020:9041   */\n      swap10\n      pop\n        /* \"#utility.yul\":8682:9051   */\n      pop\n        /* \"#utility.yul\":8669:8670   */\n      0x01\n        /* \"#utility.yul\":8666:8667   */\n      dup2\n        /* \"#utility.yul\":8662:8671   */\n      add\n        /* \"#utility.yul\":8657:8671   */\n      swap1\n      pop\n        /* \"#utility.yul\":8622:9051   */\n      jump(tag_322)\n    tag_324:\n        /* \"#utility.yul\":8626:8640   */\n      pop\n        /* \"#utility.yul\":9067:9071   */\n      dup3\n        /* \"#utility.yul\":9060:9071   */\n      swap8\n      pop\n        /* \"#utility.yul\":9087:9090   */\n      dup8\n        /* \"#utility.yul\":9080:9090   */\n      swap6\n      pop\n        /* \"#utility.yul\":8183:9096   */\n      pop\n      pop\n      pop\n      pop\n      pop\n        /* \"#utility.yul\":8017:9096   */\n      swap3\n      swap2\n      pop\n      pop\n      jump\t// out\n        /* \"#utility.yul\":9102:9559   */\n    tag_41:\n        /* \"#utility.yul\":9287:9291   */\n      0x00\n        /* \"#utility.yul\":9325:9327   */\n      0x20\n        /* \"#utility.yul\":9314:9323   */\n      dup3\n        /* \"#utility.yul\":9310:9328   */\n      add\n        /* \"#utility.yul\":9302:9328   */\n      swap1\n      pop\n        /* \"#utility.yul\":9374:9383   */\n      dup2\n        /* \"#utility.yul\":9368:9372   */\n      dup2\n        /* \"#utility.yul\":9364:9384   */\n      sub\n        /* \"#utility.yul\":9360:9361   */\n      0x00\n        /* \"#utility.yul\":9349:9358   */\n      dup4\n        /* \"#utility.yul\":9345:9362   */\n      add\n        /* \"#utility.yul\":9338:9385   */\n      mstore\n        /* \"#utility.yul\":9402:9552   */\n      tag_328\n        /* \"#utility.yul\":9547:9551   */\n      dup2\n        /* \"#utility.yul\":9538:9544   */\n      dup5\n        /* \"#utility.yul\":9402:9552   */\n      tag_204\n      jump\t// in\n    tag_328:\n        /* \"#utility.yul\":9394:9552   */\n      swap1\n      pop\n        /* \"#utility.yul\":9102:9559   */\n      swap3\n      swap2\n      pop\n      pop\n      jump\t// out\n        /* \"#utility.yul\":9565:9787   */\n    tag_50:\n        /* \"#utility.yul\":9658:9662   */\n      0x00\n        /* \"#utility.yul\":9696:9698   */\n      0x20\n        /* \"#utility.yul\":9685:9694   */\n      dup3\n        /* \"#utility.yul\":9681:9699   */\n      add\n        /* \"#utility.yul\":9673:9699   */\n      swap1\n      pop\n        /* \"#utility.yul\":9709:9780   */\n      tag_330\n        /* \"#utility.yul\":9777:9778   */\n      0x00\n        /* \"#utility.yul\":9766:9775   */\n      dup4\n        /* \"#utility.yul\":9762:9779   */\n      add\n        /* \"#utility.yul\":9753:9759   */\n      dup5\n        /* \"#utility.yul\":9709:9780   */\n      tag_193\n      jump\t// in\n    tag_330:\n        /* \"#utility.yul\":9565:9787   */\n      swap3\n      swap2\n      pop\n      pop\n      jump\t// out\n        /* \"#utility.yul\":9793:10015   */\n    tag_58:\n        /* \"#utility.yul\":9886:9890   */\n      0x00\n        /* \"#utility.yul\":9924:9926   */\n      0x20\n        /* \"#utility.yul\":9913:9922   */\n      dup3\n        /* \"#utility.yul\":9909:9927   */\n      add\n        /* \"#utility.yul\":9901:9927   */\n      swap1\n      pop\n        /* \"#utility.yul\":9937:10008   */\n      tag_332\n        /* \"#utility.yul\":10005:10006   */\n      0x00\n        /* \"#utility.yul\":9994:10003   */\n      dup4\n        /* \"#utility.yul\":9990:10007   */\n      add\n        /* \"#utility.yul\":9981:9987   */\n      dup5\n        /* \"#utility.yul\":9937:10008   */\n      tag_187\n      jump\t// in\n    tag_332:\n        /* \"#utility.yul\":9793:10015   */\n      swap3\n      swap2\n      pop\n      pop\n      jump\t// out\n        /* \"#utility.yul\":10021:10138   */\n    tag_205:\n        /* \"#utility.yul\":10130:10131   */\n      0x00\n        /* \"#utility.yul\":10127:10128   */\n      dup1\n        /* \"#utility.yul\":10120:10132   */\n      revert\n        /* \"#utility.yul\":10144:10261   */\n    tag_206:\n        /* \"#utility.yul\":10253:10254   */\n      0x00\n        /* \"#utility.yul\":10250:10251   */\n      dup1\n        /* \"#utility.yul\":10243:10255   */\n      revert\n        /* \"#utility.yul\":10267:10447   */\n    tag_99:\n        /* \"#utility.yul\":10315:10392   */\n      0x4e487b7100000000000000000000000000000000000000000000000000000000\n        /* \"#utility.yul\":10312:10313   */\n      0x00\n        /* \"#utility.yul\":10305:10393   */\n      mstore\n        /* \"#utility.yul\":10412:10416   */\n      0x41\n        /* \"#utility.yul\":10409:10410   */\n      0x04\n        /* \"#utility.yul\":10402:10417   */\n      mstore\n        /* \"#utility.yul\":10436:10440   */\n      0x24\n        /* \"#utility.yul\":10433:10434   */\n      0x00\n        /* \"#utility.yul\":10426:10441   */\n      revert\n        /* \"#utility.yul\":10453:10734   */\n    tag_207:\n        /* \"#utility.yul\":10536:10563   */\n      tag_337\n        /* \"#utility.yul\":10558:10562   */\n      dup3\n        /* \"#utility.yul\":10536:10563   */\n      tag_191\n      jump\t// in\n    tag_337:\n        /* \"#utility.yul\":10528:10534   */\n      dup2\n        /* \"#utility.yul\":10524:10564   */\n      add\n        /* \"#utility.yul\":10666:10672   */\n      dup2\n        /* \"#utility.yul\":10654:10664   */\n      dup2\n        /* \"#utility.yul\":10651:10673   */\n      lt\n        /* \"#utility.yul\":10630:10648   */\n      0xffffffffffffffff\n        /* \"#utility.yul\":10618:10628   */\n      dup3\n        /* \"#utility.yul\":10615:10649   */\n      gt\n        /* \"#utility.yul\":10612:10674   */\n      or\n        /* \"#utility.yul\":10609:10697   */\n      iszero\n      tag_338\n      jumpi\n        /* \"#utility.yul\":10677:10695   */\n      tag_339\n      tag_99\n      jump\t// in\n    tag_339:\n        /* \"#utility.yul\":10609:10697   */\n    tag_338:\n        /* \"#utility.yul\":10717:10727   */\n      dup1\n        /* \"#utility.yul\":10713:10715   */\n      0x40\n        /* \"#utility.yul\":10706:10728   */\n      mstore\n        /* \"#utility.yul\":10496:10734   */\n      pop\n        /* \"#utility.yul\":10453:10734   */\n      pop\n      pop\n      jump\t// out\n        /* \"#utility.yul\":10740:10869   */\n    tag_208:\n        /* \"#utility.yul\":10774:10780   */\n      0x00\n        /* \"#utility.yul\":10801:10821   */\n      tag_341\n      tag_175\n      jump\t// in\n    tag_341:\n        /* \"#utility.yul\":10791:10821   */\n      swap1\n      pop\n        /* \"#utility.yul\":10830:10863   */\n      tag_342\n        /* \"#utility.yul\":10858:10862   */\n      dup3\n        /* \"#utility.yul\":10850:10856   */\n      dup3\n        /* \"#utility.yul\":10830:10863   */\n      tag_207\n      jump\t// in\n    tag_342:\n        /* \"#utility.yul\":10740:10869   */\n      swap2\n      swap1\n      pop\n      jump\t// out\n        /* \"#utility.yul\":10875:11183   */\n    tag_209:\n        /* \"#utility.yul\":10937:10941   */\n      0x00\n        /* \"#utility.yul\":11027:11045   */\n      0xffffffffffffffff\n        /* \"#utility.yul\":11019:11025   */\n      dup3\n        /* \"#utility.yul\":11016:11046   */\n      gt\n        /* \"#utility.yul\":11013:11069   */\n      iszero\n      tag_344\n      jumpi\n        /* \"#utility.yul\":11049:11067   */\n      tag_345\n      tag_99\n      jump\t// in\n    tag_345:\n        /* \"#utility.yul\":11013:11069   */\n    tag_344:\n        /* \"#utility.yul\":11087:11116   */\n      tag_346\n        /* \"#utility.yul\":11109:11115   */\n      dup3\n        /* \"#utility.yul\":11087:11116   */\n      tag_191\n      jump\t// in\n    tag_346:\n        /* \"#utility.yul\":11079:11116   */\n      swap1\n      pop\n        /* \"#utility.yul\":11171:11175   */\n      0x20\n        /* \"#utility.yul\":11165:11169   */\n      dup2\n        /* \"#utility.yul\":11161:11176   */\n      add\n        /* \"#utility.yul\":11153:11176   */\n      swap1\n      pop\n        /* \"#utility.yul\":10875:11183   */\n      swap2\n      swap1\n      pop\n      jump\t// out\n        /* \"#utility.yul\":11189:11335   */\n    tag_210:\n        /* \"#utility.yul\":11286:11292   */\n      dup3\n        /* \"#utility.yul\":11281:11284   */\n      dup2\n        /* \"#utility.yul\":11276:11279   */\n      dup4\n        /* \"#utility.yul\":11263:11293   */\n      calldatacopy\n        /* \"#utility.yul\":11327:11328   */\n      0x00\n        /* \"#utility.yul\":11318:11324   */\n      dup4\n        /* \"#utility.yul\":11313:11316   */\n      dup4\n        /* \"#utility.yul\":11309:11325   */\n      add\n        /* \"#utility.yul\":11302:11329   */\n      mstore\n        /* \"#utility.yul\":11189:11335   */\n      pop\n      pop\n      pop\n      jump\t// out\n        /* \"#utility.yul\":11341:11766   */\n    tag_211:\n        /* \"#utility.yul\":11419:11424   */\n      0x00\n        /* \"#utility.yul\":11444:11510   */\n      tag_349\n        /* \"#utility.yul\":11460:11509   */\n      tag_350\n        /* \"#utility.yul\":11502:11508   */\n      dup5\n        /* \"#utility.yul\":11460:11509   */\n      tag_209\n      jump\t// in\n    tag_350:\n        /* \"#utility.yul\":11444:11510   */\n      tag_208\n      jump\t// in\n    tag_349:\n        /* \"#utility.yul\":11435:11510   */\n      swap1\n      pop\n        /* \"#utility.yul\":11533:11539   */\n      dup3\n        /* \"#utility.yul\":11526:11531   */\n      dup2\n        /* \"#utility.yul\":11519:11540   */\n      mstore\n        /* \"#utility.yul\":11571:11575   */\n      0x20\n        /* \"#utility.yul\":11564:11569   */\n      dup2\n        /* \"#utility.yul\":11560:11576   */\n      add\n        /* \"#utility.yul\":11609:11612   */\n      dup5\n        /* \"#utility.yul\":11600:11606   */\n      dup5\n        /* \"#utility.yul\":11595:11598   */\n      dup5\n        /* \"#utility.yul\":11591:11607   */\n      add\n        /* \"#utility.yul\":11588:11613   */\n      gt\n        /* \"#utility.yul\":11585:11697   */\n      iszero\n      tag_351\n      jumpi\n        /* \"#utility.yul\":11616:11695   */\n      tag_352\n      tag_206\n      jump\t// in\n    tag_352:\n        /* \"#utility.yul\":11585:11697   */\n    tag_351:\n        /* \"#utility.yul\":11706:11760   */\n      tag_353\n        /* \"#utility.yul\":11753:11759   */\n      dup5\n        /* \"#utility.yul\":11748:11751   */\n      dup3\n        /* \"#utility.yul\":11743:11746   */\n      dup6\n        /* \"#utility.yul\":11706:11760   */\n      tag_210\n      jump\t// in\n    tag_353:\n        /* \"#utility.yul\":11425:11766   */\n      pop\n        /* \"#utility.yul\":11341:11766   */\n      swap4\n      swap3\n      pop\n      pop\n      pop\n      jump\t// out\n        /* \"#utility.yul\":11786:12126   */\n    tag_212:\n        /* \"#utility.yul\":11842:11847   */\n      0x00\n        /* \"#utility.yul\":11891:11894   */\n      dup3\n        /* \"#utility.yul\":11884:11888   */\n      0x1f\n        /* \"#utility.yul\":11876:11882   */\n      dup4\n        /* \"#utility.yul\":11872:11889   */\n      add\n        /* \"#utility.yul\":11868:11895   */\n      slt\n        /* \"#utility.yul\":11858:11980   */\n      tag_355\n      jumpi\n        /* \"#utility.yul\":11899:11978   */\n      tag_356\n      tag_205\n      jump\t// in\n    tag_356:\n        /* \"#utility.yul\":11858:11980   */\n    tag_355:\n        /* \"#utility.yul\":12016:12022   */\n      dup2\n        /* \"#utility.yul\":12003:12023   */\n      calldataload\n        /* \"#utility.yul\":12041:12120   */\n      tag_357\n        /* \"#utility.yul\":12116:12119   */\n      dup5\n        /* \"#utility.yul\":12108:12114   */\n      dup3\n        /* \"#utility.yul\":12101:12105   */\n      0x20\n        /* \"#utility.yul\":12093:12099   */\n      dup7\n        /* \"#utility.yul\":12089:12106   */\n      add\n        /* \"#utility.yul\":12041:12120   */\n      tag_211\n      jump\t// in\n    tag_357:\n        /* \"#utility.yul\":12032:12120   */\n      swap2\n      pop\n        /* \"#utility.yul\":11848:12126   */\n      pop\n        /* \"#utility.yul\":11786:12126   */\n      swap3\n      swap2\n      pop\n      pop\n      jump\t// out\n        /* \"#utility.yul\":12132:12931   */\n    tag_61:\n        /* \"#utility.yul\":12219:12225   */\n      0x00\n        /* \"#utility.yul\":12227:12233   */\n      dup1\n        /* \"#utility.yul\":12235:12241   */\n      0x00\n        /* \"#utility.yul\":12284:12286   */\n      0x60\n        /* \"#utility.yul\":12272:12281   */\n      dup5\n        /* \"#utility.yul\":12263:12270   */\n      dup7\n        /* \"#utility.yul\":12259:12282   */\n      sub\n        /* \"#utility.yul\":12255:12287   */\n      slt\n        /* \"#utility.yul\":12252:12371   */\n      iszero\n      tag_359\n      jumpi\n        /* \"#utility.yul\":12290:12369   */\n      tag_360\n      tag_176\n      jump\t// in\n    tag_360:\n        /* \"#utility.yul\":12252:12371   */\n    tag_359:\n        /* \"#utility.yul\":12410:12411   */\n      0x00\n        /* \"#utility.yul\":12435:12488   */\n      tag_361\n        /* \"#utility.yul\":12480:12487   */\n      dup7\n        /* \"#utility.yul\":12471:12477   */\n      dup3\n        /* \"#utility.yul\":12460:12469   */\n      dup8\n        /* \"#utility.yul\":12456:12478   */\n      add\n        /* \"#utility.yul\":12435:12488   */\n      tag_181\n      jump\t// in\n    tag_361:\n        /* \"#utility.yul\":12425:12488   */\n      swap4\n      pop\n        /* \"#utility.yul\":12381:12498   */\n      pop\n        /* \"#utility.yul\":12537:12539   */\n      0x20\n        /* \"#utility.yul\":12563:12616   */\n      tag_362\n        /* \"#utility.yul\":12608:12615   */\n      dup7\n        /* \"#utility.yul\":12599:12605   */\n      dup3\n        /* \"#utility.yul\":12588:12597   */\n      dup8\n        /* \"#utility.yul\":12584:12606   */\n      add\n        /* \"#utility.yul\":12563:12616   */\n      tag_181\n      jump\t// in\n    tag_362:\n        /* \"#utility.yul\":12553:12616   */\n      swap3\n      pop\n        /* \"#utility.yul\":12508:12626   */\n      pop\n        /* \"#utility.yul\":12693:12695   */\n      0x40\n        /* \"#utility.yul\":12682:12691   */\n      dup5\n        /* \"#utility.yul\":12678:12696   */\n      add\n        /* \"#utility.yul\":12665:12697   */\n      calldataload\n        /* \"#utility.yul\":12724:12742   */\n      0xffffffffffffffff\n        /* \"#utility.yul\":12716:12722   */\n      dup2\n        /* \"#utility.yul\":12713:12743   */\n      gt\n        /* \"#utility.yul\":12710:12827   */\n      iszero\n      tag_363\n      jumpi\n        /* \"#utility.yul\":12746:12825   */\n      tag_364\n      tag_177\n      jump\t// in\n    tag_364:\n        /* \"#utility.yul\":12710:12827   */\n    tag_363:\n        /* \"#utility.yul\":12851:12914   */\n      tag_365\n        /* \"#utility.yul\":12906:12913   */\n      dup7\n        /* \"#utility.yul\":12897:12903   */\n      dup3\n        /* \"#utility.yul\":12886:12895   */\n      dup8\n        /* \"#utility.yul\":12882:12904   */\n      add\n        /* \"#utility.yul\":12851:12914   */\n      tag_212\n      jump\t// in\n    tag_365:\n        /* \"#utility.yul\":12841:12914   */\n      swap2\n      pop\n        /* \"#utility.yul\":12636:12924   */\n      pop\n        /* \"#utility.yul\":12132:12931   */\n      swap3\n      pop\n      swap3\n      pop\n      swap3\n      jump\t// out\n        /* \"#utility.yul\":12937:13591   */\n    tag_65:\n        /* \"#utility.yul\":13015:13021   */\n      0x00\n        /* \"#utility.yul\":13023:13029   */\n      dup1\n        /* \"#utility.yul\":13072:13074   */\n      0x40\n        /* \"#utility.yul\":13060:13069   */\n      dup4\n        /* \"#utility.yul\":13051:13058   */\n      dup6\n        /* \"#utility.yul\":13047:13070   */\n      sub\n        /* \"#utility.yul\":13043:13075   */\n      slt\n        /* \"#utility.yul\":13040:13159   */\n      iszero\n      tag_367\n      jumpi\n        /* \"#utility.yul\":13078:13157   */\n      tag_368\n      tag_176\n      jump\t// in\n    tag_368:\n        /* \"#utility.yul\":13040:13159   */\n    tag_367:\n        /* \"#utility.yul\":13198:13199   */\n      0x00\n        /* \"#utility.yul\":13223:13276   */\n      tag_369\n        /* \"#utility.yul\":13268:13275   */\n      dup6\n        /* \"#utility.yul\":13259:13265   */\n      dup3\n        /* \"#utility.yul\":13248:13257   */\n      dup7\n        /* \"#utility.yul\":13244:13266   */\n      add\n        /* \"#utility.yul\":13223:13276   */\n      tag_181\n      jump\t// in\n    tag_369:\n        /* \"#utility.yul\":13213:13276   */\n      swap3\n      pop\n        /* \"#utility.yul\":13169:13286   */\n      pop\n        /* \"#utility.yul\":13353:13355   */\n      0x20\n        /* \"#utility.yul\":13342:13351   */\n      dup4\n        /* \"#utility.yul\":13338:13356   */\n      add\n        /* \"#utility.yul\":13325:13357   */\n      calldataload\n        /* \"#utility.yul\":13384:13402   */\n      0xffffffffffffffff\n        /* \"#utility.yul\":13376:13382   */\n      dup2\n        /* \"#utility.yul\":13373:13403   */\n      gt\n        /* \"#utility.yul\":13370:13487   */\n      iszero\n      tag_370\n      jumpi\n        /* \"#utility.yul\":13406:13485   */\n      tag_371\n      tag_177\n      jump\t// in\n    tag_371:\n        /* \"#utility.yul\":13370:13487   */\n    tag_370:\n        /* \"#utility.yul\":13511:13574   */\n      tag_372\n        /* \"#utility.yul\":13566:13573   */\n      dup6\n        /* \"#utility.yul\":13557:13563   */\n      dup3\n        /* \"#utility.yul\":13546:13555   */\n      dup7\n        /* \"#utility.yul\":13542:13564   */\n      add\n        /* \"#utility.yul\":13511:13574   */\n      tag_212\n      jump\t// in\n    tag_372:\n        /* \"#utility.yul\":13501:13574   */\n      swap2\n      pop\n        /* \"#utility.yul\":13296:13584   */\n      pop\n        /* \"#utility.yul\":12937:13591   */\n      swap3\n      pop\n      swap3\n      swap1\n      pop\n      jump\t// out\n        /* \"#utility.yul\":13597:14241   */\n    tag_74:\n        /* \"#utility.yul\":13794:13798   */\n      0x00\n        /* \"#utility.yul\":13832:13835   */\n      0x80\n        /* \"#utility.yul\":13821:13830   */\n      dup3\n        /* \"#utility.yul\":13817:13836   */\n      add\n        /* \"#utility.yul\":13809:13836   */\n      swap1\n      pop\n        /* \"#utility.yul\":13846:13917   */\n      tag_374\n        /* \"#utility.yul\":13914:13915   */\n      0x00\n        /* \"#utility.yul\":13903:13912   */\n      dup4\n        /* \"#utility.yul\":13899:13916   */\n      add\n        /* \"#utility.yul\":13890:13896   */\n      dup8\n        /* \"#utility.yul\":13846:13917   */\n      tag_187\n      jump\t// in\n    tag_374:\n        /* \"#utility.yul\":13927:13999   */\n      tag_375\n        /* \"#utility.yul\":13995:13997   */\n      0x20\n        /* \"#utility.yul\":13984:13993   */\n      dup4\n        /* \"#utility.yul\":13980:13998   */\n      add\n        /* \"#utility.yul\":13971:13977   */\n      dup7\n        /* \"#utility.yul\":13927:13999   */\n      tag_193\n      jump\t// in\n    tag_375:\n        /* \"#utility.yul\":14046:14055   */\n      dup2\n        /* \"#utility.yul\":14040:14044   */\n      dup2\n        /* \"#utility.yul\":14036:14056   */\n      sub\n        /* \"#utility.yul\":14031:14033   */\n      0x40\n        /* \"#utility.yul\":14020:14029   */\n      dup4\n        /* \"#utility.yul\":14016:14034   */\n      add\n        /* \"#utility.yul\":14009:14057   */\n      mstore\n        /* \"#utility.yul\":14074:14152   */\n      tag_376\n        /* \"#utility.yul\":14147:14151   */\n      dup2\n        /* \"#utility.yul\":14138:14144   */\n      dup6\n        /* \"#utility.yul\":14074:14152   */\n      tag_192\n      jump\t// in\n    tag_376:\n        /* \"#utility.yul\":14066:14152   */\n      swap1\n      pop\n        /* \"#utility.yul\":14162:14234   */\n      tag_377\n        /* \"#utility.yul\":14230:14232   */\n      0x60\n        /* \"#utility.yul\":14219:14228   */\n      dup4\n        /* \"#utility.yul\":14215:14233   */\n      add\n        /* \"#utility.yul\":14206:14212   */\n      dup5\n        /* \"#utility.yul\":14162:14234   */\n      tag_187\n      jump\t// in\n    tag_377:\n        /* \"#utility.yul\":13597:14241   */\n      swap6\n      swap5\n      pop\n      pop\n      pop\n      pop\n      pop\n      jump\t// out\n        /* \"#utility.yul\":14247:14756   */\n    tag_77:\n        /* \"#utility.yul\":14316:14322   */\n      0x00\n        /* \"#utility.yul\":14365:14367   */\n      0x20\n        /* \"#utility.yul\":14353:14362   */\n      dup3\n        /* \"#utility.yul\":14344:14351   */\n      dup5\n        /* \"#utility.yul\":14340:14363   */\n      sub\n        /* \"#utility.yul\":14336:14368   */\n      slt\n        /* \"#utility.yul\":14333:14452   */\n      iszero\n      tag_379\n      jumpi\n        /* \"#utility.yul\":14371:14450   */\n      tag_380\n      tag_176\n      jump\t// in\n    tag_380:\n        /* \"#utility.yul\":14333:14452   */\n    tag_379:\n        /* \"#utility.yul\":14519:14520   */\n      0x00\n        /* \"#utility.yul\":14508:14517   */\n      dup3\n        /* \"#utility.yul\":14504:14521   */\n      add\n        /* \"#utility.yul\":14491:14522   */\n      calldataload\n        /* \"#utility.yul\":14549:14567   */\n      0xffffffffffffffff\n        /* \"#utility.yul\":14541:14547   */\n      dup2\n        /* \"#utility.yul\":14538:14568   */\n      gt\n        /* \"#utility.yul\":14535:14652   */\n      iszero\n      tag_381\n      jumpi\n        /* \"#utility.yul\":14571:14650   */\n      tag_382\n      tag_177\n      jump\t// in\n    tag_382:\n        /* \"#utility.yul\":14535:14652   */\n    tag_381:\n        /* \"#utility.yul\":14676:14739   */\n      tag_383\n        /* \"#utility.yul\":14731:14738   */\n      dup5\n        /* \"#utility.yul\":14722:14728   */\n      dup3\n        /* \"#utility.yul\":14711:14720   */\n      dup6\n        /* \"#utility.yul\":14707:14729   */\n      add\n        /* \"#utility.yul\":14676:14739   */\n      tag_212\n      jump\t// in\n    tag_383:\n        /* \"#utility.yul\":14666:14739   */\n      swap2\n      pop\n        /* \"#utility.yul\":14462:14749   */\n      pop\n        /* \"#utility.yul\":14247:14756   */\n      swap3\n      swap2\n      pop\n      pop\n      jump\t// out\n        /* \"#utility.yul\":14762:14942   */\n    tag_213:\n        /* \"#utility.yul\":14810:14887   */\n      0x4e487b7100000000000000000000000000000000000000000000000000000000\n        /* \"#utility.yul\":14807:14808   */\n      0x00\n        /* \"#utility.yul\":14800:14888   */\n      mstore\n        /* \"#utility.yul\":14907:14911   */\n      0x22\n        /* \"#utility.yul\":14904:14905   */\n      0x04\n        /* \"#utility.yul\":14897:14912   */\n      mstore\n        /* \"#utility.yul\":14931:14935   */\n      0x24\n        /* \"#utility.yul\":14928:14929   */\n      0x00\n        /* \"#utility.yul\":14921:14936   */\n      revert\n        /* \"#utility.yul\":14948:15268   */\n    tag_85:\n        /* \"#utility.yul\":14992:14998   */\n      0x00\n        /* \"#utility.yul\":15029:15030   */\n      0x02\n        /* \"#utility.yul\":15023:15027   */\n      dup3\n        /* \"#utility.yul\":15019:15031   */\n      div\n        /* \"#utility.yul\":15009:15031   */\n      swap1\n      pop\n        /* \"#utility.yul\":15076:15077   */\n      0x01\n        /* \"#utility.yul\":15070:15074   */\n      dup3\n        /* \"#utility.yul\":15066:15078   */\n      and\n        /* \"#utility.yul\":15097:15115   */\n      dup1\n        /* \"#utility.yul\":15087:15168   */\n      tag_386\n      jumpi\n        /* \"#utility.yul\":15153:15157   */\n      0x7f\n        /* \"#utility.yul\":15145:15151   */\n      dup3\n        /* \"#utility.yul\":15141:15158   */\n      and\n        /* \"#utility.yul\":15131:15158   */\n      swap2\n      pop\n        /* \"#utility.yul\":15087:15168   */\n    tag_386:\n        /* \"#utility.yul\":15215:15217   */\n      0x20\n        /* \"#utility.yul\":15207:15213   */\n      dup3\n        /* \"#utility.yul\":15204:15218   */\n      lt\n        /* \"#utility.yul\":15184:15202   */\n      dup2\n        /* \"#utility.yul\":15181:15219   */\n      sub\n        /* \"#utility.yul\":15178:15262   */\n      tag_387\n      jumpi\n        /* \"#utility.yul\":15234:15252   */\n      tag_388\n      tag_213\n      jump\t// in\n    tag_388:\n        /* \"#utility.yul\":15178:15262   */\n    tag_387:\n        /* \"#utility.yul\":14999:15268   */\n      pop\n        /* \"#utility.yul\":14948:15268   */\n      swap2\n      swap1\n      pop\n      jump\t// out\n        /* \"#utility.yul\":15274:15443   */\n    tag_214:\n        /* \"#utility.yul\":15414:15435   */\n      0x436f756e74206973206e6f742070726f70657200000000000000000000000000\n        /* \"#utility.yul\":15410:15411   */\n      0x00\n        /* \"#utility.yul\":15402:15408   */\n      dup3\n        /* \"#utility.yul\":15398:15412   */\n      add\n        /* \"#utility.yul\":15391:15436   */\n      mstore\n        /* \"#utility.yul\":15274:15443   */\n      pop\n      jump\t// out\n        /* \"#utility.yul\":15449:15815   */\n    tag_215:\n        /* \"#utility.yul\":15591:15594   */\n      0x00\n        /* \"#utility.yul\":15612:15679   */\n      tag_391\n        /* \"#utility.yul\":15676:15678   */\n      0x13\n        /* \"#utility.yul\":15671:15674   */\n      dup4\n        /* \"#utility.yul\":15612:15679   */\n      tag_189\n      jump\t// in\n    tag_391:\n        /* \"#utility.yul\":15605:15679   */\n      swap2\n      pop\n        /* \"#utility.yul\":15688:15781   */\n      tag_392\n        /* \"#utility.yul\":15777:15780   */\n      dup3\n        /* \"#utility.yul\":15688:15781   */\n      tag_214\n      jump\t// in\n    tag_392:\n        /* \"#utility.yul\":15806:15808   */\n      0x20\n        /* \"#utility.yul\":15801:15804   */\n      dup3\n        /* \"#utility.yul\":15797:15809   */\n      add\n        /* \"#utility.yul\":15790:15809   */\n      swap1\n      pop\n        /* \"#utility.yul\":15449:15815   */\n      swap2\n      swap1\n      pop\n      jump\t// out\n        /* \"#utility.yul\":15821:16240   */\n    tag_96:\n        /* \"#utility.yul\":15987:15991   */\n      0x00\n        /* \"#utility.yul\":16025:16027   */\n      0x20\n        /* \"#utility.yul\":16014:16023   */\n      dup3\n        /* \"#utility.yul\":16010:16028   */\n      add\n        /* \"#utility.yul\":16002:16028   */\n      swap1\n      pop\n        /* \"#utility.yul\":16074:16083   */\n      dup2\n        /* \"#utility.yul\":16068:16072   */\n      dup2\n        /* \"#utility.yul\":16064:16084   */\n      sub\n        /* \"#utility.yul\":16060:16061   */\n      0x00\n        /* \"#utility.yul\":16049:16058   */\n      dup4\n        /* \"#utility.yul\":16045:16062   */\n      add\n        /* \"#utility.yul\":16038:16085   */\n      mstore\n        /* \"#utility.yul\":16102:16233   */\n      tag_394\n        /* \"#utility.yul\":16228:16232   */\n      dup2\n        /* \"#utility.yul\":16102:16233   */\n      tag_215\n      jump\t// in\n    tag_394:\n        /* \"#utility.yul\":16094:16233   */\n      swap1\n      pop\n        /* \"#utility.yul\":15821:16240   */\n      swap2\n      swap1\n      pop\n      jump\t// out\n        /* \"#utility.yul\":16246:16426   */\n    tag_216:\n        /* \"#utility.yul\":16294:16371   */\n      0x4e487b7100000000000000000000000000000000000000000000000000000000\n        /* \"#utility.yul\":16291:16292   */\n      0x00\n        /* \"#utility.yul\":16284:16372   */\n      mstore\n        /* \"#utility.yul\":16391:16395   */\n      0x11\n        /* \"#utility.yul\":16388:16389   */\n      0x04\n        /* \"#utility.yul\":16381:16396   */\n      mstore\n        /* \"#utility.yul\":16415:16419   */\n      0x24\n        /* \"#utility.yul\":16412:16413   */\n      0x00\n        /* \"#utility.yul\":16405:16420   */\n      revert\n        /* \"#utility.yul\":16432:16626   */\n    tag_108:\n        /* \"#utility.yul\":16472:16476   */\n      0x00\n        /* \"#utility.yul\":16492:16512   */\n      tag_397\n        /* \"#utility.yul\":16510:16511   */\n      dup3\n        /* \"#utility.yul\":16492:16512   */\n      tag_184\n      jump\t// in\n    tag_397:\n        /* \"#utility.yul\":16487:16512   */\n      swap2\n      pop\n        /* \"#utility.yul\":16526:16546   */\n      tag_398\n        /* \"#utility.yul\":16544:16545   */\n      dup4\n        /* \"#utility.yul\":16526:16546   */\n      tag_184\n      jump\t// in\n    tag_398:\n        /* \"#utility.yul\":16521:16546   */\n      swap3\n      pop\n        /* \"#utility.yul\":16570:16571   */\n      dup3\n        /* \"#utility.yul\":16567:16568   */\n      dup3\n        /* \"#utility.yul\":16563:16572   */\n      sub\n        /* \"#utility.yul\":16555:16572   */\n      swap1\n      pop\n        /* \"#utility.yul\":16594:16595   */\n      dup2\n        /* \"#utility.yul\":16588:16592   */\n      dup2\n        /* \"#utility.yul\":16585:16596   */\n      gt\n        /* \"#utility.yul\":16582:16619   */\n      iszero\n      tag_399\n      jumpi\n        /* \"#utility.yul\":16599:16617   */\n      tag_400\n      tag_216\n      jump\t// in\n    tag_400:\n        /* \"#utility.yul\":16582:16619   */\n    tag_399:\n        /* \"#utility.yul\":16432:16626   */\n      swap3\n      swap2\n      pop\n      pop\n      jump\t// out\n        /* \"#utility.yul\":16632:16812   */\n    tag_116:\n        /* \"#utility.yul\":16680:16757   */\n      0x4e487b7100000000000000000000000000000000000000000000000000000000\n        /* \"#utility.yul\":16677:16678   */\n      0x00\n        /* \"#utility.yul\":16670:16758   */\n      mstore\n        /* \"#utility.yul\":16777:16781   */\n      0x32\n        /* \"#utility.yul\":16774:16775   */\n      0x04\n        /* \"#utility.yul\":16767:16782   */\n      mstore\n        /* \"#utility.yul\":16801:16805   */\n      0x24\n        /* \"#utility.yul\":16798:16799   */\n      0x00\n        /* \"#utility.yul\":16791:16806   */\n      revert\n        /* \"#utility.yul\":16818:17051   */\n    tag_118:\n        /* \"#utility.yul\":16857:16860   */\n      0x00\n        /* \"#utility.yul\":16880:16904   */\n      tag_403\n        /* \"#utility.yul\":16898:16903   */\n      dup3\n        /* \"#utility.yul\":16880:16904   */\n      tag_184\n      jump\t// in\n    tag_403:\n        /* \"#utility.yul\":16871:16904   */\n      swap2\n      pop\n        /* \"#utility.yul\":16926:16992   */\n      0xffffffffffffffffffffffffffffffffffffffffffffffffffffffffffffffff\n        /* \"#utility.yul\":16919:16924   */\n      dup3\n        /* \"#utility.yul\":16916:16993   */\n      sub\n        /* \"#utility.yul\":16913:17016   */\n      tag_404\n      jumpi\n        /* \"#utility.yul\":16996:17014   */\n      tag_405\n      tag_216\n      jump\t// in\n    tag_405:\n        /* \"#utility.yul\":16913:17016   */\n    tag_404:\n        /* \"#utility.yul\":17043:17044   */\n      0x01\n        /* \"#utility.yul\":17036:17041   */\n      dup3\n        /* \"#utility.yul\":17032:17045   */\n      add\n        /* \"#utility.yul\":17025:17045   */\n      swap1\n      pop\n        /* \"#utility.yul\":16818:17051   */\n      swap2\n      swap1\n      pop\n      jump\t// out\n        /* \"#utility.yul\":17057:17223   */\n    tag_217:\n        /* \"#utility.yul\":17197:17215   */\n      0x4e6f7420612076616c6964207573657200000000000000000000000000000000\n        /* \"#utility.yul\":17193:17194   */\n      0x00\n        /* \"#utility.yul\":17185:17191   */\n      dup3\n        /* \"#utility.yul\":17181:17195   */\n      add\n        /* \"#utility.yul\":17174:17216   */\n      mstore\n        /* \"#utility.yul\":17057:17223   */\n      pop\n      jump\t// out\n        /* \"#utility.yul\":17229:17595   */\n    tag_218:\n        /* \"#utility.yul\":17371:17374   */\n      0x00\n        /* \"#utility.yul\":17392:17459   */\n      tag_408\n        /* \"#utility.yul\":17456:17458   */\n      0x10\n        /* \"#utility.yul\":17451:17454   */\n      dup4\n        /* \"#utility.yul\":17392:17459   */\n      tag_189\n      jump\t// in\n    tag_408:\n        /* \"#utility.yul\":17385:17459   */\n      swap2\n      pop\n        /* \"#utility.yul\":17468:17561   */\n      tag_409\n        /* \"#utility.yul\":17557:17560   */\n      dup3\n        /* \"#utility.yul\":17468:17561   */\n      tag_217\n      jump\t// in\n    tag_409:\n        /* \"#utility.yul\":17586:17588   */\n      0x20\n        /* \"#utility.yul\":17581:17584   */\n      dup3\n        /* \"#utility.yul\":17577:17589   */\n      add\n        /* \"#utility.yul\":17570:17589   */\n      swap1\n      pop\n        /* \"#utility.yul\":17229:17595   */\n      swap2\n      swap1\n      pop\n      jump\t// out\n        /* \"#utility.yul\":17601:18020   */\n    tag_164:\n        /* \"#utility.yul\":17767:17771   */\n      0x00\n        /* \"#utility.yul\":17805:17807   */\n      0x20\n        /* \"#utility.yul\":17794:17803   */\n      dup3\n        /* \"#utility.yul\":17790:17808   */\n      add\n        /* \"#utility.yul\":17782:17808   */\n      swap1\n      pop\n        /* \"#utility.yul\":17854:17863   */\n      dup2\n        /* \"#utility.yul\":17848:17852   */\n      dup2\n        /* \"#utility.yul\":17844:17864   */\n      sub\n        /* \"#utility.yul\":17840:17841   */\n      0x00\n        /* \"#utility.yul\":17829:17838   */\n      dup4\n        /* \"#utility.yul\":17825:17842   */\n      add\n        /* \"#utility.yul\":17818:17865   */\n      mstore\n        /* \"#utility.yul\":17882:18013   */\n      tag_411\n        /* \"#utility.yul\":18008:18012   */\n      dup2\n        /* \"#utility.yul\":17882:18013   */\n      tag_218\n      jump\t// in\n    tag_411:\n        /* \"#utility.yul\":17874:18013   */\n      swap1\n      pop\n        /* \"#utility.yul\":17601:18020   */\n      swap2\n      swap1\n      pop\n      jump\t// out\n        /* \"#utility.yul\":18026:18167   */\n    tag_219:\n        /* \"#utility.yul\":18075:18079   */\n      0x00\n        /* \"#utility.yul\":18098:18101   */\n      dup2\n        /* \"#utility.yul\":18090:18101   */\n      swap1\n      pop\n        /* \"#utility.yul\":18121:18124   */\n      dup2\n        /* \"#utility.yul\":18118:18119   */\n      0x00\n        /* \"#utility.yul\":18111:18125   */\n      mstore\n        /* \"#utility.yul\":18155:18159   */\n      0x20\n        /* \"#utility.yul\":18152:18153   */\n      0x00\n        /* \"#utility.yul\":18142:18160   */\n      keccak256\n        /* \"#utility.yul\":18134:18160   */\n      swap1\n      pop\n        /* \"#utility.yul\":18026:18167   */\n      swap2\n      swap1\n      pop\n      jump\t// out\n        /* \"#utility.yul\":18173:18266   */\n    tag_220:\n        /* \"#utility.yul\":18210:18216   */\n      0x00\n        /* \"#utility.yul\":18257:18259   */\n      0x20\n        /* \"#utility.yul\":18252:18254   */\n      0x1f\n        /* \"#utility.yul\":18245:18250   */\n      dup4\n        /* \"#utility.yul\":18241:18255   */\n      add\n        /* \"#utility.yul\":18237:18260   */\n      div\n        /* \"#utility.yul\":18227:18260   */\n      swap1\n      pop\n        /* \"#utility.yul\":18173:18266   */\n      swap2\n      swap1\n      pop\n      jump\t// out\n        /* \"#utility.yul\":18272:18379   */\n    tag_221:\n        /* \"#utility.yul\":18316:18324   */\n      0x00\n        /* \"#utility.yul\":18366:18371   */\n      dup3\n        /* \"#utility.yul\":18360:18364   */\n      dup3\n        /* \"#utility.yul\":18356:18372   */\n      shl\n        /* \"#utility.yul\":18335:18372   */\n      swap1\n      pop\n        /* \"#utility.yul\":18272:18379   */\n      swap3\n      swap2\n      pop\n      pop\n      jump\t// out\n        /* \"#utility.yul\":18385:18778   */\n    tag_222:\n        /* \"#utility.yul\":18454:18460   */\n      0x00\n        /* \"#utility.yul\":18504:18505   */\n      0x08\n        /* \"#utility.yul\":18492:18502   */\n      dup4\n        /* \"#utility.yul\":18488:18506   */\n      mul\n        /* \"#utility.yul\":18527:18624   */\n      tag_416\n        /* \"#utility.yul\":18557:18623   */\n      0xffffffffffffffffffffffffffffffffffffffffffffffffffffffffffffffff\n        /* \"#utility.yul\":18546:18555   */\n      dup3\n        /* \"#utility.yul\":18527:18624   */\n      tag_221\n      jump\t// in\n    tag_416:\n        /* \"#utility.yul\":18645:18684   */\n      tag_417\n        /* \"#utility.yul\":18675:18683   */\n      dup7\n        /* \"#utility.yul\":18664:18673   */\n      dup4\n        /* \"#utility.yul\":18645:18684   */\n      tag_221\n      jump\t// in\n    tag_417:\n        /* \"#utility.yul\":18633:18684   */\n      swap6\n      pop\n        /* \"#utility.yul\":18717:18721   */\n      dup1\n        /* \"#utility.yul\":18713:18722   */\n      not\n        /* \"#utility.yul\":18706:18711   */\n      dup5\n        /* \"#utility.yul\":18702:18723   */\n      and\n        /* \"#utility.yul\":18693:18723   */\n      swap4\n      pop\n        /* \"#utility.yul\":18766:18770   */\n      dup1\n        /* \"#utility.yul\":18756:18764   */\n      dup7\n        /* \"#utility.yul\":18752:18771   */\n      and\n        /* \"#utility.yul\":18745:18750   */\n      dup5\n        /* \"#utility.yul\":18742:18772   */\n      or\n        /* \"#utility.yul\":18732:18772   */\n      swap3\n      pop\n        /* \"#utility.yul\":18461:18778   */\n      pop\n      pop\n        /* \"#utility.yul\":18385:18778   */\n      swap4\n      swap3\n      pop\n      pop\n      pop\n      jump\t// out\n        /* \"#utility.yul\":18784:18844   */\n    tag_223:\n        /* \"#utility.yul\":18812:18815   */\n      0x00\n        /* \"#utility.yul\":18833:18838   */\n      dup2\n        /* \"#utility.yul\":18826:18838   */\n      swap1\n      pop\n        /* \"#utility.yul\":18784:18844   */\n      swap2\n      swap1\n      pop\n      jump\t// out\n        /* \"#utility.yul\":18850:18992   */\n    tag_224:\n        /* \"#utility.yul\":18900:18909   */\n      0x00\n        /* \"#utility.yul\":18933:18986   */\n      tag_420\n        /* \"#utility.yul\":18951:18985   */\n      tag_421\n        /* \"#utility.yul\":18960:18984   */\n      tag_422\n        /* \"#utility.yul\":18978:18983   */\n      dup5\n        /* \"#utility.yul\":18960:18984   */\n      tag_184\n      jump\t// in\n    tag_422:\n        /* \"#utility.yul\":18951:18985   */\n      tag_223\n      jump\t// in\n    tag_421:\n        /* \"#utility.yul\":18933:18986   */\n      tag_184\n      jump\t// in\n    tag_420:\n        /* \"#utility.yul\":18920:18986   */\n      swap1\n      pop\n        /* \"#utility.yul\":18850:18992   */\n      swap2\n      swap1\n      pop\n      jump\t// out\n        /* \"#utility.yul\":18998:19073   */\n    tag_225:\n        /* \"#utility.yul\":19041:19044   */\n      0x00\n        /* \"#utility.yul\":19062:19067   */\n      dup2\n        /* \"#utility.yul\":19055:19067   */\n      swap1\n      pop\n        /* \"#utility.yul\":18998:19073   */\n      swap2\n      swap1\n      pop\n      jump\t// out\n        /* \"#utility.yul\":19079:19348   */\n    tag_226:\n        /* \"#utility.yul\":19189:19228   */\n      tag_425\n        /* \"#utility.yul\":19220:19227   */\n      dup4\n        /* \"#utility.yul\":19189:19228   */\n      tag_224\n      jump\t// in\n    tag_425:\n        /* \"#utility.yul\":19250:19341   */\n      tag_426\n        /* \"#utility.yul\":19299:19340   */\n      tag_427\n        /* \"#utility.yul\":19323:19339   */\n      dup3\n        /* \"#utility.yul\":19299:19340   */\n      tag_225\n      jump\t// in\n    tag_427:\n        /* \"#utility.yul\":19291:19297   */\n      dup5\n        /* \"#utility.yul\":19284:19288   */\n      dup5\n        /* \"#utility.yul\":19278:19289   */\n      sload\n        /* \"#utility.yul\":19250:19341   */\n      tag_222\n      jump\t// in\n    tag_426:\n        /* \"#utility.yul\":19244:19248   */\n      dup3\n        /* \"#utility.yul\":19237:19342   */\n      sstore\n        /* \"#utility.yul\":19155:19348   */\n      pop\n        /* \"#utility.yul\":19079:19348   */\n      pop\n      pop\n      pop\n      jump\t// out\n        /* \"#utility.yul\":19354:19427   */\n    tag_227:\n        /* \"#utility.yul\":19399:19402   */\n      0x00\n        /* \"#utility.yul\":19354:19427   */\n      swap1\n      jump\t// out\n        /* \"#utility.yul\":19433:19622   */\n    tag_228:\n        /* \"#utility.yul\":19510:19542   */\n      tag_430\n      tag_227\n      jump\t// in\n    tag_430:\n        /* \"#utility.yul\":19551:19616   */\n      tag_431\n        /* \"#utility.yul\":19609:19615   */\n      dup2\n        /* \"#utility.yul\":19601:19607   */\n      dup5\n        /* \"#utility.yul\":19595:19599   */\n      dup5\n        /* \"#utility.yul\":19551:19616   */\n      tag_226\n      jump\t// in\n    tag_431:\n        /* \"#utility.yul\":19486:19622   */\n      pop\n        /* \"#utility.yul\":19433:19622   */\n      pop\n      pop\n      jump\t// out\n        /* \"#utility.yul\":19628:19814   */\n    tag_229:\n        /* \"#utility.yul\":19688:19808   */\n    tag_433:\n        /* \"#utility.yul\":19705:19708   */\n      dup2\n        /* \"#utility.yul\":19698:19703   */\n      dup2\n        /* \"#utility.yul\":19695:19709   */\n      lt\n        /* \"#utility.yul\":19688:19808   */\n      iszero\n      tag_435\n      jumpi\n        /* \"#utility.yul\":19759:19798   */\n      tag_436\n        /* \"#utility.yul\":19796:19797   */\n      0x00\n        /* \"#utility.yul\":19789:19794   */\n      dup3\n        /* \"#utility.yul\":19759:19798   */\n      tag_228\n      jump\t// in\n    tag_436:\n        /* \"#utility.yul\":19732:19733   */\n      0x01\n        /* \"#utility.yul\":19725:19730   */\n      dup2\n        /* \"#utility.yul\":19721:19734   */\n      add\n        /* \"#utility.yul\":19712:19734   */\n      swap1\n      pop\n        /* \"#utility.yul\":19688:19808   */\n      jump(tag_433)\n    tag_435:\n        /* \"#utility.yul\":19628:19814   */\n      pop\n      pop\n      jump\t// out\n        /* \"#utility.yul\":19820:20363   */\n    tag_230:\n        /* \"#utility.yul\":19921:19923   */\n      0x1f\n        /* \"#utility.yul\":19916:19919   */\n      dup3\n        /* \"#utility.yul\":19913:19924   */\n      gt\n        /* \"#utility.yul\":19910:20356   */\n      iszero\n      tag_438\n      jumpi\n        /* \"#utility.yul\":19955:19993   */\n      tag_439\n        /* \"#utility.yul\":19987:19992   */\n      dup2\n        /* \"#utility.yul\":19955:19993   */\n      tag_219\n      jump\t// in\n    tag_439:\n        /* \"#utility.yul\":20039:20068   */\n      tag_440\n        /* \"#utility.yul\":20057:20067   */\n      dup5\n        /* \"#utility.yul\":20039:20068   */\n      tag_220\n      jump\t// in\n    tag_440:\n        /* \"#utility.yul\":20029:20037   */\n      dup2\n        /* \"#utility.yul\":20025:20069   */\n      add\n        /* \"#utility.yul\":20222:20224   */\n      0x20\n        /* \"#utility.yul\":20210:20220   */\n      dup6\n        /* \"#utility.yul\":20207:20225   */\n      lt\n        /* \"#utility.yul\":20204:20253   */\n      iszero\n      tag_441\n      jumpi\n        /* \"#utility.yul\":20243:20251   */\n      dup2\n        /* \"#utility.yul\":20228:20251   */\n      swap1\n      pop\n        /* \"#utility.yul\":20204:20253   */\n    tag_441:\n        /* \"#utility.yul\":20266:20346   */\n      tag_442\n        /* \"#utility.yul\":20322:20344   */\n      tag_443\n        /* \"#utility.yul\":20340:20343   */\n      dup6\n        /* \"#utility.yul\":20322:20344   */\n      tag_220\n      jump\t// in\n    tag_443:\n        /* \"#utility.yul\":20312:20320   */\n      dup4\n        /* \"#utility.yul\":20308:20345   */\n      add\n        /* \"#utility.yul\":20295:20306   */\n      dup3\n        /* \"#utility.yul\":20266:20346   */\n      tag_229\n      jump\t// in\n    tag_442:\n        /* \"#utility.yul\":19925:20356   */\n      pop\n      pop\n        /* \"#utility.yul\":19910:20356   */\n    tag_438:\n        /* \"#utility.yul\":19820:20363   */\n      pop\n      pop\n      pop\n      jump\t// out\n        /* \"#utility.yul\":20369:20486   */\n    tag_231:\n        /* \"#utility.yul\":20423:20431   */\n      0x00\n        /* \"#utility.yul\":20473:20478   */\n      dup3\n        /* \"#utility.yul\":20467:20471   */\n      dup3\n        /* \"#utility.yul\":20463:20479   */\n      shr\n        /* \"#utility.yul\":20442:20479   */\n      swap1\n      pop\n        /* \"#utility.yul\":20369:20486   */\n      swap3\n      swap2\n      pop\n      pop\n      jump\t// out\n        /* \"#utility.yul\":20492:20661   */\n    tag_232:\n        /* \"#utility.yul\":20536:20542   */\n      0x00\n        /* \"#utility.yul\":20569:20620   */\n      tag_446\n        /* \"#utility.yul\":20617:20618   */\n      0x00\n        /* \"#utility.yul\":20613:20619   */\n      not\n        /* \"#utility.yul\":20605:20610   */\n      dup5\n        /* \"#utility.yul\":20602:20603   */\n      0x08\n        /* \"#utility.yul\":20598:20611   */\n      mul\n        /* \"#utility.yul\":20569:20620   */\n      tag_231\n      jump\t// in\n    tag_446:\n        /* \"#utility.yul\":20565:20621   */\n      not\n        /* \"#utility.yul\":20650:20654   */\n      dup1\n        /* \"#utility.yul\":20644:20648   */\n      dup4\n        /* \"#utility.yul\":20640:20655   */\n      and\n        /* \"#utility.yul\":20630:20655   */\n      swap2\n      pop\n        /* \"#utility.yul\":20543:20661   */\n      pop\n        /* \"#utility.yul\":20492:20661   */\n      swap3\n      swap2\n      pop\n      pop\n      jump\t// out\n        /* \"#utility.yul\":20666:20961   */\n    tag_233:\n        /* \"#utility.yul\":20742:20746   */\n      0x00\n        /* \"#utility.yul\":20888:20917   */\n      tag_448\n        /* \"#utility.yul\":20913:20916   */\n      dup4\n        /* \"#utility.yul\":20907:20911   */\n      dup4\n        /* \"#utility.yul\":20888:20917   */\n      tag_232\n      jump\t// in\n    tag_448:\n        /* \"#utility.yul\":20880:20917   */\n      swap2\n      pop\n        /* \"#utility.yul\":20950:20953   */\n      dup3\n        /* \"#utility.yul\":20947:20948   */\n      0x02\n        /* \"#utility.yul\":20943:20954   */\n      mul\n        /* \"#utility.yul\":20937:20941   */\n      dup3\n        /* \"#utility.yul\":20934:20955   */\n      or\n        /* \"#utility.yul\":20926:20955   */\n      swap1\n      pop\n        /* \"#utility.yul\":20666:20961   */\n      swap3\n      swap2\n      pop\n      pop\n      jump\t// out\n        /* \"#utility.yul\":20966:22361   */\n    tag_167:\n        /* \"#utility.yul\":21083:21120   */\n      tag_450\n        /* \"#utility.yul\":21116:21119   */\n      dup3\n        /* \"#utility.yul\":21083:21120   */\n      tag_188\n      jump\t// in\n    tag_450:\n        /* \"#utility.yul\":21185:21203   */\n      0xffffffffffffffff\n        /* \"#utility.yul\":21177:21183   */\n      dup2\n        /* \"#utility.yul\":21174:21204   */\n      gt\n        /* \"#utility.yul\":21171:21227   */\n      iszero\n      tag_451\n      jumpi\n        /* \"#utility.yul\":21207:21225   */\n      tag_452\n      tag_99\n      jump\t// in\n    tag_452:\n        /* \"#utility.yul\":21171:21227   */\n    tag_451:\n        /* \"#utility.yul\":21251:21289   */\n      tag_453\n        /* \"#utility.yul\":21283:21287   */\n      dup3\n        /* \"#utility.yul\":21277:21288   */\n      sload\n        /* \"#utility.yul\":21251:21289   */\n      tag_85\n      jump\t// in\n    tag_453:\n        /* \"#utility.yul\":21336:21403   */\n      tag_454\n        /* \"#utility.yul\":21396:21402   */\n      dup3\n        /* \"#utility.yul\":21388:21394   */\n      dup3\n        /* \"#utility.yul\":21382:21386   */\n      dup6\n        /* \"#utility.yul\":21336:21403   */\n      tag_230\n      jump\t// in\n    tag_454:\n        /* \"#utility.yul\":21430:21431   */\n      0x00\n        /* \"#utility.yul\":21454:21458   */\n      0x20\n        /* \"#utility.yul\":21441:21458   */\n      swap1\n      pop\n        /* \"#utility.yul\":21486:21488   */\n      0x1f\n        /* \"#utility.yul\":21478:21484   */\n      dup4\n        /* \"#utility.yul\":21475:21489   */\n      gt\n        /* \"#utility.yul\":21503:21504   */\n      0x01\n        /* \"#utility.yul\":21498:22116   */\n      dup2\n      eq\n      tag_456\n      jumpi\n        /* \"#utility.yul\":22160:22161   */\n      0x00\n        /* \"#utility.yul\":22177:22183   */\n      dup5\n        /* \"#utility.yul\":22174:22251   */\n      iszero\n      tag_457\n      jumpi\n        /* \"#utility.yul\":22226:22235   */\n      dup3\n        /* \"#utility.yul\":22221:22224   */\n      dup8\n        /* \"#utility.yul\":22217:22236   */\n      add\n        /* \"#utility.yul\":22211:22237   */\n      mload\n        /* \"#utility.yul\":22202:22237   */\n      swap1\n      pop\n        /* \"#utility.yul\":22174:22251   */\n    tag_457:\n        /* \"#utility.yul\":22277:22344   */\n      tag_458\n        /* \"#utility.yul\":22337:22343   */\n      dup6\n        /* \"#utility.yul\":22330:22335   */\n      dup3\n        /* \"#utility.yul\":22277:22344   */\n      tag_233\n      jump\t// in\n    tag_458:\n        /* \"#utility.yul\":22271:22275   */\n      dup7\n        /* \"#utility.yul\":22264:22345   */\n      sstore\n        /* \"#utility.yul\":22133:22355   */\n      pop\n        /* \"#utility.yul\":21468:22355   */\n      jump(tag_455)\n        /* \"#utility.yul\":21498:22116   */\n    tag_456:\n        /* \"#utility.yul\":21550:21554   */\n      0x1f\n        /* \"#utility.yul\":21546:21555   */\n      not\n        /* \"#utility.yul\":21538:21544   */\n      dup5\n        /* \"#utility.yul\":21534:21556   */\n      and\n        /* \"#utility.yul\":21584:21621   */\n      tag_459\n        /* \"#utility.yul\":21616:21620   */\n      dup7\n        /* \"#utility.yul\":21584:21621   */\n      tag_219\n      jump\t// in\n    tag_459:\n        /* \"#utility.yul\":21643:21644   */\n      0x00\n        /* \"#utility.yul\":21657:21865   */\n    tag_460:\n        /* \"#utility.yul\":21671:21678   */\n      dup3\n        /* \"#utility.yul\":21668:21669   */\n      dup2\n        /* \"#utility.yul\":21665:21679   */\n      lt\n        /* \"#utility.yul\":21657:21865   */\n      iszero\n      tag_462\n      jumpi\n        /* \"#utility.yul\":21750:21759   */\n      dup5\n        /* \"#utility.yul\":21745:21748   */\n      dup10\n        /* \"#utility.yul\":21741:21760   */\n      add\n        /* \"#utility.yul\":21735:21761   */\n      mload\n        /* \"#utility.yul\":21727:21733   */\n      dup3\n        /* \"#utility.yul\":21720:21762   */\n      sstore\n        /* \"#utility.yul\":21801:21802   */\n      0x01\n        /* \"#utility.yul\":21793:21799   */\n      dup3\n        /* \"#utility.yul\":21789:21803   */\n      add\n        /* \"#utility.yul\":21779:21803   */\n      swap2\n      pop\n        /* \"#utility.yul\":21848:21850   */\n      0x20\n        /* \"#utility.yul\":21837:21846   */\n      dup6\n        /* \"#utility.yul\":21833:21851   */\n      add\n        /* \"#utility.yul\":21820:21851   */\n      swap5\n      pop\n        /* \"#utility.yul\":21694:21698   */\n      0x20\n        /* \"#utility.yul\":21691:21692   */\n      dup2\n        /* \"#utility.yul\":21687:21699   */\n      add\n        /* \"#utility.yul\":21682:21699   */\n      swap1\n      pop\n        /* \"#utility.yul\":21657:21865   */\n      jump(tag_460)\n    tag_462:\n        /* \"#utility.yul\":21893:21899   */\n      dup7\n        /* \"#utility.yul\":21884:21891   */\n      dup4\n        /* \"#utility.yul\":21881:21900   */\n      lt\n        /* \"#utility.yul\":21878:22057   */\n      iszero\n      tag_463\n      jumpi\n        /* \"#utility.yul\":21951:21960   */\n      dup5\n        /* \"#utility.yul\":21946:21949   */\n      dup10\n        /* \"#utility.yul\":21942:21961   */\n      add\n        /* \"#utility.yul\":21936:21962   */\n      mload\n        /* \"#utility.yul\":21994:22042   */\n      tag_464\n        /* \"#utility.yul\":22036:22040   */\n      0x1f\n        /* \"#utility.yul\":22028:22034   */\n      dup10\n        /* \"#utility.yul\":22024:22041   */\n      and\n        /* \"#utility.yul\":22013:22022   */\n      dup3\n        /* \"#utility.yul\":21994:22042   */\n      tag_232\n      jump\t// in\n    tag_464:\n        /* \"#utility.yul\":21986:21992   */\n      dup4\n        /* \"#utility.yul\":21979:22043   */\n      sstore\n        /* \"#utility.yul\":21901:22057   */\n      pop\n        /* \"#utility.yul\":21878:22057   */\n    tag_463:\n        /* \"#utility.yul\":22103:22104   */\n      0x01\n        /* \"#utility.yul\":22099:22100   */\n      0x02\n        /* \"#utility.yul\":22091:22097   */\n      dup9\n        /* \"#utility.yul\":22087:22101   */\n      mul\n        /* \"#utility.yul\":22083:22105   */\n      add\n        /* \"#utility.yul\":22077:22081   */\n      dup9\n        /* \"#utility.yul\":22070:22106   */\n      sstore\n        /* \"#utility.yul\":21505:22116   */\n      pop\n      pop\n      pop\n        /* \"#utility.yul\":21468:22355   */\n    tag_455:\n      pop\n        /* \"#utility.yul\":21058:22361   */\n      pop\n      pop\n      pop\n        /* \"#utility.yul\":20966:22361   */\n      pop\n      pop\n      jump\t// out\n        /* \"#utility.yul\":22367:22558   */\n    tag_174:\n        /* \"#utility.yul\":22407:22410   */\n      0x00\n        /* \"#utility.yul\":22426:22446   */\n      tag_466\n        /* \"#utility.yul\":22444:22445   */\n      dup3\n        /* \"#utility.yul\":22426:22446   */\n      tag_184\n      jump\t// in\n    tag_466:\n        /* \"#utility.yul\":22421:22446   */\n      swap2\n      pop\n        /* \"#utility.yul\":22460:22480   */\n      tag_467\n        /* \"#utility.yul\":22478:22479   */\n      dup4\n        /* \"#utility.yul\":22460:22480   */\n      tag_184\n      jump\t// in\n    tag_467:\n        /* \"#utility.yul\":22455:22480   */\n      swap3\n      pop\n        /* \"#utility.yul\":22503:22504   */\n      dup3\n        /* \"#utility.yul\":22500:22501   */\n      dup3\n        /* \"#utility.yul\":22496:22505   */\n      add\n        /* \"#utility.yul\":22489:22505   */\n      swap1\n      pop\n        /* \"#utility.yul\":22524:22527   */\n      dup1\n        /* \"#utility.yul\":22521:22522   */\n      dup3\n        /* \"#utility.yul\":22518:22528   */\n      gt\n        /* \"#utility.yul\":22515:22551   */\n      iszero\n      tag_468\n      jumpi\n        /* \"#utility.yul\":22531:22549   */\n      tag_469\n      tag_216\n      jump\t// in\n    tag_469:\n        /* \"#utility.yul\":22515:22551   */\n    tag_468:\n        /* \"#utility.yul\":22367:22558   */\n      swap3\n      swap2\n      pop\n      pop\n      jump\t// out\n\n    auxdata: 0xa2646970667358221220a885cb33ff12578be4c56f8d5204c7616cd078fe37b10102ec1e263081cd60db64736f6c63430008180033\n}\n",
				"bytecode": {
					"linkReferences": {},
					"object": "608060405234801561000f575f80fd5b50611b558061001d5f395ff3fe608060405234801561000f575f80fd5b50600436106100e8575f3560e01c8063af22bf941161008a578063de6f24bb11610064578063de6f24bb14610280578063e8d857b01461029c578063fb46d4c5146102cf578063ff9913e8146102eb576100e8565b8063af22bf9414610218578063b88e318d14610248578063d21d159614610264576100e8565b80634dc0a687116100c65780634dc0a6871461016c5780635284b64a1461019c5780639139cda5146101cc578063a9ed9cb8146101fc576100e8565b80632637588e146100ec5780633befea091461011c5780634dbf27cc14610150575b5f80fd5b61010660048036038101906101019190610ff1565b610307565b6040516101139190611049565b60405180910390f35b61013660048036038101906101319190611095565b610331565b60405161014795949392919061117b565b60405180910390f35b61016a600480360381019061016591906111d3565b610441565b005b610186600480360381019061018191906111fe565b6104df565b60405161019391906113aa565b60405180910390f35b6101b660048036038101906101b19190611095565b6106e8565b6040516101c391906113aa565b60405180910390f35b6101e660048036038101906101e19190611095565b61096e565b6040516101f391906113ca565b60405180910390f35b610216600480360381019061021191906111d3565b6109b6565b005b610232600480360381019061022d9190611095565b610a48565b60405161023f91906113e3565b60405180910390f35b610262600480360381019061025d9190611528565b610a73565b005b61027e60048036038101906102799190611594565b610a83565b005b61029a60048036038101906102959190611594565b610a91565b005b6102b660048036038101906102b191906111fe565b610aa0565b6040516102c694939291906115ee565b60405180910390f35b6102e960048036038101906102e49190611638565b610b70565b005b610305600480360381019061030091906111d3565b610b7d565b005b6003602052815f5260405f20602052805f5260405f205f915091509054906101000a900460ff1681565b6002602052815f5260405f20818154811061034a575f80fd5b905f5260205f2090600502015f9150915050805f015490806001018054610370906116ac565b80601f016020809104026020016040519081016040528092919081815260200182805461039c906116ac565b80156103e75780601f106103be576101008083540402835291602001916103e7565b820191905f5260205f20905b8154815290600101906020018083116103ca57829003601f168201915b505050505090806002015f9054906101000a900473ffffffffffffffffffffffffffffffffffffffff1690806003015f9054906101000a900473ffffffffffffffffffffffffffffffffffffffff16908060040154905085565b60045f3373ffffffffffffffffffffffffffffffffffffffff1673ffffffffffffffffffffffffffffffffffffffff1681526020019081526020015f2081908060018154018082558091505060019003905f5260205f20015f9091909190916101000a81548173ffffffffffffffffffffffffffffffffffffffff021916908373ffffffffffffffffffffffffffffffffffffffff16021790555050565b60605f821180156104f257506005548211155b610531576040517f08c379a000000000000000000000000000000000000000000000000000000000815260040161052890611726565b60405180910390fd5b5f8267ffffffffffffffff81111561054c5761054b611404565b5b60405190808252806020026020018201604052801561058557816020015b610572610f4b565b81526020019060019003908161056a5790505b5090505f80846005546105989190611771565b90505b6005548110156106dd575f805f8381526020019081526020015f2090506040518060800160405280825f01548152602001826001015f9054906101000a900473ffffffffffffffffffffffffffffffffffffffff1673ffffffffffffffffffffffffffffffffffffffff16815260200182600201805461061a906116ac565b80601f0160208091040260200160405190810160405280929190818152602001828054610646906116ac565b80156106915780601f1061066857610100808354040283529160200191610691565b820191905f5260205f20905b81548152906001019060200180831161067457829003601f168201915b5050505050815260200182600301548152508484815181106106b6576106b56117a4565b5b602002602001018190525082806106cc906117d1565b93505050808060010191505061059b565b508192505050919050565b60605f8267ffffffffffffffff81111561070557610704611404565b5b60405190808252806020026020018201604052801561073e57816020015b61072b610f4b565b8152602001906001900390816107235790505b5090505f8311801561075257506005548311155b610791576040517f08c379a000000000000000000000000000000000000000000000000000000000815260040161078890611726565b60405180910390fd5b5f808460015f8873ffffffffffffffffffffffffffffffffffffffff1673ffffffffffffffffffffffffffffffffffffffff1681526020019081526020015f20805490506107df9190611771565b90505b60015f8773ffffffffffffffffffffffffffffffffffffffff1673ffffffffffffffffffffffffffffffffffffffff1681526020019081526020015f2080549050811015610962575f805f8381526020019081526020015f2090506040518060800160405280825f01548152602001826001015f9054906101000a900473ffffffffffffffffffffffffffffffffffffffff1673ffffffffffffffffffffffffffffffffffffffff16815260200182600201805461089f906116ac565b80601f01602080910402602001604051908101604052809291908181526020018280546108cb906116ac565b80156109165780601f106108ed57610100808354040283529160200191610916565b820191905f5260205f20905b8154815290600101906020018083116108f957829003601f168201915b50505050508152602001826003015481525084848151811061093b5761093a6117a4565b5b60200260200101819052508280610951906117d1565b9350505080806001019150506107e2565b50819250505092915050565b6004602052815f5260405f208181548110610987575f80fd5b905f5260205f20015f915091509054906101000a900473ffffffffffffffffffffffffffffffffffffffff1681565b5f60035f3373ffffffffffffffffffffffffffffffffffffffff1673ffffffffffffffffffffffffffffffffffffffff1681526020019081526020015f205f8373ffffffffffffffffffffffffffffffffffffffff1673ffffffffffffffffffffffffffffffffffffffff1681526020019081526020015f205f6101000a81548160ff02191690831515021790555050565b6001602052815f5260405f208181548110610a61575f80fd5b905f5260205f20015f91509150505481565b610a7e838383610c10565b505050565b610a8d8282610e08565b5050565b610a9c338383610c10565b5050565b5f602052805f5260405f205f91509050805f015490806001015f9054906101000a900473ffffffffffffffffffffffffffffffffffffffff1690806002018054610ae9906116ac565b80601f0160208091040260200160405190810160405280929190818152602001828054610b15906116ac565b8015610b605780601f10610b3757610100808354040283529160200191610b60565b820191905f5260205f20905b815481529060010190602001808311610b4357829003601f168201915b5050505050908060030154905084565b610b7a3382610e08565b50565b600160035f3373ffffffffffffffffffffffffffffffffffffffff1673ffffffffffffffffffffffffffffffffffffffff1681526020019081526020015f205f8373ffffffffffffffffffffffffffffffffffffffff1673ffffffffffffffffffffffffffffffffffffffff1681526020019081526020015f205f6101000a81548160ff02191690831515021790555050565b8273ffffffffffffffffffffffffffffffffffffffff163373ffffffffffffffffffffffffffffffffffffffff1614610c7e576040517f08c379a0000000000000000000000000000000000000000000000000000000008152600401610c7590611862565b60405180910390fd5b60025f8473ffffffffffffffffffffffffffffffffffffffff1673ffffffffffffffffffffffffffffffffffffffff1681526020019081526020015f206040518060a0016040528060065481526020018381526020018473ffffffffffffffffffffffffffffffffffffffff1681526020018573ffffffffffffffffffffffffffffffffffffffff16815260200142815250908060018154018082558091505060019003905f5260205f2090600502015f909190919091505f820151815f01556020820151816001019081610d539190611a1d565b506040820151816002015f6101000a81548173ffffffffffffffffffffffffffffffffffffffff021916908373ffffffffffffffffffffffffffffffffffffffff1602179055506060820151816003015f6101000a81548173ffffffffffffffffffffffffffffffffffffffff021916908373ffffffffffffffffffffffffffffffffffffffff16021790555060808201518160040155505060065f815480929190610dfe906117d1565b9190505550505050565b8173ffffffffffffffffffffffffffffffffffffffff163373ffffffffffffffffffffffffffffffffffffffff1614610e76576040517f08c379a0000000000000000000000000000000000000000000000000000000008152600401610e6d90611862565b60405180910390fd5b604051806080016040528060055481526020018373ffffffffffffffffffffffffffffffffffffffff168152602001828152602001428152505f8060055481526020019081526020015f205f820151815f01556020820151816001015f6101000a81548173ffffffffffffffffffffffffffffffffffffffff021916908373ffffffffffffffffffffffffffffffffffffffff1602179055506040820151816002019081610f249190611a1d565b50606082015181600301559050506001600554610f419190611aec565b6005819055505050565b60405180608001604052805f81526020015f73ffffffffffffffffffffffffffffffffffffffff168152602001606081526020015f81525090565b5f604051905090565b5f80fd5b5f80fd5b5f73ffffffffffffffffffffffffffffffffffffffff82169050919050565b5f610fc082610f97565b9050919050565b610fd081610fb6565b8114610fda575f80fd5b50565b5f81359050610feb81610fc7565b92915050565b5f806040838503121561100757611006610f8f565b5b5f61101485828601610fdd565b925050602061102585828601610fdd565b9150509250929050565b5f8115159050919050565b6110438161102f565b82525050565b5f60208201905061105c5f83018461103a565b92915050565b5f819050919050565b61107481611062565b811461107e575f80fd5b50565b5f8135905061108f8161106b565b92915050565b5f80604083850312156110ab576110aa610f8f565b5b5f6110b885828601610fdd565b92505060206110c985828601611081565b9150509250929050565b6110dc81611062565b82525050565b5f81519050919050565b5f82825260208201905092915050565b5f5b838110156111195780820151818401526020810190506110fe565b5f8484015250505050565b5f601f19601f8301169050919050565b5f61113e826110e2565b61114881856110ec565b93506111588185602086016110fc565b61116181611124565b840191505092915050565b61117581610fb6565b82525050565b5f60a08201905061118e5f8301886110d3565b81810360208301526111a08187611134565b90506111af604083018661116c565b6111bc606083018561116c565b6111c960808301846110d3565b9695505050505050565b5f602082840312156111e8576111e7610f8f565b5b5f6111f584828501610fdd565b91505092915050565b5f6020828403121561121357611212610f8f565b5b5f61122084828501611081565b91505092915050565b5f81519050919050565b5f82825260208201905092915050565b5f819050602082019050919050565b61125b81611062565b82525050565b61126a81610fb6565b82525050565b5f82825260208201905092915050565b5f61128a826110e2565b6112948185611270565b93506112a48185602086016110fc565b6112ad81611124565b840191505092915050565b5f608083015f8301516112cd5f860182611252565b5060208301516112e06020860182611261565b50604083015184820360408601526112f88282611280565b915050606083015161130d6060860182611252565b508091505092915050565b5f61132383836112b8565b905092915050565b5f602082019050919050565b5f61134182611229565b61134b8185611233565b93508360208202850161135d85611243565b805f5b8581101561139857848403895281516113798582611318565b94506113848361132b565b925060208a01995050600181019050611360565b50829750879550505050505092915050565b5f6020820190508181035f8301526113c28184611337565b905092915050565b5f6020820190506113dd5f83018461116c565b92915050565b5f6020820190506113f65f8301846110d3565b92915050565b5f80fd5b5f80fd5b7f4e487b71000000000000000000000000000000000000000000000000000000005f52604160045260245ffd5b61143a82611124565b810181811067ffffffffffffffff8211171561145957611458611404565b5b80604052505050565b5f61146b610f86565b90506114778282611431565b919050565b5f67ffffffffffffffff82111561149657611495611404565b5b61149f82611124565b9050602081019050919050565b828183375f83830152505050565b5f6114cc6114c78461147c565b611462565b9050828152602081018484840111156114e8576114e7611400565b5b6114f38482856114ac565b509392505050565b5f82601f83011261150f5761150e6113fc565b5b813561151f8482602086016114ba565b91505092915050565b5f805f6060848603121561153f5761153e610f8f565b5b5f61154c86828701610fdd565b935050602061155d86828701610fdd565b925050604084013567ffffffffffffffff81111561157e5761157d610f93565b5b61158a868287016114fb565b9150509250925092565b5f80604083850312156115aa576115a9610f8f565b5b5f6115b785828601610fdd565b925050602083013567ffffffffffffffff8111156115d8576115d7610f93565b5b6115e4858286016114fb565b9150509250929050565b5f6080820190506116015f8301876110d3565b61160e602083018661116c565b81810360408301526116208185611134565b905061162f60608301846110d3565b95945050505050565b5f6020828403121561164d5761164c610f8f565b5b5f82013567ffffffffffffffff81111561166a57611669610f93565b5b611676848285016114fb565b91505092915050565b7f4e487b71000000000000000000000000000000000000000000000000000000005f52602260045260245ffd5b5f60028204905060018216806116c357607f821691505b6020821081036116d6576116d561167f565b5b50919050565b7f436f756e74206973206e6f742070726f706572000000000000000000000000005f82015250565b5f6117106013836110ec565b915061171b826116dc565b602082019050919050565b5f6020820190508181035f83015261173d81611704565b9050919050565b7f4e487b71000000000000000000000000000000000000000000000000000000005f52601160045260245ffd5b5f61177b82611062565b915061178683611062565b925082820390508181111561179e5761179d611744565b5b92915050565b7f4e487b71000000000000000000000000000000000000000000000000000000005f52603260045260245ffd5b5f6117db82611062565b91507fffffffffffffffffffffffffffffffffffffffffffffffffffffffffffffffff820361180d5761180c611744565b5b600182019050919050565b7f4e6f7420612076616c69642075736572000000000000000000000000000000005f82015250565b5f61184c6010836110ec565b915061185782611818565b602082019050919050565b5f6020820190508181035f83015261187981611840565b9050919050565b5f819050815f5260205f209050919050565b5f6020601f8301049050919050565b5f82821b905092915050565b5f600883026118dc7fffffffffffffffffffffffffffffffffffffffffffffffffffffffffffffffff826118a1565b6118e686836118a1565b95508019841693508086168417925050509392505050565b5f819050919050565b5f61192161191c61191784611062565b6118fe565b611062565b9050919050565b5f819050919050565b61193a83611907565b61194e61194682611928565b8484546118ad565b825550505050565b5f90565b611962611956565b61196d818484611931565b505050565b5b81811015611990576119855f8261195a565b600181019050611973565b5050565b601f8211156119d5576119a681611880565b6119af84611892565b810160208510156119be578190505b6119d26119ca85611892565b830182611972565b50505b505050565b5f82821c905092915050565b5f6119f55f19846008026119da565b1980831691505092915050565b5f611a0d83836119e6565b9150826002028217905092915050565b611a26826110e2565b67ffffffffffffffff811115611a3f57611a3e611404565b5b611a4982546116ac565b611a54828285611994565b5f60209050601f831160018114611a85575f8415611a73578287015190505b611a7d8582611a02565b865550611ae4565b601f198416611a9386611880565b5f5b82811015611aba57848901518255600182019150602085019450602081019050611a95565b86831015611ad75784890151611ad3601f8916826119e6565b8355505b6001600288020188555050505b505050505050565b5f611af682611062565b9150611b0183611062565b9250828201905080821115611b1957611b18611744565b5b9291505056fea2646970667358221220a885cb33ff12578be4c56f8d5204c7616cd078fe37b10102ec1e263081cd60db64736f6c63430008180033",
					"opcodes": "PUSH1 0x80 PUSH1 0x40 MSTORE CALLVALUE DUP1 ISZERO PUSH2 0xF JUMPI PUSH0 DUP1 REVERT JUMPDEST POP PUSH2 0x1B55 DUP1 PUSH2 0x1D PUSH0 CODECOPY PUSH0 RETURN INVALID PUSH1 0x80 PUSH1 0x40 MSTORE CALLVALUE DUP1 ISZERO PUSH2 0xF JUMPI PUSH0 DUP1 REVERT JUMPDEST POP PUSH1 0x4 CALLDATASIZE LT PUSH2 0xE8 JUMPI PUSH0 CALLDATALOAD PUSH1 0xE0 SHR DUP1 PUSH4 0xAF22BF94 GT PUSH2 0x8A JUMPI DUP1 PUSH4 0xDE6F24BB GT PUSH2 0x64 JUMPI DUP1 PUSH4 0xDE6F24BB EQ PUSH2 0x280 JUMPI DUP1 PUSH4 0xE8D857B0 EQ PUSH2 0x29C JUMPI DUP1 PUSH4 0xFB46D4C5 EQ PUSH2 0x2CF JUMPI DUP1 PUSH4 0xFF9913E8 EQ PUSH2 0x2EB JUMPI PUSH2 0xE8 JUMP JUMPDEST DUP1 PUSH4 0xAF22BF94 EQ PUSH2 0x218 JUMPI DUP1 PUSH4 0xB88E318D EQ PUSH2 0x248 JUMPI DUP1 PUSH4 0xD21D1596 EQ PUSH2 0x264 JUMPI PUSH2 0xE8 JUMP JUMPDEST DUP1 PUSH4 0x4DC0A687 GT PUSH2 0xC6 JUMPI DUP1 PUSH4 0x4DC0A687 EQ PUSH2 0x16C JUMPI DUP1 PUSH4 0x5284B64A EQ PUSH2 0x19C JUMPI DUP1 PUSH4 0x9139CDA5 EQ PUSH2 0x1CC JUMPI DUP1 PUSH4 0xA9ED9CB8 EQ PUSH2 0x1FC JUMPI PUSH2 0xE8 JUMP JUMPDEST DUP1 PUSH4 0x2637588E EQ PUSH2 0xEC JUMPI DUP1 PUSH4 0x3BEFEA09 EQ PUSH2 0x11C JUMPI DUP1 PUSH4 0x4DBF27CC EQ PUSH2 0x150 JUMPI JUMPDEST PUSH0 DUP1 REVERT JUMPDEST PUSH2 0x106 PUSH1 0x4 DUP1 CALLDATASIZE SUB DUP2 ADD SWAP1 PUSH2 0x101 SWAP2 SWAP1 PUSH2 0xFF1 JUMP JUMPDEST PUSH2 0x307 JUMP JUMPDEST PUSH1 0x40 MLOAD PUSH2 0x113 SWAP2 SWAP1 PUSH2 0x1049 JUMP JUMPDEST PUSH1 0x40 MLOAD DUP1 SWAP2 SUB SWAP1 RETURN JUMPDEST PUSH2 0x136 PUSH1 0x4 DUP1 CALLDATASIZE SUB DUP2 ADD SWAP1 PUSH2 0x131 SWAP2 SWAP1 PUSH2 0x1095 JUMP JUMPDEST PUSH2 0x331 JUMP JUMPDEST PUSH1 0x40 MLOAD PUSH2 0x147 SWAP6 SWAP5 SWAP4 SWAP3 SWAP2 SWAP1 PUSH2 0x117B JUMP JUMPDEST PUSH1 0x40 MLOAD DUP1 SWAP2 SUB SWAP1 RETURN JUMPDEST PUSH2 0x16A PUSH1 0x4 DUP1 CALLDATASIZE SUB DUP2 ADD SWAP1 PUSH2 0x165 SWAP2 SWAP1 PUSH2 0x11D3 JUMP JUMPDEST PUSH2 0x441 JUMP JUMPDEST STOP JUMPDEST PUSH2 0x186 PUSH1 0x4 DUP1 CALLDATASIZE SUB DUP2 ADD SWAP1 PUSH2 0x181 SWAP2 SWAP1 PUSH2 0x11FE JUMP JUMPDEST PUSH2 0x4DF JUMP JUMPDEST PUSH1 0x40 MLOAD PUSH2 0x193 SWAP2 SWAP1 PUSH2 0x13AA JUMP JUMPDEST PUSH1 0x40 MLOAD DUP1 SWAP2 SUB SWAP1 RETURN JUMPDEST PUSH2 0x1B6 PUSH1 0x4 DUP1 CALLDATASIZE SUB DUP2 ADD SWAP1 PUSH2 0x1B1 SWAP2 SWAP1 PUSH2 0x1095 JUMP JUMPDEST PUSH2 0x6E8 JUMP JUMPDEST PUSH1 0x40 MLOAD PUSH2 0x1C3 SWAP2 SWAP1 PUSH2 0x13AA JUMP JUMPDEST PUSH1 0x40 MLOAD DUP1 SWAP2 SUB SWAP1 RETURN JUMPDEST PUSH2 0x1E6 PUSH1 0x4 DUP1 CALLDATASIZE SUB DUP2 ADD SWAP1 PUSH2 0x1E1 SWAP2 SWAP1 PUSH2 0x1095 JUMP JUMPDEST PUSH2 0x96E JUMP JUMPDEST PUSH1 0x40 MLOAD PUSH2 0x1F3 SWAP2 SWAP1 PUSH2 0x13CA JUMP JUMPDEST PUSH1 0x40 MLOAD DUP1 SWAP2 SUB SWAP1 RETURN JUMPDEST PUSH2 0x216 PUSH1 0x4 DUP1 CALLDATASIZE SUB DUP2 ADD SWAP1 PUSH2 0x211 SWAP2 SWAP1 PUSH2 0x11D3 JUMP JUMPDEST PUSH2 0x9B6 JUMP JUMPDEST STOP JUMPDEST PUSH2 0x232 PUSH1 0x4 DUP1 CALLDATASIZE SUB DUP2 ADD SWAP1 PUSH2 0x22D SWAP2 SWAP1 PUSH2 0x1095 JUMP JUMPDEST PUSH2 0xA48 JUMP JUMPDEST PUSH1 0x40 MLOAD PUSH2 0x23F SWAP2 SWAP1 PUSH2 0x13E3 JUMP JUMPDEST PUSH1 0x40 MLOAD DUP1 SWAP2 SUB SWAP1 RETURN JUMPDEST PUSH2 0x262 PUSH1 0x4 DUP1 CALLDATASIZE SUB DUP2 ADD SWAP1 PUSH2 0x25D SWAP2 SWAP1 PUSH2 0x1528 JUMP JUMPDEST PUSH2 0xA73 JUMP JUMPDEST STOP JUMPDEST PUSH2 0x27E PUSH1 0x4 DUP1 CALLDATASIZE SUB DUP2 ADD SWAP1 PUSH2 0x279 SWAP2 SWAP1 PUSH2 0x1594 JUMP JUMPDEST PUSH2 0xA83 JUMP JUMPDEST STOP JUMPDEST PUSH2 0x29A PUSH1 0x4 DUP1 CALLDATASIZE SUB DUP2 ADD SWAP1 PUSH2 0x295 SWAP2 SWAP1 PUSH2 0x1594 JUMP JUMPDEST PUSH2 0xA91 JUMP JUMPDEST STOP JUMPDEST PUSH2 0x2B6 PUSH1 0x4 DUP1 CALLDATASIZE SUB DUP2 ADD SWAP1 PUSH2 0x2B1 SWAP2 SWAP1 PUSH2 0x11FE JUMP JUMPDEST PUSH2 0xAA0 JUMP JUMPDEST PUSH1 0x40 MLOAD PUSH2 0x2C6 SWAP5 SWAP4 SWAP3 SWAP2 SWAP1 PUSH2 0x15EE JUMP JUMPDEST PUSH1 0x40 MLOAD DUP1 SWAP2 SUB SWAP1 RETURN JUMPDEST PUSH2 0x2E9 PUSH1 0x4 DUP1 CALLDATASIZE SUB DUP2 ADD SWAP1 PUSH2 0x2E4 SWAP2 SWAP1 PUSH2 0x1638 JUMP JUMPDEST PUSH2 0xB70 JUMP JUMPDEST STOP JUMPDEST PUSH2 0x305 PUSH1 0x4 DUP1 CALLDATASIZE SUB DUP2 ADD SWAP1 PUSH2 0x300 SWAP2 SWAP1 PUSH2 0x11D3 JUMP JUMPDEST PUSH2 0xB7D JUMP JUMPDEST STOP JUMPDEST PUSH1 0x3 PUSH1 0x20 MSTORE DUP2 PUSH0 MSTORE PUSH1 0x40 PUSH0 KECCAK256 PUSH1 0x20 MSTORE DUP1 PUSH0 MSTORE PUSH1 0x40 PUSH0 KECCAK256 PUSH0 SWAP2 POP SWAP2 POP SWAP1 SLOAD SWAP1 PUSH2 0x100 EXP SWAP1 DIV PUSH1 0xFF AND DUP2 JUMP JUMPDEST PUSH1 0x2 PUSH1 0x20 MSTORE DUP2 PUSH0 MSTORE PUSH1 0x40 PUSH0 KECCAK256 DUP2 DUP2 SLOAD DUP2 LT PUSH2 0x34A JUMPI PUSH0 DUP1 REVERT JUMPDEST SWAP1 PUSH0 MSTORE PUSH1 0x20 PUSH0 KECCAK256 SWAP1 PUSH1 0x5 MUL ADD PUSH0 SWAP2 POP SWAP2 POP POP DUP1 PUSH0 ADD SLOAD SWAP1 DUP1 PUSH1 0x1 ADD DUP1 SLOAD PUSH2 0x370 SWAP1 PUSH2 0x16AC JUMP JUMPDEST DUP1 PUSH1 0x1F ADD PUSH1 0x20 DUP1 SWAP2 DIV MUL PUSH1 0x20 ADD PUSH1 0x40 MLOAD SWAP1 DUP2 ADD PUSH1 0x40 MSTORE DUP1 SWAP3 SWAP2 SWAP1 DUP2 DUP2 MSTORE PUSH1 0x20 ADD DUP3 DUP1 SLOAD PUSH2 0x39C SWAP1 PUSH2 0x16AC JUMP JUMPDEST DUP1 ISZERO PUSH2 0x3E7 JUMPI DUP1 PUSH1 0x1F LT PUSH2 0x3BE JUMPI PUSH2 0x100 DUP1 DUP4 SLOAD DIV MUL DUP4 MSTORE SWAP2 PUSH1 0x20 ADD SWAP2 PUSH2 0x3E7 JUMP JUMPDEST DUP3 ADD SWAP2 SWAP1 PUSH0 MSTORE PUSH1 0x20 PUSH0 KECCAK256 SWAP1 JUMPDEST DUP2 SLOAD DUP2 MSTORE SWAP1 PUSH1 0x1 ADD SWAP1 PUSH1 0x20 ADD DUP1 DUP4 GT PUSH2 0x3CA JUMPI DUP3 SWAP1 SUB PUSH1 0x1F AND DUP3 ADD SWAP2 JUMPDEST POP POP POP POP POP SWAP1 DUP1 PUSH1 0x2 ADD PUSH0 SWAP1 SLOAD SWAP1 PUSH2 0x100 EXP SWAP1 DIV PUSH20 0xFFFFFFFFFFFFFFFFFFFFFFFFFFFFFFFFFFFFFFFF AND SWAP1 DUP1 PUSH1 0x3 ADD PUSH0 SWAP1 SLOAD SWAP1 PUSH2 0x100 EXP SWAP1 DIV PUSH20 0xFFFFFFFFFFFFFFFFFFFFFFFFFFFFFFFFFFFFFFFF AND SWAP1 DUP1 PUSH1 0x4 ADD SLOAD SWAP1 POP DUP6 JUMP JUMPDEST PUSH1 0x4 PUSH0 CALLER PUSH20 0xFFFFFFFFFFFFFFFFFFFFFFFFFFFFFFFFFFFFFFFF AND PUSH20 0xFFFFFFFFFFFFFFFFFFFFFFFFFFFFFFFFFFFFFFFF AND DUP2 MSTORE PUSH1 0x20 ADD SWAP1 DUP2 MSTORE PUSH1 0x20 ADD PUSH0 KECCAK256 DUP2 SWAP1 DUP1 PUSH1 0x1 DUP2 SLOAD ADD DUP1 DUP3 SSTORE DUP1 SWAP2 POP POP PUSH1 0x1 SWAP1 SUB SWAP1 PUSH0 MSTORE PUSH1 0x20 PUSH0 KECCAK256 ADD PUSH0 SWAP1 SWAP2 SWAP1 SWAP2 SWAP1 SWAP2 PUSH2 0x100 EXP DUP2 SLOAD DUP2 PUSH20 0xFFFFFFFFFFFFFFFFFFFFFFFFFFFFFFFFFFFFFFFF MUL NOT AND SWAP1 DUP4 PUSH20 0xFFFFFFFFFFFFFFFFFFFFFFFFFFFFFFFFFFFFFFFF AND MUL OR SWAP1 SSTORE POP POP JUMP JUMPDEST PUSH1 0x60 PUSH0 DUP3 GT DUP1 ISZERO PUSH2 0x4F2 JUMPI POP PUSH1 0x5 SLOAD DUP3 GT ISZERO JUMPDEST PUSH2 0x531 JUMPI PUSH1 0x40 MLOAD PUSH32 0x8C379A000000000000000000000000000000000000000000000000000000000 DUP2 MSTORE PUSH1 0x4 ADD PUSH2 0x528 SWAP1 PUSH2 0x1726 JUMP JUMPDEST PUSH1 0x40 MLOAD DUP1 SWAP2 SUB SWAP1 REVERT JUMPDEST PUSH0 DUP3 PUSH8 0xFFFFFFFFFFFFFFFF DUP2 GT ISZERO PUSH2 0x54C JUMPI PUSH2 0x54B PUSH2 0x1404 JUMP JUMPDEST JUMPDEST PUSH1 0x40 MLOAD SWAP1 DUP1 DUP3 MSTORE DUP1 PUSH1 0x20 MUL PUSH1 0x20 ADD DUP3 ADD PUSH1 0x40 MSTORE DUP1 ISZERO PUSH2 0x585 JUMPI DUP2 PUSH1 0x20 ADD JUMPDEST PUSH2 0x572 PUSH2 0xF4B JUMP JUMPDEST DUP2 MSTORE PUSH1 0x20 ADD SWAP1 PUSH1 0x1 SWAP1 SUB SWAP1 DUP2 PUSH2 0x56A JUMPI SWAP1 POP JUMPDEST POP SWAP1 POP PUSH0 DUP1 DUP5 PUSH1 0x5 SLOAD PUSH2 0x598 SWAP2 SWAP1 PUSH2 0x1771 JUMP JUMPDEST SWAP1 POP JUMPDEST PUSH1 0x5 SLOAD DUP2 LT ISZERO PUSH2 0x6DD JUMPI PUSH0 DUP1 PUSH0 DUP4 DUP2 MSTORE PUSH1 0x20 ADD SWAP1 DUP2 MSTORE PUSH1 0x20 ADD PUSH0 KECCAK256 SWAP1 POP PUSH1 0x40 MLOAD DUP1 PUSH1 0x80 ADD PUSH1 0x40 MSTORE DUP1 DUP3 PUSH0 ADD SLOAD DUP2 MSTORE PUSH1 0x20 ADD DUP3 PUSH1 0x1 ADD PUSH0 SWAP1 SLOAD SWAP1 PUSH2 0x100 EXP SWAP1 DIV PUSH20 0xFFFFFFFFFFFFFFFFFFFFFFFFFFFFFFFFFFFFFFFF AND PUSH20 0xFFFFFFFFFFFFFFFFFFFFFFFFFFFFFFFFFFFFFFFF AND DUP2 MSTORE PUSH1 0x20 ADD DUP3 PUSH1 0x2 ADD DUP1 SLOAD PUSH2 0x61A SWAP1 PUSH2 0x16AC JUMP JUMPDEST DUP1 PUSH1 0x1F ADD PUSH1 0x20 DUP1 SWAP2 DIV MUL PUSH1 0x20 ADD PUSH1 0x40 MLOAD SWAP1 DUP2 ADD PUSH1 0x40 MSTORE DUP1 SWAP3 SWAP2 SWAP1 DUP2 DUP2 MSTORE PUSH1 0x20 ADD DUP3 DUP1 SLOAD PUSH2 0x646 SWAP1 PUSH2 0x16AC JUMP JUMPDEST DUP1 ISZERO PUSH2 0x691 JUMPI DUP1 PUSH1 0x1F LT PUSH2 0x668 JUMPI PUSH2 0x100 DUP1 DUP4 SLOAD DIV MUL DUP4 MSTORE SWAP2 PUSH1 0x20 ADD SWAP2 PUSH2 0x691 JUMP JUMPDEST DUP3 ADD SWAP2 SWAP1 PUSH0 MSTORE PUSH1 0x20 PUSH0 KECCAK256 SWAP1 JUMPDEST DUP2 SLOAD DUP2 MSTORE SWAP1 PUSH1 0x1 ADD SWAP1 PUSH1 0x20 ADD DUP1 DUP4 GT PUSH2 0x674 JUMPI DUP3 SWAP1 SUB PUSH1 0x1F AND DUP3 ADD SWAP2 JUMPDEST POP POP POP POP POP DUP2 MSTORE PUSH1 0x20 ADD DUP3 PUSH1 0x3 ADD SLOAD DUP2 MSTORE POP DUP5 DUP5 DUP2 MLOAD DUP2 LT PUSH2 0x6B6 JUMPI PUSH2 0x6B5 PUSH2 0x17A4 JUMP JUMPDEST JUMPDEST PUSH1 0x20 MUL PUSH1 0x20 ADD ADD DUP2 SWAP1 MSTORE POP DUP3 DUP1 PUSH2 0x6CC SWAP1 PUSH2 0x17D1 JUMP JUMPDEST SWAP4 POP POP POP DUP1 DUP1 PUSH1 0x1 ADD SWAP2 POP POP PUSH2 0x59B JUMP JUMPDEST POP DUP2 SWAP3 POP POP POP SWAP2 SWAP1 POP JUMP JUMPDEST PUSH1 0x60 PUSH0 DUP3 PUSH8 0xFFFFFFFFFFFFFFFF DUP2 GT ISZERO PUSH2 0x705 JUMPI PUSH2 0x704 PUSH2 0x1404 JUMP JUMPDEST JUMPDEST PUSH1 0x40 MLOAD SWAP1 DUP1 DUP3 MSTORE DUP1 PUSH1 0x20 MUL PUSH1 0x20 ADD DUP3 ADD PUSH1 0x40 MSTORE DUP1 ISZERO PUSH2 0x73E JUMPI DUP2 PUSH1 0x20 ADD JUMPDEST PUSH2 0x72B PUSH2 0xF4B JUMP JUMPDEST DUP2 MSTORE PUSH1 0x20 ADD SWAP1 PUSH1 0x1 SWAP1 SUB SWAP1 DUP2 PUSH2 0x723 JUMPI SWAP1 POP JUMPDEST POP SWAP1 POP PUSH0 DUP4 GT DUP1 ISZERO PUSH2 0x752 JUMPI POP PUSH1 0x5 SLOAD DUP4 GT ISZERO JUMPDEST PUSH2 0x791 JUMPI PUSH1 0x40 MLOAD PUSH32 0x8C379A000000000000000000000000000000000000000000000000000000000 DUP2 MSTORE PUSH1 0x4 ADD PUSH2 0x788 SWAP1 PUSH2 0x1726 JUMP JUMPDEST PUSH1 0x40 MLOAD DUP1 SWAP2 SUB SWAP1 REVERT JUMPDEST PUSH0 DUP1 DUP5 PUSH1 0x1 PUSH0 DUP9 PUSH20 0xFFFFFFFFFFFFFFFFFFFFFFFFFFFFFFFFFFFFFFFF AND PUSH20 0xFFFFFFFFFFFFFFFFFFFFFFFFFFFFFFFFFFFFFFFF AND DUP2 MSTORE PUSH1 0x20 ADD SWAP1 DUP2 MSTORE PUSH1 0x20 ADD PUSH0 KECCAK256 DUP1 SLOAD SWAP1 POP PUSH2 0x7DF SWAP2 SWAP1 PUSH2 0x1771 JUMP JUMPDEST SWAP1 POP JUMPDEST PUSH1 0x1 PUSH0 DUP8 PUSH20 0xFFFFFFFFFFFFFFFFFFFFFFFFFFFFFFFFFFFFFFFF AND PUSH20 0xFFFFFFFFFFFFFFFFFFFFFFFFFFFFFFFFFFFFFFFF AND DUP2 MSTORE PUSH1 0x20 ADD SWAP1 DUP2 MSTORE PUSH1 0x20 ADD PUSH0 KECCAK256 DUP1 SLOAD SWAP1 POP DUP2 LT ISZERO PUSH2 0x962 JUMPI PUSH0 DUP1 PUSH0 DUP4 DUP2 MSTORE PUSH1 0x20 ADD SWAP1 DUP2 MSTORE PUSH1 0x20 ADD PUSH0 KECCAK256 SWAP1 POP PUSH1 0x40 MLOAD DUP1 PUSH1 0x80 ADD PUSH1 0x40 MSTORE DUP1 DUP3 PUSH0 ADD SLOAD DUP2 MSTORE PUSH1 0x20 ADD DUP3 PUSH1 0x1 ADD PUSH0 SWAP1 SLOAD SWAP1 PUSH2 0x100 EXP SWAP1 DIV PUSH20 0xFFFFFFFFFFFFFFFFFFFFFFFFFFFFFFFFFFFFFFFF AND PUSH20 0xFFFFFFFFFFFFFFFFFFFFFFFFFFFFFFFFFFFFFFFF AND DUP2 MSTORE PUSH1 0x20 ADD DUP3 PUSH1 0x2 ADD DUP1 SLOAD PUSH2 0x89F SWAP1 PUSH2 0x16AC JUMP JUMPDEST DUP1 PUSH1 0x1F ADD PUSH1 0x20 DUP1 SWAP2 DIV MUL PUSH1 0x20 ADD PUSH1 0x40 MLOAD SWAP1 DUP2 ADD PUSH1 0x40 MSTORE DUP1 SWAP3 SWAP2 SWAP1 DUP2 DUP2 MSTORE PUSH1 0x20 ADD DUP3 DUP1 SLOAD PUSH2 0x8CB SWAP1 PUSH2 0x16AC JUMP JUMPDEST DUP1 ISZERO PUSH2 0x916 JUMPI DUP1 PUSH1 0x1F LT PUSH2 0x8ED JUMPI PUSH2 0x100 DUP1 DUP4 SLOAD DIV MUL DUP4 MSTORE SWAP2 PUSH1 0x20 ADD SWAP2 PUSH2 0x916 JUMP JUMPDEST DUP3 ADD SWAP2 SWAP1 PUSH0 MSTORE PUSH1 0x20 PUSH0 KECCAK256 SWAP1 JUMPDEST DUP2 SLOAD DUP2 MSTORE SWAP1 PUSH1 0x1 ADD SWAP1 PUSH1 0x20 ADD DUP1 DUP4 GT PUSH2 0x8F9 JUMPI DUP3 SWAP1 SUB PUSH1 0x1F AND DUP3 ADD SWAP2 JUMPDEST POP POP POP POP POP DUP2 MSTORE PUSH1 0x20 ADD DUP3 PUSH1 0x3 ADD SLOAD DUP2 MSTORE POP DUP5 DUP5 DUP2 MLOAD DUP2 LT PUSH2 0x93B JUMPI PUSH2 0x93A PUSH2 0x17A4 JUMP JUMPDEST JUMPDEST PUSH1 0x20 MUL PUSH1 0x20 ADD ADD DUP2 SWAP1 MSTORE POP DUP3 DUP1 PUSH2 0x951 SWAP1 PUSH2 0x17D1 JUMP JUMPDEST SWAP4 POP POP POP DUP1 DUP1 PUSH1 0x1 ADD SWAP2 POP POP PUSH2 0x7E2 JUMP JUMPDEST POP DUP2 SWAP3 POP POP POP SWAP3 SWAP2 POP POP JUMP JUMPDEST PUSH1 0x4 PUSH1 0x20 MSTORE DUP2 PUSH0 MSTORE PUSH1 0x40 PUSH0 KECCAK256 DUP2 DUP2 SLOAD DUP2 LT PUSH2 0x987 JUMPI PUSH0 DUP1 REVERT JUMPDEST SWAP1 PUSH0 MSTORE PUSH1 0x20 PUSH0 KECCAK256 ADD PUSH0 SWAP2 POP SWAP2 POP SWAP1 SLOAD SWAP1 PUSH2 0x100 EXP SWAP1 DIV PUSH20 0xFFFFFFFFFFFFFFFFFFFFFFFFFFFFFFFFFFFFFFFF AND DUP2 JUMP JUMPDEST PUSH0 PUSH1 0x3 PUSH0 CALLER PUSH20 0xFFFFFFFFFFFFFFFFFFFFFFFFFFFFFFFFFFFFFFFF AND PUSH20 0xFFFFFFFFFFFFFFFFFFFFFFFFFFFFFFFFFFFFFFFF AND DUP2 MSTORE PUSH1 0x20 ADD SWAP1 DUP2 MSTORE PUSH1 0x20 ADD PUSH0 KECCAK256 PUSH0 DUP4 PUSH20 0xFFFFFFFFFFFFFFFFFFFFFFFFFFFFFFFFFFFFFFFF AND PUSH20 0xFFFFFFFFFFFFFFFFFFFFFFFFFFFFFFFFFFFFFFFF AND DUP2 MSTORE PUSH1 0x20 ADD SWAP1 DUP2 MSTORE PUSH1 0x20 ADD PUSH0 KECCAK256 PUSH0 PUSH2 0x100 EXP DUP2 SLOAD DUP2 PUSH1 0xFF MUL NOT AND SWAP1 DUP4 ISZERO ISZERO MUL OR SWAP1 SSTORE POP POP JUMP JUMPDEST PUSH1 0x1 PUSH1 0x20 MSTORE DUP2 PUSH0 MSTORE PUSH1 0x40 PUSH0 KECCAK256 DUP2 DUP2 SLOAD DUP2 LT PUSH2 0xA61 JUMPI PUSH0 DUP1 REVERT JUMPDEST SWAP1 PUSH0 MSTORE PUSH1 0x20 PUSH0 KECCAK256 ADD PUSH0 SWAP2 POP SWAP2 POP POP SLOAD DUP2 JUMP JUMPDEST PUSH2 0xA7E DUP4 DUP4 DUP4 PUSH2 0xC10 JUMP JUMPDEST POP POP POP JUMP JUMPDEST PUSH2 0xA8D DUP3 DUP3 PUSH2 0xE08 JUMP JUMPDEST POP POP JUMP JUMPDEST PUSH2 0xA9C CALLER DUP4 DUP4 PUSH2 0xC10 JUMP JUMPDEST POP POP JUMP JUMPDEST PUSH0 PUSH1 0x20 MSTORE DUP1 PUSH0 MSTORE PUSH1 0x40 PUSH0 KECCAK256 PUSH0 SWAP2 POP SWAP1 POP DUP1 PUSH0 ADD SLOAD SWAP1 DUP1 PUSH1 0x1 ADD PUSH0 SWAP1 SLOAD SWAP1 PUSH2 0x100 EXP SWAP1 DIV PUSH20 0xFFFFFFFFFFFFFFFFFFFFFFFFFFFFFFFFFFFFFFFF AND SWAP1 DUP1 PUSH1 0x2 ADD DUP1 SLOAD PUSH2 0xAE9 SWAP1 PUSH2 0x16AC JUMP JUMPDEST DUP1 PUSH1 0x1F ADD PUSH1 0x20 DUP1 SWAP2 DIV MUL PUSH1 0x20 ADD PUSH1 0x40 MLOAD SWAP1 DUP2 ADD PUSH1 0x40 MSTORE DUP1 SWAP3 SWAP2 SWAP1 DUP2 DUP2 MSTORE PUSH1 0x20 ADD DUP3 DUP1 SLOAD PUSH2 0xB15 SWAP1 PUSH2 0x16AC JUMP JUMPDEST DUP1 ISZERO PUSH2 0xB60 JUMPI DUP1 PUSH1 0x1F LT PUSH2 0xB37 JUMPI PUSH2 0x100 DUP1 DUP4 SLOAD DIV MUL DUP4 MSTORE SWAP2 PUSH1 0x20 ADD SWAP2 PUSH2 0xB60 JUMP JUMPDEST DUP3 ADD SWAP2 SWAP1 PUSH0 MSTORE PUSH1 0x20 PUSH0 KECCAK256 SWAP1 JUMPDEST DUP2 SLOAD DUP2 MSTORE SWAP1 PUSH1 0x1 ADD SWAP1 PUSH1 0x20 ADD DUP1 DUP4 GT PUSH2 0xB43 JUMPI DUP3 SWAP1 SUB PUSH1 0x1F AND DUP3 ADD SWAP2 JUMPDEST POP POP POP POP POP SWAP1 DUP1 PUSH1 0x3 ADD SLOAD SWAP1 POP DUP5 JUMP JUMPDEST PUSH2 0xB7A CALLER DUP3 PUSH2 0xE08 JUMP JUMPDEST POP JUMP JUMPDEST PUSH1 0x1 PUSH1 0x3 PUSH0 CALLER PUSH20 0xFFFFFFFFFFFFFFFFFFFFFFFFFFFFFFFFFFFFFFFF AND PUSH20 0xFFFFFFFFFFFFFFFFFFFFFFFFFFFFFFFFFFFFFFFF AND DUP2 MSTORE PUSH1 0x20 ADD SWAP1 DUP2 MSTORE PUSH1 0x20 ADD PUSH0 KECCAK256 PUSH0 DUP4 PUSH20 0xFFFFFFFFFFFFFFFFFFFFFFFFFFFFFFFFFFFFFFFF AND PUSH20 0xFFFFFFFFFFFFFFFFFFFFFFFFFFFFFFFFFFFFFFFF AND DUP2 MSTORE PUSH1 0x20 ADD SWAP1 DUP2 MSTORE PUSH1 0x20 ADD PUSH0 KECCAK256 PUSH0 PUSH2 0x100 EXP DUP2 SLOAD DUP2 PUSH1 0xFF MUL NOT AND SWAP1 DUP4 ISZERO ISZERO MUL OR SWAP1 SSTORE POP POP JUMP JUMPDEST DUP3 PUSH20 0xFFFFFFFFFFFFFFFFFFFFFFFFFFFFFFFFFFFFFFFF AND CALLER PUSH20 0xFFFFFFFFFFFFFFFFFFFFFFFFFFFFFFFFFFFFFFFF AND EQ PUSH2 0xC7E JUMPI PUSH1 0x40 MLOAD PUSH32 0x8C379A000000000000000000000000000000000000000000000000000000000 DUP2 MSTORE PUSH1 0x4 ADD PUSH2 0xC75 SWAP1 PUSH2 0x1862 JUMP JUMPDEST PUSH1 0x40 MLOAD DUP1 SWAP2 SUB SWAP1 REVERT JUMPDEST PUSH1 0x2 PUSH0 DUP5 PUSH20 0xFFFFFFFFFFFFFFFFFFFFFFFFFFFFFFFFFFFFFFFF AND PUSH20 0xFFFFFFFFFFFFFFFFFFFFFFFFFFFFFFFFFFFFFFFF AND DUP2 MSTORE PUSH1 0x20 ADD SWAP1 DUP2 MSTORE PUSH1 0x20 ADD PUSH0 KECCAK256 PUSH1 0x40 MLOAD DUP1 PUSH1 0xA0 ADD PUSH1 0x40 MSTORE DUP1 PUSH1 0x6 SLOAD DUP2 MSTORE PUSH1 0x20 ADD DUP4 DUP2 MSTORE PUSH1 0x20 ADD DUP5 PUSH20 0xFFFFFFFFFFFFFFFFFFFFFFFFFFFFFFFFFFFFFFFF AND DUP2 MSTORE PUSH1 0x20 ADD DUP6 PUSH20 0xFFFFFFFFFFFFFFFFFFFFFFFFFFFFFFFFFFFFFFFF AND DUP2 MSTORE PUSH1 0x20 ADD TIMESTAMP DUP2 MSTORE POP SWAP1 DUP1 PUSH1 0x1 DUP2 SLOAD ADD DUP1 DUP3 SSTORE DUP1 SWAP2 POP POP PUSH1 0x1 SWAP1 SUB SWAP1 PUSH0 MSTORE PUSH1 0x20 PUSH0 KECCAK256 SWAP1 PUSH1 0x5 MUL ADD PUSH0 SWAP1 SWAP2 SWAP1 SWAP2 SWAP1 SWAP2 POP PUSH0 DUP3 ADD MLOAD DUP2 PUSH0 ADD SSTORE PUSH1 0x20 DUP3 ADD MLOAD DUP2 PUSH1 0x1 ADD SWAP1 DUP2 PUSH2 0xD53 SWAP2 SWAP1 PUSH2 0x1A1D JUMP JUMPDEST POP PUSH1 0x40 DUP3 ADD MLOAD DUP2 PUSH1 0x2 ADD PUSH0 PUSH2 0x100 EXP DUP2 SLOAD DUP2 PUSH20 0xFFFFFFFFFFFFFFFFFFFFFFFFFFFFFFFFFFFFFFFF MUL NOT AND SWAP1 DUP4 PUSH20 0xFFFFFFFFFFFFFFFFFFFFFFFFFFFFFFFFFFFFFFFF AND MUL OR SWAP1 SSTORE POP PUSH1 0x60 DUP3 ADD MLOAD DUP2 PUSH1 0x3 ADD PUSH0 PUSH2 0x100 EXP DUP2 SLOAD DUP2 PUSH20 0xFFFFFFFFFFFFFFFFFFFFFFFFFFFFFFFFFFFFFFFF MUL NOT AND SWAP1 DUP4 PUSH20 0xFFFFFFFFFFFFFFFFFFFFFFFFFFFFFFFFFFFFFFFF AND MUL OR SWAP1 SSTORE POP PUSH1 0x80 DUP3 ADD MLOAD DUP2 PUSH1 0x4 ADD SSTORE POP POP PUSH1 0x6 PUSH0 DUP2 SLOAD DUP1 SWAP3 SWAP2 SWAP1 PUSH2 0xDFE SWAP1 PUSH2 0x17D1 JUMP JUMPDEST SWAP2 SWAP1 POP SSTORE POP POP POP POP JUMP JUMPDEST DUP2 PUSH20 0xFFFFFFFFFFFFFFFFFFFFFFFFFFFFFFFFFFFFFFFF AND CALLER PUSH20 0xFFFFFFFFFFFFFFFFFFFFFFFFFFFFFFFFFFFFFFFF AND EQ PUSH2 0xE76 JUMPI PUSH1 0x40 MLOAD PUSH32 0x8C379A000000000000000000000000000000000000000000000000000000000 DUP2 MSTORE PUSH1 0x4 ADD PUSH2 0xE6D SWAP1 PUSH2 0x1862 JUMP JUMPDEST PUSH1 0x40 MLOAD DUP1 SWAP2 SUB SWAP1 REVERT JUMPDEST PUSH1 0x40 MLOAD DUP1 PUSH1 0x80 ADD PUSH1 0x40 MSTORE DUP1 PUSH1 0x5 SLOAD DUP2 MSTORE PUSH1 0x20 ADD DUP4 PUSH20 0xFFFFFFFFFFFFFFFFFFFFFFFFFFFFFFFFFFFFFFFF AND DUP2 MSTORE PUSH1 0x20 ADD DUP3 DUP2 MSTORE PUSH1 0x20 ADD TIMESTAMP DUP2 MSTORE POP PUSH0 DUP1 PUSH1 0x5 SLOAD DUP2 MSTORE PUSH1 0x20 ADD SWAP1 DUP2 MSTORE PUSH1 0x20 ADD PUSH0 KECCAK256 PUSH0 DUP3 ADD MLOAD DUP2 PUSH0 ADD SSTORE PUSH1 0x20 DUP3 ADD MLOAD DUP2 PUSH1 0x1 ADD PUSH0 PUSH2 0x100 EXP DUP2 SLOAD DUP2 PUSH20 0xFFFFFFFFFFFFFFFFFFFFFFFFFFFFFFFFFFFFFFFF MUL NOT AND SWAP1 DUP4 PUSH20 0xFFFFFFFFFFFFFFFFFFFFFFFFFFFFFFFFFFFFFFFF AND MUL OR SWAP1 SSTORE POP PUSH1 0x40 DUP3 ADD MLOAD DUP2 PUSH1 0x2 ADD SWAP1 DUP2 PUSH2 0xF24 SWAP2 SWAP1 PUSH2 0x1A1D JUMP JUMPDEST POP PUSH1 0x60 DUP3 ADD MLOAD DUP2 PUSH1 0x3 ADD SSTORE SWAP1 POP POP PUSH1 0x1 PUSH1 0x5 SLOAD PUSH2 0xF41 SWAP2 SWAP1 PUSH2 0x1AEC JUMP JUMPDEST PUSH1 0x5 DUP2 SWAP1 SSTORE POP POP POP JUMP JUMPDEST PUSH1 0x40 MLOAD DUP1 PUSH1 0x80 ADD PUSH1 0x40 MSTORE DUP1 PUSH0 DUP2 MSTORE PUSH1 0x20 ADD PUSH0 PUSH20 0xFFFFFFFFFFFFFFFFFFFFFFFFFFFFFFFFFFFFFFFF AND DUP2 MSTORE PUSH1 0x20 ADD PUSH1 0x60 DUP2 MSTORE PUSH1 0x20 ADD PUSH0 DUP2 MSTORE POP SWAP1 JUMP JUMPDEST PUSH0 PUSH1 0x40 MLOAD SWAP1 POP SWAP1 JUMP JUMPDEST PUSH0 DUP1 REVERT JUMPDEST PUSH0 DUP1 REVERT JUMPDEST PUSH0 PUSH20 0xFFFFFFFFFFFFFFFFFFFFFFFFFFFFFFFFFFFFFFFF DUP3 AND SWAP1 POP SWAP2 SWAP1 POP JUMP JUMPDEST PUSH0 PUSH2 0xFC0 DUP3 PUSH2 0xF97 JUMP JUMPDEST SWAP1 POP SWAP2 SWAP1 POP JUMP JUMPDEST PUSH2 0xFD0 DUP2 PUSH2 0xFB6 JUMP JUMPDEST DUP2 EQ PUSH2 0xFDA JUMPI PUSH0 DUP1 REVERT JUMPDEST POP JUMP JUMPDEST PUSH0 DUP2 CALLDATALOAD SWAP1 POP PUSH2 0xFEB DUP2 PUSH2 0xFC7 JUMP JUMPDEST SWAP3 SWAP2 POP POP JUMP JUMPDEST PUSH0 DUP1 PUSH1 0x40 DUP4 DUP6 SUB SLT ISZERO PUSH2 0x1007 JUMPI PUSH2 0x1006 PUSH2 0xF8F JUMP JUMPDEST JUMPDEST PUSH0 PUSH2 0x1014 DUP6 DUP3 DUP7 ADD PUSH2 0xFDD JUMP JUMPDEST SWAP3 POP POP PUSH1 0x20 PUSH2 0x1025 DUP6 DUP3 DUP7 ADD PUSH2 0xFDD JUMP JUMPDEST SWAP2 POP POP SWAP3 POP SWAP3 SWAP1 POP JUMP JUMPDEST PUSH0 DUP2 ISZERO ISZERO SWAP1 POP SWAP2 SWAP1 POP JUMP JUMPDEST PUSH2 0x1043 DUP2 PUSH2 0x102F JUMP JUMPDEST DUP3 MSTORE POP POP JUMP JUMPDEST PUSH0 PUSH1 0x20 DUP3 ADD SWAP1 POP PUSH2 0x105C PUSH0 DUP4 ADD DUP5 PUSH2 0x103A JUMP JUMPDEST SWAP3 SWAP2 POP POP JUMP JUMPDEST PUSH0 DUP2 SWAP1 POP SWAP2 SWAP1 POP JUMP JUMPDEST PUSH2 0x1074 DUP2 PUSH2 0x1062 JUMP JUMPDEST DUP2 EQ PUSH2 0x107E JUMPI PUSH0 DUP1 REVERT JUMPDEST POP JUMP JUMPDEST PUSH0 DUP2 CALLDATALOAD SWAP1 POP PUSH2 0x108F DUP2 PUSH2 0x106B JUMP JUMPDEST SWAP3 SWAP2 POP POP JUMP JUMPDEST PUSH0 DUP1 PUSH1 0x40 DUP4 DUP6 SUB SLT ISZERO PUSH2 0x10AB JUMPI PUSH2 0x10AA PUSH2 0xF8F JUMP JUMPDEST JUMPDEST PUSH0 PUSH2 0x10B8 DUP6 DUP3 DUP7 ADD PUSH2 0xFDD JUMP JUMPDEST SWAP3 POP POP PUSH1 0x20 PUSH2 0x10C9 DUP6 DUP3 DUP7 ADD PUSH2 0x1081 JUMP JUMPDEST SWAP2 POP POP SWAP3 POP SWAP3 SWAP1 POP JUMP JUMPDEST PUSH2 0x10DC DUP2 PUSH2 0x1062 JUMP JUMPDEST DUP3 MSTORE POP POP JUMP JUMPDEST PUSH0 DUP2 MLOAD SWAP1 POP SWAP2 SWAP1 POP JUMP JUMPDEST PUSH0 DUP3 DUP3 MSTORE PUSH1 0x20 DUP3 ADD SWAP1 POP SWAP3 SWAP2 POP POP JUMP JUMPDEST PUSH0 JUMPDEST DUP4 DUP2 LT ISZERO PUSH2 0x1119 JUMPI DUP1 DUP3 ADD MLOAD DUP2 DUP5 ADD MSTORE PUSH1 0x20 DUP2 ADD SWAP1 POP PUSH2 0x10FE JUMP JUMPDEST PUSH0 DUP5 DUP5 ADD MSTORE POP POP POP POP JUMP JUMPDEST PUSH0 PUSH1 0x1F NOT PUSH1 0x1F DUP4 ADD AND SWAP1 POP SWAP2 SWAP1 POP JUMP JUMPDEST PUSH0 PUSH2 0x113E DUP3 PUSH2 0x10E2 JUMP JUMPDEST PUSH2 0x1148 DUP2 DUP6 PUSH2 0x10EC JUMP JUMPDEST SWAP4 POP PUSH2 0x1158 DUP2 DUP6 PUSH1 0x20 DUP7 ADD PUSH2 0x10FC JUMP JUMPDEST PUSH2 0x1161 DUP2 PUSH2 0x1124 JUMP JUMPDEST DUP5 ADD SWAP2 POP POP SWAP3 SWAP2 POP POP JUMP JUMPDEST PUSH2 0x1175 DUP2 PUSH2 0xFB6 JUMP JUMPDEST DUP3 MSTORE POP POP JUMP JUMPDEST PUSH0 PUSH1 0xA0 DUP3 ADD SWAP1 POP PUSH2 0x118E PUSH0 DUP4 ADD DUP9 PUSH2 0x10D3 JUMP JUMPDEST DUP2 DUP2 SUB PUSH1 0x20 DUP4 ADD MSTORE PUSH2 0x11A0 DUP2 DUP8 PUSH2 0x1134 JUMP JUMPDEST SWAP1 POP PUSH2 0x11AF PUSH1 0x40 DUP4 ADD DUP7 PUSH2 0x116C JUMP JUMPDEST PUSH2 0x11BC PUSH1 0x60 DUP4 ADD DUP6 PUSH2 0x116C JUMP JUMPDEST PUSH2 0x11C9 PUSH1 0x80 DUP4 ADD DUP5 PUSH2 0x10D3 JUMP JUMPDEST SWAP7 SWAP6 POP POP POP POP POP POP JUMP JUMPDEST PUSH0 PUSH1 0x20 DUP3 DUP5 SUB SLT ISZERO PUSH2 0x11E8 JUMPI PUSH2 0x11E7 PUSH2 0xF8F JUMP JUMPDEST JUMPDEST PUSH0 PUSH2 0x11F5 DUP5 DUP3 DUP6 ADD PUSH2 0xFDD JUMP JUMPDEST SWAP2 POP POP SWAP3 SWAP2 POP POP JUMP JUMPDEST PUSH0 PUSH1 0x20 DUP3 DUP5 SUB SLT ISZERO PUSH2 0x1213 JUMPI PUSH2 0x1212 PUSH2 0xF8F JUMP JUMPDEST JUMPDEST PUSH0 PUSH2 0x1220 DUP5 DUP3 DUP6 ADD PUSH2 0x1081 JUMP JUMPDEST SWAP2 POP POP SWAP3 SWAP2 POP POP JUMP JUMPDEST PUSH0 DUP2 MLOAD SWAP1 POP SWAP2 SWAP1 POP JUMP JUMPDEST PUSH0 DUP3 DUP3 MSTORE PUSH1 0x20 DUP3 ADD SWAP1 POP SWAP3 SWAP2 POP POP JUMP JUMPDEST PUSH0 DUP2 SWAP1 POP PUSH1 0x20 DUP3 ADD SWAP1 POP SWAP2 SWAP1 POP JUMP JUMPDEST PUSH2 0x125B DUP2 PUSH2 0x1062 JUMP JUMPDEST DUP3 MSTORE POP POP JUMP JUMPDEST PUSH2 0x126A DUP2 PUSH2 0xFB6 JUMP JUMPDEST DUP3 MSTORE POP POP JUMP JUMPDEST PUSH0 DUP3 DUP3 MSTORE PUSH1 0x20 DUP3 ADD SWAP1 POP SWAP3 SWAP2 POP POP JUMP JUMPDEST PUSH0 PUSH2 0x128A DUP3 PUSH2 0x10E2 JUMP JUMPDEST PUSH2 0x1294 DUP2 DUP6 PUSH2 0x1270 JUMP JUMPDEST SWAP4 POP PUSH2 0x12A4 DUP2 DUP6 PUSH1 0x20 DUP7 ADD PUSH2 0x10FC JUMP JUMPDEST PUSH2 0x12AD DUP2 PUSH2 0x1124 JUMP JUMPDEST DUP5 ADD SWAP2 POP POP SWAP3 SWAP2 POP POP JUMP JUMPDEST PUSH0 PUSH1 0x80 DUP4 ADD PUSH0 DUP4 ADD MLOAD PUSH2 0x12CD PUSH0 DUP7 ADD DUP3 PUSH2 0x1252 JUMP JUMPDEST POP PUSH1 0x20 DUP4 ADD MLOAD PUSH2 0x12E0 PUSH1 0x20 DUP7 ADD DUP3 PUSH2 0x1261 JUMP JUMPDEST POP PUSH1 0x40 DUP4 ADD MLOAD DUP5 DUP3 SUB PUSH1 0x40 DUP7 ADD MSTORE PUSH2 0x12F8 DUP3 DUP3 PUSH2 0x1280 JUMP JUMPDEST SWAP2 POP POP PUSH1 0x60 DUP4 ADD MLOAD PUSH2 0x130D PUSH1 0x60 DUP7 ADD DUP3 PUSH2 0x1252 JUMP JUMPDEST POP DUP1 SWAP2 POP POP SWAP3 SWAP2 POP POP JUMP JUMPDEST PUSH0 PUSH2 0x1323 DUP4 DUP4 PUSH2 0x12B8 JUMP JUMPDEST SWAP1 POP SWAP3 SWAP2 POP POP JUMP JUMPDEST PUSH0 PUSH1 0x20 DUP3 ADD SWAP1 POP SWAP2 SWAP1 POP JUMP JUMPDEST PUSH0 PUSH2 0x1341 DUP3 PUSH2 0x1229 JUMP JUMPDEST PUSH2 0x134B DUP2 DUP6 PUSH2 0x1233 JUMP JUMPDEST SWAP4 POP DUP4 PUSH1 0x20 DUP3 MUL DUP6 ADD PUSH2 0x135D DUP6 PUSH2 0x1243 JUMP JUMPDEST DUP1 PUSH0 JUMPDEST DUP6 DUP2 LT ISZERO PUSH2 0x1398 JUMPI DUP5 DUP5 SUB DUP10 MSTORE DUP2 MLOAD PUSH2 0x1379 DUP6 DUP3 PUSH2 0x1318 JUMP JUMPDEST SWAP5 POP PUSH2 0x1384 DUP4 PUSH2 0x132B JUMP JUMPDEST SWAP3 POP PUSH1 0x20 DUP11 ADD SWAP10 POP POP PUSH1 0x1 DUP2 ADD SWAP1 POP PUSH2 0x1360 JUMP JUMPDEST POP DUP3 SWAP8 POP DUP8 SWAP6 POP POP POP POP POP POP SWAP3 SWAP2 POP POP JUMP JUMPDEST PUSH0 PUSH1 0x20 DUP3 ADD SWAP1 POP DUP2 DUP2 SUB PUSH0 DUP4 ADD MSTORE PUSH2 0x13C2 DUP2 DUP5 PUSH2 0x1337 JUMP JUMPDEST SWAP1 POP SWAP3 SWAP2 POP POP JUMP JUMPDEST PUSH0 PUSH1 0x20 DUP3 ADD SWAP1 POP PUSH2 0x13DD PUSH0 DUP4 ADD DUP5 PUSH2 0x116C JUMP JUMPDEST SWAP3 SWAP2 POP POP JUMP JUMPDEST PUSH0 PUSH1 0x20 DUP3 ADD SWAP1 POP PUSH2 0x13F6 PUSH0 DUP4 ADD DUP5 PUSH2 0x10D3 JUMP JUMPDEST SWAP3 SWAP2 POP POP JUMP JUMPDEST PUSH0 DUP1 REVERT JUMPDEST PUSH0 DUP1 REVERT JUMPDEST PUSH32 0x4E487B7100000000000000000000000000000000000000000000000000000000 PUSH0 MSTORE PUSH1 0x41 PUSH1 0x4 MSTORE PUSH1 0x24 PUSH0 REVERT JUMPDEST PUSH2 0x143A DUP3 PUSH2 0x1124 JUMP JUMPDEST DUP2 ADD DUP2 DUP2 LT PUSH8 0xFFFFFFFFFFFFFFFF DUP3 GT OR ISZERO PUSH2 0x1459 JUMPI PUSH2 0x1458 PUSH2 0x1404 JUMP JUMPDEST JUMPDEST DUP1 PUSH1 0x40 MSTORE POP POP POP JUMP JUMPDEST PUSH0 PUSH2 0x146B PUSH2 0xF86 JUMP JUMPDEST SWAP1 POP PUSH2 0x1477 DUP3 DUP3 PUSH2 0x1431 JUMP JUMPDEST SWAP2 SWAP1 POP JUMP JUMPDEST PUSH0 PUSH8 0xFFFFFFFFFFFFFFFF DUP3 GT ISZERO PUSH2 0x1496 JUMPI PUSH2 0x1495 PUSH2 0x1404 JUMP JUMPDEST JUMPDEST PUSH2 0x149F DUP3 PUSH2 0x1124 JUMP JUMPDEST SWAP1 POP PUSH1 0x20 DUP2 ADD SWAP1 POP SWAP2 SWAP1 POP JUMP JUMPDEST DUP3 DUP2 DUP4 CALLDATACOPY PUSH0 DUP4 DUP4 ADD MSTORE POP POP POP JUMP JUMPDEST PUSH0 PUSH2 0x14CC PUSH2 0x14C7 DUP5 PUSH2 0x147C JUMP JUMPDEST PUSH2 0x1462 JUMP JUMPDEST SWAP1 POP DUP3 DUP2 MSTORE PUSH1 0x20 DUP2 ADD DUP5 DUP5 DUP5 ADD GT ISZERO PUSH2 0x14E8 JUMPI PUSH2 0x14E7 PUSH2 0x1400 JUMP JUMPDEST JUMPDEST PUSH2 0x14F3 DUP5 DUP3 DUP6 PUSH2 0x14AC JUMP JUMPDEST POP SWAP4 SWAP3 POP POP POP JUMP JUMPDEST PUSH0 DUP3 PUSH1 0x1F DUP4 ADD SLT PUSH2 0x150F JUMPI PUSH2 0x150E PUSH2 0x13FC JUMP JUMPDEST JUMPDEST DUP2 CALLDATALOAD PUSH2 0x151F DUP5 DUP3 PUSH1 0x20 DUP7 ADD PUSH2 0x14BA JUMP JUMPDEST SWAP2 POP POP SWAP3 SWAP2 POP POP JUMP JUMPDEST PUSH0 DUP1 PUSH0 PUSH1 0x60 DUP5 DUP7 SUB SLT ISZERO PUSH2 0x153F JUMPI PUSH2 0x153E PUSH2 0xF8F JUMP JUMPDEST JUMPDEST PUSH0 PUSH2 0x154C DUP7 DUP3 DUP8 ADD PUSH2 0xFDD JUMP JUMPDEST SWAP4 POP POP PUSH1 0x20 PUSH2 0x155D DUP7 DUP3 DUP8 ADD PUSH2 0xFDD JUMP JUMPDEST SWAP3 POP POP PUSH1 0x40 DUP5 ADD CALLDATALOAD PUSH8 0xFFFFFFFFFFFFFFFF DUP2 GT ISZERO PUSH2 0x157E JUMPI PUSH2 0x157D PUSH2 0xF93 JUMP JUMPDEST JUMPDEST PUSH2 0x158A DUP7 DUP3 DUP8 ADD PUSH2 0x14FB JUMP JUMPDEST SWAP2 POP POP SWAP3 POP SWAP3 POP SWAP3 JUMP JUMPDEST PUSH0 DUP1 PUSH1 0x40 DUP4 DUP6 SUB SLT ISZERO PUSH2 0x15AA JUMPI PUSH2 0x15A9 PUSH2 0xF8F JUMP JUMPDEST JUMPDEST PUSH0 PUSH2 0x15B7 DUP6 DUP3 DUP7 ADD PUSH2 0xFDD JUMP JUMPDEST SWAP3 POP POP PUSH1 0x20 DUP4 ADD CALLDATALOAD PUSH8 0xFFFFFFFFFFFFFFFF DUP2 GT ISZERO PUSH2 0x15D8 JUMPI PUSH2 0x15D7 PUSH2 0xF93 JUMP JUMPDEST JUMPDEST PUSH2 0x15E4 DUP6 DUP3 DUP7 ADD PUSH2 0x14FB JUMP JUMPDEST SWAP2 POP POP SWAP3 POP SWAP3 SWAP1 POP JUMP JUMPDEST PUSH0 PUSH1 0x80 DUP3 ADD SWAP1 POP PUSH2 0x1601 PUSH0 DUP4 ADD DUP8 PUSH2 0x10D3 JUMP JUMPDEST PUSH2 0x160E PUSH1 0x20 DUP4 ADD DUP7 PUSH2 0x116C JUMP JUMPDEST DUP2 DUP2 SUB PUSH1 0x40 DUP4 ADD MSTORE PUSH2 0x1620 DUP2 DUP6 PUSH2 0x1134 JUMP JUMPDEST SWAP1 POP PUSH2 0x162F PUSH1 0x60 DUP4 ADD DUP5 PUSH2 0x10D3 JUMP JUMPDEST SWAP6 SWAP5 POP POP POP POP POP JUMP JUMPDEST PUSH0 PUSH1 0x20 DUP3 DUP5 SUB SLT ISZERO PUSH2 0x164D JUMPI PUSH2 0x164C PUSH2 0xF8F JUMP JUMPDEST JUMPDEST PUSH0 DUP3 ADD CALLDATALOAD PUSH8 0xFFFFFFFFFFFFFFFF DUP2 GT ISZERO PUSH2 0x166A JUMPI PUSH2 0x1669 PUSH2 0xF93 JUMP JUMPDEST JUMPDEST PUSH2 0x1676 DUP5 DUP3 DUP6 ADD PUSH2 0x14FB JUMP JUMPDEST SWAP2 POP POP SWAP3 SWAP2 POP POP JUMP JUMPDEST PUSH32 0x4E487B7100000000000000000000000000000000000000000000000000000000 PUSH0 MSTORE PUSH1 0x22 PUSH1 0x4 MSTORE PUSH1 0x24 PUSH0 REVERT JUMPDEST PUSH0 PUSH1 0x2 DUP3 DIV SWAP1 POP PUSH1 0x1 DUP3 AND DUP1 PUSH2 0x16C3 JUMPI PUSH1 0x7F DUP3 AND SWAP2 POP JUMPDEST PUSH1 0x20 DUP3 LT DUP2 SUB PUSH2 0x16D6 JUMPI PUSH2 0x16D5 PUSH2 0x167F JUMP JUMPDEST JUMPDEST POP SWAP2 SWAP1 POP JUMP JUMPDEST PUSH32 0x436F756E74206973206E6F742070726F70657200000000000000000000000000 PUSH0 DUP3 ADD MSTORE POP JUMP JUMPDEST PUSH0 PUSH2 0x1710 PUSH1 0x13 DUP4 PUSH2 0x10EC JUMP JUMPDEST SWAP2 POP PUSH2 0x171B DUP3 PUSH2 0x16DC JUMP JUMPDEST PUSH1 0x20 DUP3 ADD SWAP1 POP SWAP2 SWAP1 POP JUMP JUMPDEST PUSH0 PUSH1 0x20 DUP3 ADD SWAP1 POP DUP2 DUP2 SUB PUSH0 DUP4 ADD MSTORE PUSH2 0x173D DUP2 PUSH2 0x1704 JUMP JUMPDEST SWAP1 POP SWAP2 SWAP1 POP JUMP JUMPDEST PUSH32 0x4E487B7100000000000000000000000000000000000000000000000000000000 PUSH0 MSTORE PUSH1 0x11 PUSH1 0x4 MSTORE PUSH1 0x24 PUSH0 REVERT JUMPDEST PUSH0 PUSH2 0x177B DUP3 PUSH2 0x1062 JUMP JUMPDEST SWAP2 POP PUSH2 0x1786 DUP4 PUSH2 0x1062 JUMP JUMPDEST SWAP3 POP DUP3 DUP3 SUB SWAP1 POP DUP2 DUP2 GT ISZERO PUSH2 0x179E JUMPI PUSH2 0x179D PUSH2 0x1744 JUMP JUMPDEST JUMPDEST SWAP3 SWAP2 POP POP JUMP JUMPDEST PUSH32 0x4E487B7100000000000000000000000000000000000000000000000000000000 PUSH0 MSTORE PUSH1 0x32 PUSH1 0x4 MSTORE PUSH1 0x24 PUSH0 REVERT JUMPDEST PUSH0 PUSH2 0x17DB DUP3 PUSH2 0x1062 JUMP JUMPDEST SWAP2 POP PUSH32 0xFFFFFFFFFFFFFFFFFFFFFFFFFFFFFFFFFFFFFFFFFFFFFFFFFFFFFFFFFFFFFFFF DUP3 SUB PUSH2 0x180D JUMPI PUSH2 0x180C PUSH2 0x1744 JUMP JUMPDEST JUMPDEST PUSH1 0x1 DUP3 ADD SWAP1 POP SWAP2 SWAP1 POP JUMP JUMPDEST PUSH32 0x4E6F7420612076616C6964207573657200000000000000000000000000000000 PUSH0 DUP3 ADD MSTORE POP JUMP JUMPDEST PUSH0 PUSH2 0x184C PUSH1 0x10 DUP4 PUSH2 0x10EC JUMP JUMPDEST SWAP2 POP PUSH2 0x1857 DUP3 PUSH2 0x1818 JUMP JUMPDEST PUSH1 0x20 DUP3 ADD SWAP1 POP SWAP2 SWAP1 POP JUMP JUMPDEST PUSH0 PUSH1 0x20 DUP3 ADD SWAP1 POP DUP2 DUP2 SUB PUSH0 DUP4 ADD MSTORE PUSH2 0x1879 DUP2 PUSH2 0x1840 JUMP JUMPDEST SWAP1 POP SWAP2 SWAP1 POP JUMP JUMPDEST PUSH0 DUP2 SWAP1 POP DUP2 PUSH0 MSTORE PUSH1 0x20 PUSH0 KECCAK256 SWAP1 POP SWAP2 SWAP1 POP JUMP JUMPDEST PUSH0 PUSH1 0x20 PUSH1 0x1F DUP4 ADD DIV SWAP1 POP SWAP2 SWAP1 POP JUMP JUMPDEST PUSH0 DUP3 DUP3 SHL SWAP1 POP SWAP3 SWAP2 POP POP JUMP JUMPDEST PUSH0 PUSH1 0x8 DUP4 MUL PUSH2 0x18DC PUSH32 0xFFFFFFFFFFFFFFFFFFFFFFFFFFFFFFFFFFFFFFFFFFFFFFFFFFFFFFFFFFFFFFFF DUP3 PUSH2 0x18A1 JUMP JUMPDEST PUSH2 0x18E6 DUP7 DUP4 PUSH2 0x18A1 JUMP JUMPDEST SWAP6 POP DUP1 NOT DUP5 AND SWAP4 POP DUP1 DUP7 AND DUP5 OR SWAP3 POP POP POP SWAP4 SWAP3 POP POP POP JUMP JUMPDEST PUSH0 DUP2 SWAP1 POP SWAP2 SWAP1 POP JUMP JUMPDEST PUSH0 PUSH2 0x1921 PUSH2 0x191C PUSH2 0x1917 DUP5 PUSH2 0x1062 JUMP JUMPDEST PUSH2 0x18FE JUMP JUMPDEST PUSH2 0x1062 JUMP JUMPDEST SWAP1 POP SWAP2 SWAP1 POP JUMP JUMPDEST PUSH0 DUP2 SWAP1 POP SWAP2 SWAP1 POP JUMP JUMPDEST PUSH2 0x193A DUP4 PUSH2 0x1907 JUMP JUMPDEST PUSH2 0x194E PUSH2 0x1946 DUP3 PUSH2 0x1928 JUMP JUMPDEST DUP5 DUP5 SLOAD PUSH2 0x18AD JUMP JUMPDEST DUP3 SSTORE POP POP POP POP JUMP JUMPDEST PUSH0 SWAP1 JUMP JUMPDEST PUSH2 0x1962 PUSH2 0x1956 JUMP JUMPDEST PUSH2 0x196D DUP2 DUP5 DUP5 PUSH2 0x1931 JUMP JUMPDEST POP POP POP JUMP JUMPDEST JUMPDEST DUP2 DUP2 LT ISZERO PUSH2 0x1990 JUMPI PUSH2 0x1985 PUSH0 DUP3 PUSH2 0x195A JUMP JUMPDEST PUSH1 0x1 DUP2 ADD SWAP1 POP PUSH2 0x1973 JUMP JUMPDEST POP POP JUMP JUMPDEST PUSH1 0x1F DUP3 GT ISZERO PUSH2 0x19D5 JUMPI PUSH2 0x19A6 DUP2 PUSH2 0x1880 JUMP JUMPDEST PUSH2 0x19AF DUP5 PUSH2 0x1892 JUMP JUMPDEST DUP2 ADD PUSH1 0x20 DUP6 LT ISZERO PUSH2 0x19BE JUMPI DUP2 SWAP1 POP JUMPDEST PUSH2 0x19D2 PUSH2 0x19CA DUP6 PUSH2 0x1892 JUMP JUMPDEST DUP4 ADD DUP3 PUSH2 0x1972 JUMP JUMPDEST POP POP JUMPDEST POP POP POP JUMP JUMPDEST PUSH0 DUP3 DUP3 SHR SWAP1 POP SWAP3 SWAP2 POP POP JUMP JUMPDEST PUSH0 PUSH2 0x19F5 PUSH0 NOT DUP5 PUSH1 0x8 MUL PUSH2 0x19DA JUMP JUMPDEST NOT DUP1 DUP4 AND SWAP2 POP POP SWAP3 SWAP2 POP POP JUMP JUMPDEST PUSH0 PUSH2 0x1A0D DUP4 DUP4 PUSH2 0x19E6 JUMP JUMPDEST SWAP2 POP DUP3 PUSH1 0x2 MUL DUP3 OR SWAP1 POP SWAP3 SWAP2 POP POP JUMP JUMPDEST PUSH2 0x1A26 DUP3 PUSH2 0x10E2 JUMP JUMPDEST PUSH8 0xFFFFFFFFFFFFFFFF DUP2 GT ISZERO PUSH2 0x1A3F JUMPI PUSH2 0x1A3E PUSH2 0x1404 JUMP JUMPDEST JUMPDEST PUSH2 0x1A49 DUP3 SLOAD PUSH2 0x16AC JUMP JUMPDEST PUSH2 0x1A54 DUP3 DUP3 DUP6 PUSH2 0x1994 JUMP JUMPDEST PUSH0 PUSH1 0x20 SWAP1 POP PUSH1 0x1F DUP4 GT PUSH1 0x1 DUP2 EQ PUSH2 0x1A85 JUMPI PUSH0 DUP5 ISZERO PUSH2 0x1A73 JUMPI DUP3 DUP8 ADD MLOAD SWAP1 POP JUMPDEST PUSH2 0x1A7D DUP6 DUP3 PUSH2 0x1A02 JUMP JUMPDEST DUP7 SSTORE POP PUSH2 0x1AE4 JUMP JUMPDEST PUSH1 0x1F NOT DUP5 AND PUSH2 0x1A93 DUP7 PUSH2 0x1880 JUMP JUMPDEST PUSH0 JUMPDEST DUP3 DUP2 LT ISZERO PUSH2 0x1ABA JUMPI DUP5 DUP10 ADD MLOAD DUP3 SSTORE PUSH1 0x1 DUP3 ADD SWAP2 POP PUSH1 0x20 DUP6 ADD SWAP5 POP PUSH1 0x20 DUP2 ADD SWAP1 POP PUSH2 0x1A95 JUMP JUMPDEST DUP7 DUP4 LT ISZERO PUSH2 0x1AD7 JUMPI DUP5 DUP10 ADD MLOAD PUSH2 0x1AD3 PUSH1 0x1F DUP10 AND DUP3 PUSH2 0x19E6 JUMP JUMPDEST DUP4 SSTORE POP JUMPDEST PUSH1 0x1 PUSH1 0x2 DUP9 MUL ADD DUP9 SSTORE POP POP POP JUMPDEST POP POP POP POP POP POP JUMP JUMPDEST PUSH0 PUSH2 0x1AF6 DUP3 PUSH2 0x1062 JUMP JUMPDEST SWAP2 POP PUSH2 0x1B01 DUP4 PUSH2 0x1062 JUMP JUMPDEST SWAP3 POP DUP3 DUP3 ADD SWAP1 POP DUP1 DUP3 GT ISZERO PUSH2 0x1B19 JUMPI PUSH2 0x1B18 PUSH2 0x1744 JUMP JUMPDEST JUMPDEST SWAP3 SWAP2 POP POP JUMP INVALID LOG2 PUSH5 0x6970667358 0x22 SLT KECCAK256 0xA8 DUP6 0xCB CALLER SELFDESTRUCT SLT JUMPI DUP12 0xE4 0xC5 PUSH16 0x8D5204C7616CD078FE37B10102EC1E26 ADDRESS DUP2 0xCD PUSH1 0xDB PUSH5 0x736F6C6343 STOP ADDMOD XOR STOP CALLER "
				},
				"gasEstimates": {
					"creation": {
						"codeDepositCost": "1399400",
						"executionCost": "1456",
						"totalCost": "1400856"
					},
					"external": {
						"allow(address)": "24978",
						"conversations(address,uint256)": "infinite",
						"disallow(address)": "24978",
						"follow(address)": "49180",
						"following(address,uint256)": "infinite",
						"getLatestTweets(uint256)": "infinite",
						"getLatestofUser(address,uint256)": "infinite",
						"operators(address,address)": "infinite",
						"sendMessage(address,address,string)": "infinite",
						"sendMessage(address,string)": "infinite",
						"tweet(address,string)": "infinite",
						"tweet(string)": "infinite",
						"tweets(uint256)": "infinite",
						"tweetsOf(address,uint256)": "infinite"
					},
					"internal": {
						"_sendMessage(address,address,string memory)": "infinite",
						"_tweet(address,string memory)": "infinite"
					}
				},
				"methodIdentifiers": {
					"allow(address)": "ff9913e8",
					"conversations(address,uint256)": "3befea09",
					"disallow(address)": "a9ed9cb8",
					"follow(address)": "4dbf27cc",
					"following(address,uint256)": "9139cda5",
					"getLatestTweets(uint256)": "4dc0a687",
					"getLatestofUser(address,uint256)": "5284b64a",
					"operators(address,address)": "2637588e",
					"sendMessage(address,address,string)": "b88e318d",
					"sendMessage(address,string)": "de6f24bb",
					"tweet(address,string)": "d21d1596",
					"tweet(string)": "fb46d4c5",
					"tweets(uint256)": "e8d857b0",
					"tweetsOf(address,uint256)": "af22bf94"
				}
			},
			"storageLayout": {
				"storage": [
					{
						"astId": 26,
						"contract": "contracts/1_Tweeter.sol:TweetContent",
						"label": "tweets",
						"offset": 0,
						"slot": "0",
						"type": "t_mapping(t_uint256,t_struct(Tweet)10_storage)"
					},
					{
						"astId": 31,
						"contract": "contracts/1_Tweeter.sol:TweetContent",
						"label": "tweetsOf",
						"offset": 0,
						"slot": "1",
						"type": "t_mapping(t_address,t_array(t_uint256)dyn_storage)"
					},
					{
						"astId": 37,
						"contract": "contracts/1_Tweeter.sol:TweetContent",
						"label": "conversations",
						"offset": 0,
						"slot": "2",
						"type": "t_mapping(t_address,t_array(t_struct(Message)21_storage)dyn_storage)"
					},
					{
						"astId": 43,
						"contract": "contracts/1_Tweeter.sol:TweetContent",
						"label": "operators",
						"offset": 0,
						"slot": "3",
						"type": "t_mapping(t_address,t_mapping(t_address,t_bool))"
					},
					{
						"astId": 48,
						"contract": "contracts/1_Tweeter.sol:TweetContent",
						"label": "following",
						"offset": 0,
						"slot": "4",
						"type": "t_mapping(t_address,t_array(t_address)dyn_storage)"
					},
					{
						"astId": 50,
						"contract": "contracts/1_Tweeter.sol:TweetContent",
						"label": "nextId",
						"offset": 0,
						"slot": "5",
						"type": "t_uint256"
					},
					{
						"astId": 52,
						"contract": "contracts/1_Tweeter.sol:TweetContent",
						"label": "nextMessageId",
						"offset": 0,
						"slot": "6",
						"type": "t_uint256"
					}
				],
				"types": {
					"t_address": {
						"encoding": "inplace",
						"label": "address",
						"numberOfBytes": "20"
					},
					"t_array(t_address)dyn_storage": {
						"base": "t_address",
						"encoding": "dynamic_array",
						"label": "address[]",
						"numberOfBytes": "32"
					},
					"t_array(t_struct(Message)21_storage)dyn_storage": {
						"base": "t_struct(Message)21_storage",
						"encoding": "dynamic_array",
						"label": "struct TweetContent.Message[]",
						"numberOfBytes": "32"
					},
					"t_array(t_uint256)dyn_storage": {
						"base": "t_uint256",
						"encoding": "dynamic_array",
						"label": "uint256[]",
						"numberOfBytes": "32"
					},
					"t_bool": {
						"encoding": "inplace",
						"label": "bool",
						"numberOfBytes": "1"
					},
					"t_mapping(t_address,t_array(t_address)dyn_storage)": {
						"encoding": "mapping",
						"key": "t_address",
						"label": "mapping(address => address[])",
						"numberOfBytes": "32",
						"value": "t_array(t_address)dyn_storage"
					},
					"t_mapping(t_address,t_array(t_struct(Message)21_storage)dyn_storage)": {
						"encoding": "mapping",
						"key": "t_address",
						"label": "mapping(address => struct TweetContent.Message[])",
						"numberOfBytes": "32",
						"value": "t_array(t_struct(Message)21_storage)dyn_storage"
					},
					"t_mapping(t_address,t_array(t_uint256)dyn_storage)": {
						"encoding": "mapping",
						"key": "t_address",
						"label": "mapping(address => uint256[])",
						"numberOfBytes": "32",
						"value": "t_array(t_uint256)dyn_storage"
					},
					"t_mapping(t_address,t_bool)": {
						"encoding": "mapping",
						"key": "t_address",
						"label": "mapping(address => bool)",
						"numberOfBytes": "32",
						"value": "t_bool"
					},
					"t_mapping(t_address,t_mapping(t_address,t_bool))": {
						"encoding": "mapping",
						"key": "t_address",
						"label": "mapping(address => mapping(address => bool))",
						"numberOfBytes": "32",
						"value": "t_mapping(t_address,t_bool)"
					},
					"t_mapping(t_uint256,t_struct(Tweet)10_storage)": {
						"encoding": "mapping",
						"key": "t_uint256",
						"label": "mapping(uint256 => struct TweetContent.Tweet)",
						"numberOfBytes": "32",
						"value": "t_struct(Tweet)10_storage"
					},
					"t_string_storage": {
						"encoding": "bytes",
						"label": "string",
						"numberOfBytes": "32"
					},
					"t_struct(Message)21_storage": {
						"encoding": "inplace",
						"label": "struct TweetContent.Message",
						"members": [
							{
								"astId": 12,
								"contract": "contracts/1_Tweeter.sol:TweetContent",
								"label": "id",
								"offset": 0,
								"slot": "0",
								"type": "t_uint256"
							},
							{
								"astId": 14,
								"contract": "contracts/1_Tweeter.sol:TweetContent",
								"label": "content",
								"offset": 0,
								"slot": "1",
								"type": "t_string_storage"
							},
							{
								"astId": 16,
								"contract": "contracts/1_Tweeter.sol:TweetContent",
								"label": "to",
								"offset": 0,
								"slot": "2",
								"type": "t_address"
							},
							{
								"astId": 18,
								"contract": "contracts/1_Tweeter.sol:TweetContent",
								"label": "from",
								"offset": 0,
								"slot": "3",
								"type": "t_address"
							},
							{
								"astId": 20,
								"contract": "contracts/1_Tweeter.sol:TweetContent",
								"label": "createdAt",
								"offset": 0,
								"slot": "4",
								"type": "t_uint256"
							}
						],
						"numberOfBytes": "160"
					},
					"t_struct(Tweet)10_storage": {
						"encoding": "inplace",
						"label": "struct TweetContent.Tweet",
						"members": [
							{
								"astId": 3,
								"contract": "contracts/1_Tweeter.sol:TweetContent",
								"label": "id",
								"offset": 0,
								"slot": "0",
								"type": "t_uint256"
							},
							{
								"astId": 5,
								"contract": "contracts/1_Tweeter.sol:TweetContent",
								"label": "author",
								"offset": 0,
								"slot": "1",
								"type": "t_address"
							},
							{
								"astId": 7,
								"contract": "contracts/1_Tweeter.sol:TweetContent",
								"label": "content",
								"offset": 0,
								"slot": "2",
								"type": "t_string_storage"
							},
							{
								"astId": 9,
								"contract": "contracts/1_Tweeter.sol:TweetContent",
								"label": "createdAt",
								"offset": 0,
								"slot": "3",
								"type": "t_uint256"
							}
						],
						"numberOfBytes": "128"
					},
					"t_uint256": {
						"encoding": "inplace",
						"label": "uint256",
						"numberOfBytes": "32"
					}
				}
			},
			"userdoc": {
				"kind": "user",
				"methods": {},
				"version": 1
			}
		}
	}
}